{
  "_format": "hh-sol-artifact-1",
  "contractName": "VotingRegister",
  "sourceName": "contracts/VotingRegister.sol",
  "abi": [
    {
      "inputs": [],
      "stateMutability": "nonpayable",
      "type": "constructor"
    },
    {
      "inputs": [],
      "name": "AccessControlBadConfirmation",
      "type": "error"
    },
    {
      "inputs": [
        {
          "internalType": "address",
          "name": "account",
          "type": "address"
        },
        {
          "internalType": "bytes32",
          "name": "neededRole",
          "type": "bytes32"
        }
      ],
      "name": "AccessControlUnauthorizedAccount",
      "type": "error"
    },
    {
      "anonymous": false,
      "inputs": [
        {
          "indexed": true,
          "internalType": "bytes32",
          "name": "role",
          "type": "bytes32"
        },
        {
          "indexed": true,
          "internalType": "bytes32",
          "name": "previousAdminRole",
          "type": "bytes32"
        },
        {
          "indexed": true,
          "internalType": "bytes32",
          "name": "newAdminRole",
          "type": "bytes32"
        }
      ],
      "name": "RoleAdminChanged",
      "type": "event"
    },
    {
      "anonymous": false,
      "inputs": [
        {
          "indexed": true,
          "internalType": "bytes32",
          "name": "role",
          "type": "bytes32"
        },
        {
          "indexed": true,
          "internalType": "address",
          "name": "account",
          "type": "address"
        },
        {
          "indexed": true,
          "internalType": "address",
          "name": "sender",
          "type": "address"
        }
      ],
      "name": "RoleGranted",
      "type": "event"
    },
    {
      "anonymous": false,
      "inputs": [
        {
          "indexed": true,
          "internalType": "bytes32",
          "name": "role",
          "type": "bytes32"
        },
        {
          "indexed": true,
          "internalType": "address",
          "name": "account",
          "type": "address"
        },
        {
          "indexed": true,
          "internalType": "address",
          "name": "sender",
          "type": "address"
        }
      ],
      "name": "RoleRevoked",
      "type": "event"
    },
    {
      "inputs": [],
      "name": "DEFAULT_ADMIN_ROLE",
      "outputs": [
        {
          "internalType": "bytes32",
          "name": "",
          "type": "bytes32"
        }
      ],
      "stateMutability": "view",
      "type": "function"
    },
    {
      "inputs": [
        {
          "internalType": "string",
          "name": "_electionName",
          "type": "string"
        },
        {
          "internalType": "address[]",
          "name": "_newCandidates",
          "type": "address[]"
        }
      ],
      "name": "addCandidate",
      "outputs": [],
      "stateMutability": "nonpayable",
      "type": "function"
    },
    {
      "inputs": [
        {
          "internalType": "bytes32",
          "name": "",
          "type": "bytes32"
        }
      ],
      "name": "candidateCount",
      "outputs": [
        {
          "internalType": "uint8",
          "name": "",
          "type": "uint8"
        }
      ],
      "stateMutability": "view",
      "type": "function"
    },
    {
      "inputs": [
        {
          "internalType": "bytes32",
          "name": "",
          "type": "bytes32"
        },
        {
          "internalType": "uint8",
          "name": "",
          "type": "uint8"
        }
      ],
      "name": "elections",
      "outputs": [
        {
          "internalType": "address",
          "name": "",
          "type": "address"
        }
      ],
      "stateMutability": "view",
      "type": "function"
    },
    {
      "inputs": [
        {
          "internalType": "string",
          "name": "_electionName",
          "type": "string"
        }
      ],
      "name": "getCandidates",
      "outputs": [
        {
          "internalType": "address[]",
          "name": "",
          "type": "address[]"
        }
      ],
      "stateMutability": "view",
      "type": "function"
    },
    {
      "inputs": [
        {
          "internalType": "bytes32",
          "name": "role",
          "type": "bytes32"
        }
      ],
      "name": "getRoleAdmin",
      "outputs": [
        {
          "internalType": "bytes32",
          "name": "",
          "type": "bytes32"
        }
      ],
      "stateMutability": "view",
      "type": "function"
    },
    {
      "inputs": [
        {
          "internalType": "bytes32",
          "name": "role",
          "type": "bytes32"
        },
        {
          "internalType": "address",
          "name": "account",
          "type": "address"
        }
      ],
      "name": "grantRole",
      "outputs": [],
      "stateMutability": "nonpayable",
      "type": "function"
    },
    {
      "inputs": [
        {
          "internalType": "bytes32",
          "name": "role",
          "type": "bytes32"
        },
        {
          "internalType": "address",
          "name": "account",
          "type": "address"
        }
      ],
      "name": "hasRole",
      "outputs": [
        {
          "internalType": "bool",
          "name": "",
          "type": "bool"
        }
      ],
      "stateMutability": "view",
      "type": "function"
    },
    {
      "inputs": [
        {
          "internalType": "bytes32",
          "name": "role",
          "type": "bytes32"
        },
        {
          "internalType": "address",
          "name": "callerConfirmation",
          "type": "address"
        }
      ],
      "name": "renounceRole",
      "outputs": [],
      "stateMutability": "nonpayable",
      "type": "function"
    },
    {
      "inputs": [
        {
          "internalType": "bytes32",
          "name": "role",
          "type": "bytes32"
        },
        {
          "internalType": "address",
          "name": "account",
          "type": "address"
        }
      ],
      "name": "revokeRole",
      "outputs": [],
      "stateMutability": "nonpayable",
      "type": "function"
    },
    {
      "inputs": [
        {
          "internalType": "string",
          "name": "_electionName",
          "type": "string"
        },
        {
          "internalType": "uint8",
          "name": "_candidateCount",
          "type": "uint8"
        }
      ],
      "name": "setVoting",
      "outputs": [],
      "stateMutability": "nonpayable",
      "type": "function"
    },
    {
      "inputs": [
        {
          "internalType": "bytes4",
          "name": "interfaceId",
          "type": "bytes4"
        }
      ],
      "name": "supportsInterface",
      "outputs": [
        {
          "internalType": "bool",
          "name": "",
          "type": "bool"
        }
      ],
      "stateMutability": "view",
      "type": "function"
    }
  ],
  "bytecode": "0x608060405234801561001057600080fd5b506100246000801b3361002a60201b60201c565b50610199565b600061003c838361012760201b60201c565b61011c57600160008085815260200190815260200160002060000160008473ffffffffffffffffffffffffffffffffffffffff1673ffffffffffffffffffffffffffffffffffffffff16815260200190815260200160002060006101000a81548160ff0219169083151502179055506100b961019160201b60201c565b73ffffffffffffffffffffffffffffffffffffffff168273ffffffffffffffffffffffffffffffffffffffff16847f2f8788117e7eff1d82e926ec794901d17c78024a50270940304540a733656f0d60405160405180910390a460019050610121565b600090505b92915050565b600080600084815260200190815260200160002060000160008373ffffffffffffffffffffffffffffffffffffffff1673ffffffffffffffffffffffffffffffffffffffff16815260200190815260200160002060009054906101000a900460ff16905092915050565b600033905090565b6112cf806101a86000396000f3fe608060405234801561001057600080fd5b50600436106100b45760003560e01c806366a7b56f1161007157806366a7b56f146101b15780637352a458146101e157806391d14854146101fd578063a217fddf1461022d578063b8e0b6b21461024b578063d547741f14610267576100b4565b806301ffc9a7146100b957806306c07eca146100e9578063248a9ca3146101195780632f2ff15d1461014957806336568abe146101655780634553476314610181575b600080fd5b6100d360048036038101906100ce9190610aba565b610283565b6040516100e09190610b02565b60405180910390f35b61010360048036038101906100fe9190610b8c565b6102fd565b6040516101109190610c0d565b60405180910390f35b610133600480360381019061012e9190610c28565b61033f565b6040516101409190610c64565b60405180910390f35b610163600480360381019061015e9190610cab565b61035e565b005b61017f600480360381019061017a9190610cab565b610380565b005b61019b60048036038101906101969190610e31565b6103fb565b6040516101a89190610f38565b60405180910390f35b6101cb60048036038101906101c69190610c28565b61055f565b6040516101d89190610f69565b60405180910390f35b6101fb60048036038101906101f69190610f84565b61057f565b005b61021760048036038101906102129190610cab565b6105c6565b6040516102249190610b02565b60405180910390f35b610235610630565b6040516102429190610c64565b60405180910390f35b610265600480360381019061026091906110a8565b610637565b005b610281600480360381019061027c9190610cab565b610772565b005b60007f7965db0b000000000000000000000000000000000000000000000000000000007bffffffffffffffffffffffffffffffffffffffffffffffffffffffff1916827bffffffffffffffffffffffffffffffffffffffffffffffffffffffff191614806102f657506102f582610794565b5b9050919050565b60016020528160005260406000206020528060005260406000206000915091509054906101000a900473ffffffffffffffffffffffffffffffffffffffff1681565b6000806000838152602001908152602001600020600101549050919050565b6103678261033f565b610370816107fe565b61037a8383610812565b50505050565b610388610903565b73ffffffffffffffffffffffffffffffffffffffff168173ffffffffffffffffffffffffffffffffffffffff16146103ec576040517f6697b23200000000000000000000000000000000000000000000000000000000815260040160405180910390fd5b6103f6828261090b565b505050565b60606000826104099061115d565b905060006002600083815260200190815260200160002060009054906101000a900460ff1660ff1667ffffffffffffffff81111561044a57610449610d06565b5b6040519080825280602002602001820160405280156104785781602001602082028036833780820191505090505b50905060005b6002600084815260200190815260200160002060009054906101000a900460ff1660ff168160ff161015610554576001600084815260200190815260200160002060008260ff1660ff16815260200190815260200160002060009054906101000a900473ffffffffffffffffffffffffffffffffffffffff16828260ff168151811061050d5761050c6111c4565b5b602002602001019073ffffffffffffffffffffffffffffffffffffffff16908173ffffffffffffffffffffffffffffffffffffffff1681525050808060010191505061047e565b508092505050919050565b60026020528060005260406000206000915054906101000a900460ff1681565b6000801b61058c816107fe565b81600260008561059b9061115d565b815260200190815260200160002060006101000a81548160ff021916908360ff160217905550505050565b600080600084815260200190815260200160002060000160008373ffffffffffffffffffffffffffffffffffffffff1673ffffffffffffffffffffffffffffffffffffffff16815260200190815260200160002060009054906101000a900460ff16905092915050565b6000801b81565b6000801b610644816107fe565b600060026000856106549061115d565b815260200190815260200160002060009054906101000a900460ff16905082518160ff16146106b8576040517f08c379a00000000000000000000000000000000000000000000000000000000081526004016106af90611250565b60405180910390fd5b60005b8160ff168160ff16101561076b576000848260ff16815181106106e1576106e06111c4565b5b602002602001015190508060016000886106fa9061115d565b815260200190815260200160002060008460ff1660ff16815260200190815260200160002060006101000a81548173ffffffffffffffffffffffffffffffffffffffff021916908373ffffffffffffffffffffffffffffffffffffffff1602179055505080806001019150506106bb565b5050505050565b61077b8261033f565b610784816107fe565b61078e838361090b565b50505050565b60007f01ffc9a7000000000000000000000000000000000000000000000000000000007bffffffffffffffffffffffffffffffffffffffffffffffffffffffff1916827bffffffffffffffffffffffffffffffffffffffffffffffffffffffff1916149050919050565b61080f8161080a610903565b6109fd565b50565b600061081e83836105c6565b6108f857600160008085815260200190815260200160002060000160008473ffffffffffffffffffffffffffffffffffffffff1673ffffffffffffffffffffffffffffffffffffffff16815260200190815260200160002060006101000a81548160ff021916908315150217905550610895610903565b73ffffffffffffffffffffffffffffffffffffffff168273ffffffffffffffffffffffffffffffffffffffff16847f2f8788117e7eff1d82e926ec794901d17c78024a50270940304540a733656f0d60405160405180910390a4600190506108fd565b600090505b92915050565b600033905090565b600061091783836105c6565b156109f257600080600085815260200190815260200160002060000160008473ffffffffffffffffffffffffffffffffffffffff1673ffffffffffffffffffffffffffffffffffffffff16815260200190815260200160002060006101000a81548160ff02191690831515021790555061098f610903565b73ffffffffffffffffffffffffffffffffffffffff168273ffffffffffffffffffffffffffffffffffffffff16847ff6391f5c32d9c69d2a47ea670b442974b53935d1edc7fd64eb21e047a839171b60405160405180910390a4600190506109f7565b600090505b92915050565b610a0782826105c6565b610a4a5780826040517fe2517d3f000000000000000000000000000000000000000000000000000000008152600401610a41929190611270565b60405180910390fd5b5050565b6000604051905090565b600080fd5b600080fd5b60007fffffffff0000000000000000000000000000000000000000000000000000000082169050919050565b610a9781610a62565b8114610aa257600080fd5b50565b600081359050610ab481610a8e565b92915050565b600060208284031215610ad057610acf610a58565b5b6000610ade84828501610aa5565b91505092915050565b60008115159050919050565b610afc81610ae7565b82525050565b6000602082019050610b176000830184610af3565b92915050565b6000819050919050565b610b3081610b1d565b8114610b3b57600080fd5b50565b600081359050610b4d81610b27565b92915050565b600060ff82169050919050565b610b6981610b53565b8114610b7457600080fd5b50565b600081359050610b8681610b60565b92915050565b60008060408385031215610ba357610ba2610a58565b5b6000610bb185828601610b3e565b9250506020610bc285828601610b77565b9150509250929050565b600073ffffffffffffffffffffffffffffffffffffffff82169050919050565b6000610bf782610bcc565b9050919050565b610c0781610bec565b82525050565b6000602082019050610c226000830184610bfe565b92915050565b600060208284031215610c3e57610c3d610a58565b5b6000610c4c84828501610b3e565b91505092915050565b610c5e81610b1d565b82525050565b6000602082019050610c796000830184610c55565b92915050565b610c8881610bec565b8114610c9357600080fd5b50565b600081359050610ca581610c7f565b92915050565b60008060408385031215610cc257610cc1610a58565b5b6000610cd085828601610b3e565b9250506020610ce185828601610c96565b9150509250929050565b600080fd5b600080fd5b6000601f19601f8301169050919050565b7f4e487b7100000000000000000000000000000000000000000000000000000000600052604160045260246000fd5b610d3e82610cf5565b810181811067ffffffffffffffff82111715610d5d57610d5c610d06565b5b80604052505050565b6000610d70610a4e565b9050610d7c8282610d35565b919050565b600067ffffffffffffffff821115610d9c57610d9b610d06565b5b610da582610cf5565b9050602081019050919050565b82818337600083830152505050565b6000610dd4610dcf84610d81565b610d66565b905082815260208101848484011115610df057610def610cf0565b5b610dfb848285610db2565b509392505050565b600082601f830112610e1857610e17610ceb565b5b8135610e28848260208601610dc1565b91505092915050565b600060208284031215610e4757610e46610a58565b5b600082013567ffffffffffffffff811115610e6557610e64610a5d565b5b610e7184828501610e03565b91505092915050565b600081519050919050565b600082825260208201905092915050565b6000819050602082019050919050565b610eaf81610bec565b82525050565b6000610ec18383610ea6565b60208301905092915050565b6000602082019050919050565b6000610ee582610e7a565b610eef8185610e85565b9350610efa83610e96565b8060005b83811015610f2b578151610f128882610eb5565b9750610f1d83610ecd565b925050600181019050610efe565b5085935050505092915050565b60006020820190508181036000830152610f528184610eda565b905092915050565b610f6381610b53565b82525050565b6000602082019050610f7e6000830184610f5a565b92915050565b60008060408385031215610f9b57610f9a610a58565b5b600083013567ffffffffffffffff811115610fb957610fb8610a5d565b5b610fc585828601610e03565b9250506020610fd685828601610b77565b9150509250929050565b600067ffffffffffffffff821115610ffb57610ffa610d06565b5b602082029050602081019050919050565b600080fd5b600061102461101f84610fe0565b610d66565b905080838252602082019050602084028301858111156110475761104661100c565b5b835b81811015611070578061105c8882610c96565b845260208401935050602081019050611049565b5050509392505050565b600082601f83011261108f5761108e610ceb565b5b813561109f848260208601611011565b91505092915050565b600080604083850312156110bf576110be610a58565b5b600083013567ffffffffffffffff8111156110dd576110dc610a5d565b5b6110e985828601610e03565b925050602083013567ffffffffffffffff81111561110a57611109610a5d565b5b6111168582860161107a565b9150509250929050565b600081519050919050565b6000819050602082019050919050565b60006111478251610b1d565b80915050919050565b600082821b905092915050565b600061116882611120565b826111728461112b565b905061117d8161113b565b925060208210156111bd576111b87fffffffffffffffffffffffffffffffffffffffffffffffffffffffffffffffff83602003600802611150565b831692505b5050919050565b7f4e487b7100000000000000000000000000000000000000000000000000000000600052603260045260246000fd5b600082825260208201905092915050565b7f43616e64696461746520636f756e7420646f6573206e6f74206d617463680000600082015250565b600061123a601e836111f3565b915061124582611204565b602082019050919050565b600060208201905081810360008301526112698161122d565b9050919050565b60006040820190506112856000830185610bfe565b6112926020830184610c55565b939250505056fea264697066735822122024df3a7a33aaa5a829d3650c1087fe251d2d94752cbd282545215d88cdd864c364736f6c63430008170033",
  "linkReferences": {},
  "deployedLinkReferences": {}
}