{"contracts/Aday.sol":{"Aday":{"abi":[{"inputs":[{"internalType":"address","name":"_tokenAddress","type":"address"},{"internalType":"string","name":"_nameAndSurname","type":"string"},{"internalType":"uint8","name":"_age","type":"uint8"},{"internalType":"string","name":"_gender","type":"string"},{"internalType":"string","name":"_electionName","type":"string"},{"internalType":"string","name":"_slogan","type":"string"}],"stateMutability":"nonpayable","type":"constructor"},{"anonymous":false,"inputs":[{"indexed":true,"internalType":"address","name":"owner","type":"address"},{"indexed":false,"internalType":"uint256","name":"amount","type":"uint256"}],"name":"TokensReturned","type":"event"},{"inputs":[],"name":"getInfo","outputs":[{"internalType":"string","name":"nameAndSurname","type":"string"},{"internalType":"uint8","name":"age","type":"uint8"},{"internalType":"string","name":"gender","type":"string"},{"internalType":"string","name":"electionName","type":"string"},{"internalType":"string","name":"slogan","type":"string"},{"internalType":"uint256","name":"votingTime","type":"uint256"},{"internalType":"uint16","name":"amountToVote","type":"uint16"}],"stateMutability":"view","type":"function"},{"inputs":[],"name":"owner","outputs":[{"internalType":"address","name":"","type":"address"}],"stateMutability":"view","type":"function"},{"inputs":[],"name":"returnTokens","outputs":[],"stateMutability":"nonpayable","type":"function"},{"inputs":[],"name":"token","outputs":[{"internalType":"contract ERC20","name":"","type":"address"}],"stateMutability":"view","type":"function"},{"inputs":[],"name":"voteSupply","outputs":[{"internalType":"uint256","name":"","type":"uint256"}],"stateMutability":"view","type":"function"}],"evm":{"bytecode":{"linkReferences":{},"object":"60806040526000600660006101000a81548160ff0219169083151502179055503480156200002c57600080fd5b5060405162001753380380620017538339818101604052810190620000529190620005d6565b600073ffffffffffffffffffffffffffffffffffffffff168673ffffffffffffffffffffffffffffffffffffffff1603620000c4576040517f08c379a0000000000000000000000000000000000000000000000000000000008152600401620000bb906200074f565b60405180910390fd5b856000806101000a81548173ffffffffffffffffffffffffffffffffffffffff021916908373ffffffffffffffffffffffffffffffffffffffff16021790555033600160006101000a81548173ffffffffffffffffffffffffffffffffffffffff021916908373ffffffffffffffffffffffffffffffffffffffff1602179055506020855111156200018d576040517f08c379a00000000000000000000000000000000000000000000000000000000081526004016200018490620007c1565b60405180910390fd5b602082511115620001d5576040517f08c379a0000000000000000000000000000000000000000000000000000000008152600401620001cc9062000833565b60405180910390fd5b6020815111156200021d576040517f08c379a00000000000000000000000000000000000000000000000000000000081526004016200021490620008a5565b60405180910390fd5b6040518060e0016040528086620002349062000932565b6fffffffffffffffffffffffffffffffff191681526020018560ff168152602001846200026190620009e5565b77ffffffffffffffffffffffffffffffffffffffffffffffff19168152602001836200028d9062000a76565b8152602001600061ffff1681526020014263ffffffff16815260200182620002b59062000a76565b815250600260008201518160000160006101000a8154816fffffffffffffffffffffffffffffffff021916908360801c021790555060208201518160000160106101000a81548160ff021916908360ff16021790555060408201518160000160116101000a81548167ffffffffffffffff021916908360c01c02179055506060820151816001015560808201518160020160006101000a81548161ffff021916908361ffff16021790555060a08201518160020160026101000a81548163ffffffff021916908363ffffffff16021790555060c0820151816003015590505050505050505062000ae6565b6000604051905090565b600080fd5b600080fd5b600073ffffffffffffffffffffffffffffffffffffffff82169050919050565b6000620003e182620003b4565b9050919050565b620003f381620003d4565b8114620003ff57600080fd5b50565b6000815190506200041381620003e8565b92915050565b600080fd5b600080fd5b6000601f19601f8301169050919050565b7f4e487b7100000000000000000000000000000000000000000000000000000000600052604160045260246000fd5b6200046e8262000423565b810181811067ffffffffffffffff8211171562000490576200048f62000434565b5b80604052505050565b6000620004a5620003a0565b9050620004b3828262000463565b919050565b600067ffffffffffffffff821115620004d657620004d562000434565b5b620004e18262000423565b9050602081019050919050565b60005b838110156200050e578082015181840152602081019050620004f1565b60008484015250505050565b6000620005316200052b84620004b8565b62000499565b90508281526020810184848401111562000550576200054f6200041e565b5b6200055d848285620004ee565b509392505050565b600082601f8301126200057d576200057c62000419565b5b81516200058f8482602086016200051a565b91505092915050565b600060ff82169050919050565b620005b08162000598565b8114620005bc57600080fd5b50565b600081519050620005d081620005a5565b92915050565b60008060008060008060c08789031215620005f657620005f5620003aa565b5b60006200060689828a0162000402565b965050602087015167ffffffffffffffff8111156200062a5762000629620003af565b5b6200063889828a0162000565565b95505060406200064b89828a01620005bf565b945050606087015167ffffffffffffffff8111156200066f576200066e620003af565b5b6200067d89828a0162000565565b935050608087015167ffffffffffffffff811115620006a157620006a0620003af565b5b620006af89828a0162000565565b92505060a087015167ffffffffffffffff811115620006d357620006d2620003af565b5b620006e189828a0162000565565b9150509295509295509295565b600082825260208201905092915050565b7f496e76616c696420746f6b656e20616464726573730000000000000000000000600082015250565b600062000737601583620006ee565b91506200074482620006ff565b602082019050919050565b600060208201905081810360008301526200076a8162000728565b9050919050565b7f4e616d6520746f6f206c6f6e6700000000000000000000000000000000000000600082015250565b6000620007a9600d83620006ee565b9150620007b68262000771565b602082019050919050565b60006020820190508181036000830152620007dc816200079a565b9050919050565b7f47726f7570206e616d6520746f6f206c6f6e6700000000000000000000000000600082015250565b60006200081b601383620006ee565b91506200082882620007e3565b602082019050919050565b600060208201905081810360008301526200084e816200080c565b9050919050565b7f536c6f67616e20746f6f206c6f6e670000000000000000000000000000000000600082015250565b60006200088d600f83620006ee565b91506200089a8262000855565b602082019050919050565b60006020820190508181036000830152620008c0816200087e565b9050919050565b600081519050919050565b6000819050602082019050919050565b60007fffffffffffffffffffffffffffffffff0000000000000000000000000000000082169050919050565b60006200091c8251620008e2565b80915050919050565b600082821b905092915050565b60006200093f82620008c7565b826200094b84620008d2565b905062000958816200090e565b925060108210156200099b57620009967fffffffffffffffffffffffffffffffff000000000000000000000000000000008360100360080262000925565b831692505b5050919050565b60007fffffffffffffffff00000000000000000000000000000000000000000000000082169050919050565b6000620009dc8251620009a2565b80915050919050565b6000620009f282620008c7565b82620009fe84620008d2565b905062000a0b81620009ce565b9250600882101562000a4e5762000a497fffffffffffffffff0000000000000000000000000000000000000000000000008360080360080262000925565b831692505b5050919050565b6000819050919050565b600062000a6d825162000a55565b80915050919050565b600062000a8382620008c7565b8262000a8f84620008d2565b905062000a9c8162000a5f565b9250602082101562000adf5762000ada7fffffffffffffffffffffffffffffffffffffffffffffffffffffffffffffffff8360200360080262000925565b831692505b5050919050565b610c5d8062000af66000396000f3fe608060405234801561001057600080fd5b50600436106100575760003560e01c80634f99fecc1461005c5780635a9b0b891461007a5780638da5cb5b1461009e578063f9718fc8146100bc578063fc0c546a146100c6575b600080fd5b6100646100e4565b60405161007191906105e4565b60405180910390f35b610082610186565b60405161009597969594939291906106c8565b60405180910390f35b6100a661029b565b6040516100b39190610794565b60405180910390f35b6100c46102c1565b005b6100ce6105a7565b6040516100db919061080e565b60405180910390f35b60008060009054906101000a900473ffffffffffffffffffffffffffffffffffffffff1673ffffffffffffffffffffffffffffffffffffffff166370a08231306040518263ffffffff1660e01b81526004016101409190610794565b602060405180830381865afa15801561015d573d6000803e3d6000fd5b505050506040513d601f19601f82011682018060405250810190610181919061085a565b905090565b606060006060806060600080600260000160009054906101000a900460801b6040516020016101b591906108d4565b604051602081830303815290604052600260000160109054906101000a900460ff16600260000160119054906101000a900460c01b6040516020016101fa919061093c565b60405160208183030381529060405260026001015460405160200161021f9190610982565b6040516020818303038152906040526002600301546040516020016102449190610982565b6040516020818303038152906040526002800160029054906101000a900463ffffffff166002800160009054906101000a900461ffff168163ffffffff169150965096509650965096509650965090919293949596565b600160009054906101000a900473ffffffffffffffffffffffffffffffffffffffff1681565b600160009054906101000a900473ffffffffffffffffffffffffffffffffffffffff1673ffffffffffffffffffffffffffffffffffffffff163373ffffffffffffffffffffffffffffffffffffffff1614610351576040517f08c379a0000000000000000000000000000000000000000000000000000000008152600401610348906109e9565b60405180910390fd5b600660009054906101000a900460ff16156103a1576040517f08c379a000000000000000000000000000000000000000000000000000000000815260040161039890610a55565b60405180910390fd5b6001600660006101000a81548160ff02191690831515021790555061ffff80166103c96100e4565b111561040a576040517f08c379a000000000000000000000000000000000000000000000000000000000815260040161040190610ac1565b60405180910390fd5b60006104146100e4565b9050806002800160006101000a81548161ffff021916908361ffff16021790555060008054906101000a900473ffffffffffffffffffffffffffffffffffffffff1673ffffffffffffffffffffffffffffffffffffffff1663a9059cbb600160009054906101000a900473ffffffffffffffffffffffffffffffffffffffff16836040518363ffffffff1660e01b81526004016104b2929190610b12565b6020604051808303816000875af11580156104d1573d6000803e3d6000fd5b505050506040513d601f19601f820116820180604052508101906104f59190610b73565b610534576040517f08c379a000000000000000000000000000000000000000000000000000000000815260040161052b90610bec565b60405180910390fd5b600160009054906101000a900473ffffffffffffffffffffffffffffffffffffffff1673ffffffffffffffffffffffffffffffffffffffff167f3ea35e37925c43a4138631a7bbdbd1349afe6857f7edfa87e0d7b6e97db220308260405161059c9190610c0c565b60405180910390a250565b60008054906101000a900473ffffffffffffffffffffffffffffffffffffffff1681565b6000819050919050565b6105de816105cb565b82525050565b60006020820190506105f960008301846105d5565b92915050565b600081519050919050565b600082825260208201905092915050565b60005b8381101561063957808201518184015260208101905061061e565b60008484015250505050565b6000601f19601f8301169050919050565b6000610661826105ff565b61066b818561060a565b935061067b81856020860161061b565b61068481610645565b840191505092915050565b600060ff82169050919050565b6106a58161068f565b82525050565b600061ffff82169050919050565b6106c2816106ab565b82525050565b600060e08201905081810360008301526106e2818a610656565b90506106f1602083018961069c565b81810360408301526107038188610656565b905081810360608301526107178187610656565b9050818103608083015261072b8186610656565b905061073a60a08301856105d5565b61074760c08301846106b9565b98975050505050505050565b600073ffffffffffffffffffffffffffffffffffffffff82169050919050565b600061077e82610753565b9050919050565b61078e81610773565b82525050565b60006020820190506107a96000830184610785565b92915050565b6000819050919050565b60006107d46107cf6107ca84610753565b6107af565b610753565b9050919050565b60006107e6826107b9565b9050919050565b60006107f8826107db565b9050919050565b610808816107ed565b82525050565b600060208201905061082360008301846107ff565b92915050565b600080fd5b610837816105cb565b811461084257600080fd5b50565b6000815190506108548161082e565b92915050565b6000602082840312156108705761086f610829565b5b600061087e84828501610845565b91505092915050565b60007fffffffffffffffffffffffffffffffff0000000000000000000000000000000082169050919050565b6000819050919050565b6108ce6108c982610887565b6108b3565b82525050565b60006108e082846108bd565b60108201915081905092915050565b60007fffffffffffffffff00000000000000000000000000000000000000000000000082169050919050565b6000819050919050565b610936610931826108ef565b61091b565b82525050565b60006109488284610925565b60088201915081905092915050565b6000819050919050565b6000819050919050565b61097c61097782610957565b610961565b82525050565b600061098e828461096b565b60208201915081905092915050565b7f4f6e6c79206f776e65722063616e2072657475726e20746f6b656e7300000000600082015250565b60006109d3601c8361060a565b91506109de8261099d565b602082019050919050565b60006020820190508181036000830152610a02816109c6565b9050919050565b7f546f6b656e7320616c72656164792072657475726e6564000000000000000000600082015250565b6000610a3f60178361060a565b9150610a4a82610a09565b602082019050919050565b60006020820190508181036000830152610a6e81610a32565b9050919050565b7f56616c756520657863656564732075696e743136206c696d6974000000000000600082015250565b6000610aab601a8361060a565b9150610ab682610a75565b602082019050919050565b60006020820190508181036000830152610ada81610a9e565b9050919050565b6000610afc610af7610af2846106ab565b6107af565b6105cb565b9050919050565b610b0c81610ae1565b82525050565b6000604082019050610b276000830185610785565b610b346020830184610b03565b9392505050565b60008115159050919050565b610b5081610b3b565b8114610b5b57600080fd5b50565b600081519050610b6d81610b47565b92915050565b600060208284031215610b8957610b88610829565b5b6000610b9784828501610b5e565b91505092915050565b7f5472616e7366657220746f206f776e6572206661696c65640000000000000000600082015250565b6000610bd660188361060a565b9150610be182610ba0565b602082019050919050565b60006020820190508181036000830152610c0581610bc9565b9050919050565b6000602082019050610c216000830184610b03565b9291505056fea264697066735822122012702c3525d1c1cdb5e9442459768c9f8b38e1f41ed1714b0c1516327fb41c4a64736f6c63430008170033","opcodes":"PUSH1 0x80 PUSH1 0x40 MSTORE PUSH1 0x0 PUSH1 0x6 PUSH1 0x0 PUSH2 0x100 EXP DUP2 SLOAD DUP2 PUSH1 0xFF MUL NOT AND SWAP1 DUP4 ISZERO ISZERO MUL OR SWAP1 SSTORE POP CALLVALUE DUP1 ISZERO PUSH3 0x2C JUMPI PUSH1 0x0 DUP1 REVERT JUMPDEST POP PUSH1 0x40 MLOAD PUSH3 0x1753 CODESIZE SUB DUP1 PUSH3 0x1753 DUP4 CODECOPY DUP2 DUP2 ADD PUSH1 0x40 MSTORE DUP2 ADD SWAP1 PUSH3 0x52 SWAP2 SWAP1 PUSH3 0x5D6 JUMP JUMPDEST PUSH1 0x0 PUSH20 0xFFFFFFFFFFFFFFFFFFFFFFFFFFFFFFFFFFFFFFFF AND DUP7 PUSH20 0xFFFFFFFFFFFFFFFFFFFFFFFFFFFFFFFFFFFFFFFF AND SUB PUSH3 0xC4 JUMPI PUSH1 0x40 MLOAD PUSH32 0x8C379A000000000000000000000000000000000000000000000000000000000 DUP2 MSTORE PUSH1 0x4 ADD PUSH3 0xBB SWAP1 PUSH3 0x74F JUMP JUMPDEST PUSH1 0x40 MLOAD DUP1 SWAP2 SUB SWAP1 REVERT JUMPDEST DUP6 PUSH1 0x0 DUP1 PUSH2 0x100 EXP DUP2 SLOAD DUP2 PUSH20 0xFFFFFFFFFFFFFFFFFFFFFFFFFFFFFFFFFFFFFFFF MUL NOT AND SWAP1 DUP4 PUSH20 0xFFFFFFFFFFFFFFFFFFFFFFFFFFFFFFFFFFFFFFFF AND MUL OR SWAP1 SSTORE POP CALLER PUSH1 0x1 PUSH1 0x0 PUSH2 0x100 EXP DUP2 SLOAD DUP2 PUSH20 0xFFFFFFFFFFFFFFFFFFFFFFFFFFFFFFFFFFFFFFFF MUL NOT AND SWAP1 DUP4 PUSH20 0xFFFFFFFFFFFFFFFFFFFFFFFFFFFFFFFFFFFFFFFF AND MUL OR SWAP1 SSTORE POP PUSH1 0x20 DUP6 MLOAD GT ISZERO PUSH3 0x18D JUMPI PUSH1 0x40 MLOAD PUSH32 0x8C379A000000000000000000000000000000000000000000000000000000000 DUP2 MSTORE PUSH1 0x4 ADD PUSH3 0x184 SWAP1 PUSH3 0x7C1 JUMP JUMPDEST PUSH1 0x40 MLOAD DUP1 SWAP2 SUB SWAP1 REVERT JUMPDEST PUSH1 0x20 DUP3 MLOAD GT ISZERO PUSH3 0x1D5 JUMPI PUSH1 0x40 MLOAD PUSH32 0x8C379A000000000000000000000000000000000000000000000000000000000 DUP2 MSTORE PUSH1 0x4 ADD PUSH3 0x1CC SWAP1 PUSH3 0x833 JUMP JUMPDEST PUSH1 0x40 MLOAD DUP1 SWAP2 SUB SWAP1 REVERT JUMPDEST PUSH1 0x20 DUP2 MLOAD GT ISZERO PUSH3 0x21D JUMPI PUSH1 0x40 MLOAD PUSH32 0x8C379A000000000000000000000000000000000000000000000000000000000 DUP2 MSTORE PUSH1 0x4 ADD PUSH3 0x214 SWAP1 PUSH3 0x8A5 JUMP JUMPDEST PUSH1 0x40 MLOAD DUP1 SWAP2 SUB SWAP1 REVERT JUMPDEST PUSH1 0x40 MLOAD DUP1 PUSH1 0xE0 ADD PUSH1 0x40 MSTORE DUP1 DUP7 PUSH3 0x234 SWAP1 PUSH3 0x932 JUMP JUMPDEST PUSH16 0xFFFFFFFFFFFFFFFFFFFFFFFFFFFFFFFF NOT AND DUP2 MSTORE PUSH1 0x20 ADD DUP6 PUSH1 0xFF AND DUP2 MSTORE PUSH1 0x20 ADD DUP5 PUSH3 0x261 SWAP1 PUSH3 0x9E5 JUMP JUMPDEST PUSH24 0xFFFFFFFFFFFFFFFFFFFFFFFFFFFFFFFFFFFFFFFFFFFFFFFF NOT AND DUP2 MSTORE PUSH1 0x20 ADD DUP4 PUSH3 0x28D SWAP1 PUSH3 0xA76 JUMP JUMPDEST DUP2 MSTORE PUSH1 0x20 ADD PUSH1 0x0 PUSH2 0xFFFF AND DUP2 MSTORE PUSH1 0x20 ADD TIMESTAMP PUSH4 0xFFFFFFFF AND DUP2 MSTORE PUSH1 0x20 ADD DUP3 PUSH3 0x2B5 SWAP1 PUSH3 0xA76 JUMP JUMPDEST DUP2 MSTORE POP PUSH1 0x2 PUSH1 0x0 DUP3 ADD MLOAD DUP2 PUSH1 0x0 ADD PUSH1 0x0 PUSH2 0x100 EXP DUP2 SLOAD DUP2 PUSH16 0xFFFFFFFFFFFFFFFFFFFFFFFFFFFFFFFF MUL NOT AND SWAP1 DUP4 PUSH1 0x80 SHR MUL OR SWAP1 SSTORE POP PUSH1 0x20 DUP3 ADD MLOAD DUP2 PUSH1 0x0 ADD PUSH1 0x10 PUSH2 0x100 EXP DUP2 SLOAD DUP2 PUSH1 0xFF MUL NOT AND SWAP1 DUP4 PUSH1 0xFF AND MUL OR SWAP1 SSTORE POP PUSH1 0x40 DUP3 ADD MLOAD DUP2 PUSH1 0x0 ADD PUSH1 0x11 PUSH2 0x100 EXP DUP2 SLOAD DUP2 PUSH8 0xFFFFFFFFFFFFFFFF MUL NOT AND SWAP1 DUP4 PUSH1 0xC0 SHR MUL OR SWAP1 SSTORE POP PUSH1 0x60 DUP3 ADD MLOAD DUP2 PUSH1 0x1 ADD SSTORE PUSH1 0x80 DUP3 ADD MLOAD DUP2 PUSH1 0x2 ADD PUSH1 0x0 PUSH2 0x100 EXP DUP2 SLOAD DUP2 PUSH2 0xFFFF MUL NOT AND SWAP1 DUP4 PUSH2 0xFFFF AND MUL OR SWAP1 SSTORE POP PUSH1 0xA0 DUP3 ADD MLOAD DUP2 PUSH1 0x2 ADD PUSH1 0x2 PUSH2 0x100 EXP DUP2 SLOAD DUP2 PUSH4 0xFFFFFFFF MUL NOT AND SWAP1 DUP4 PUSH4 0xFFFFFFFF AND MUL OR SWAP1 SSTORE POP PUSH1 0xC0 DUP3 ADD MLOAD DUP2 PUSH1 0x3 ADD SSTORE SWAP1 POP POP POP POP POP POP POP POP PUSH3 0xAE6 JUMP JUMPDEST PUSH1 0x0 PUSH1 0x40 MLOAD SWAP1 POP SWAP1 JUMP JUMPDEST PUSH1 0x0 DUP1 REVERT JUMPDEST PUSH1 0x0 DUP1 REVERT JUMPDEST PUSH1 0x0 PUSH20 0xFFFFFFFFFFFFFFFFFFFFFFFFFFFFFFFFFFFFFFFF DUP3 AND SWAP1 POP SWAP2 SWAP1 POP JUMP JUMPDEST PUSH1 0x0 PUSH3 0x3E1 DUP3 PUSH3 0x3B4 JUMP JUMPDEST SWAP1 POP SWAP2 SWAP1 POP JUMP JUMPDEST PUSH3 0x3F3 DUP2 PUSH3 0x3D4 JUMP JUMPDEST DUP2 EQ PUSH3 0x3FF JUMPI PUSH1 0x0 DUP1 REVERT JUMPDEST POP JUMP JUMPDEST PUSH1 0x0 DUP2 MLOAD SWAP1 POP PUSH3 0x413 DUP2 PUSH3 0x3E8 JUMP JUMPDEST SWAP3 SWAP2 POP POP JUMP JUMPDEST PUSH1 0x0 DUP1 REVERT JUMPDEST PUSH1 0x0 DUP1 REVERT JUMPDEST PUSH1 0x0 PUSH1 0x1F NOT PUSH1 0x1F DUP4 ADD AND SWAP1 POP SWAP2 SWAP1 POP JUMP JUMPDEST PUSH32 0x4E487B7100000000000000000000000000000000000000000000000000000000 PUSH1 0x0 MSTORE PUSH1 0x41 PUSH1 0x4 MSTORE PUSH1 0x24 PUSH1 0x0 REVERT JUMPDEST PUSH3 0x46E DUP3 PUSH3 0x423 JUMP JUMPDEST DUP2 ADD DUP2 DUP2 LT PUSH8 0xFFFFFFFFFFFFFFFF DUP3 GT OR ISZERO PUSH3 0x490 JUMPI PUSH3 0x48F PUSH3 0x434 JUMP JUMPDEST JUMPDEST DUP1 PUSH1 0x40 MSTORE POP POP POP JUMP JUMPDEST PUSH1 0x0 PUSH3 0x4A5 PUSH3 0x3A0 JUMP JUMPDEST SWAP1 POP PUSH3 0x4B3 DUP3 DUP3 PUSH3 0x463 JUMP JUMPDEST SWAP2 SWAP1 POP JUMP JUMPDEST PUSH1 0x0 PUSH8 0xFFFFFFFFFFFFFFFF DUP3 GT ISZERO PUSH3 0x4D6 JUMPI PUSH3 0x4D5 PUSH3 0x434 JUMP JUMPDEST JUMPDEST PUSH3 0x4E1 DUP3 PUSH3 0x423 JUMP JUMPDEST SWAP1 POP PUSH1 0x20 DUP2 ADD SWAP1 POP SWAP2 SWAP1 POP JUMP JUMPDEST PUSH1 0x0 JUMPDEST DUP4 DUP2 LT ISZERO PUSH3 0x50E JUMPI DUP1 DUP3 ADD MLOAD DUP2 DUP5 ADD MSTORE PUSH1 0x20 DUP2 ADD SWAP1 POP PUSH3 0x4F1 JUMP JUMPDEST PUSH1 0x0 DUP5 DUP5 ADD MSTORE POP POP POP POP JUMP JUMPDEST PUSH1 0x0 PUSH3 0x531 PUSH3 0x52B DUP5 PUSH3 0x4B8 JUMP JUMPDEST PUSH3 0x499 JUMP JUMPDEST SWAP1 POP DUP3 DUP2 MSTORE PUSH1 0x20 DUP2 ADD DUP5 DUP5 DUP5 ADD GT ISZERO PUSH3 0x550 JUMPI PUSH3 0x54F PUSH3 0x41E JUMP JUMPDEST JUMPDEST PUSH3 0x55D DUP5 DUP3 DUP6 PUSH3 0x4EE JUMP JUMPDEST POP SWAP4 SWAP3 POP POP POP JUMP JUMPDEST PUSH1 0x0 DUP3 PUSH1 0x1F DUP4 ADD SLT PUSH3 0x57D JUMPI PUSH3 0x57C PUSH3 0x419 JUMP JUMPDEST JUMPDEST DUP2 MLOAD PUSH3 0x58F DUP5 DUP3 PUSH1 0x20 DUP7 ADD PUSH3 0x51A JUMP JUMPDEST SWAP2 POP POP SWAP3 SWAP2 POP POP JUMP JUMPDEST PUSH1 0x0 PUSH1 0xFF DUP3 AND SWAP1 POP SWAP2 SWAP1 POP JUMP JUMPDEST PUSH3 0x5B0 DUP2 PUSH3 0x598 JUMP JUMPDEST DUP2 EQ PUSH3 0x5BC JUMPI PUSH1 0x0 DUP1 REVERT JUMPDEST POP JUMP JUMPDEST PUSH1 0x0 DUP2 MLOAD SWAP1 POP PUSH3 0x5D0 DUP2 PUSH3 0x5A5 JUMP JUMPDEST SWAP3 SWAP2 POP POP JUMP JUMPDEST PUSH1 0x0 DUP1 PUSH1 0x0 DUP1 PUSH1 0x0 DUP1 PUSH1 0xC0 DUP8 DUP10 SUB SLT ISZERO PUSH3 0x5F6 JUMPI PUSH3 0x5F5 PUSH3 0x3AA JUMP JUMPDEST JUMPDEST PUSH1 0x0 PUSH3 0x606 DUP10 DUP3 DUP11 ADD PUSH3 0x402 JUMP JUMPDEST SWAP7 POP POP PUSH1 0x20 DUP8 ADD MLOAD PUSH8 0xFFFFFFFFFFFFFFFF DUP2 GT ISZERO PUSH3 0x62A JUMPI PUSH3 0x629 PUSH3 0x3AF JUMP JUMPDEST JUMPDEST PUSH3 0x638 DUP10 DUP3 DUP11 ADD PUSH3 0x565 JUMP JUMPDEST SWAP6 POP POP PUSH1 0x40 PUSH3 0x64B DUP10 DUP3 DUP11 ADD PUSH3 0x5BF JUMP JUMPDEST SWAP5 POP POP PUSH1 0x60 DUP8 ADD MLOAD PUSH8 0xFFFFFFFFFFFFFFFF DUP2 GT ISZERO PUSH3 0x66F JUMPI PUSH3 0x66E PUSH3 0x3AF JUMP JUMPDEST JUMPDEST PUSH3 0x67D DUP10 DUP3 DUP11 ADD PUSH3 0x565 JUMP JUMPDEST SWAP4 POP POP PUSH1 0x80 DUP8 ADD MLOAD PUSH8 0xFFFFFFFFFFFFFFFF DUP2 GT ISZERO PUSH3 0x6A1 JUMPI PUSH3 0x6A0 PUSH3 0x3AF JUMP JUMPDEST JUMPDEST PUSH3 0x6AF DUP10 DUP3 DUP11 ADD PUSH3 0x565 JUMP JUMPDEST SWAP3 POP POP PUSH1 0xA0 DUP8 ADD MLOAD PUSH8 0xFFFFFFFFFFFFFFFF DUP2 GT ISZERO PUSH3 0x6D3 JUMPI PUSH3 0x6D2 PUSH3 0x3AF JUMP JUMPDEST JUMPDEST PUSH3 0x6E1 DUP10 DUP3 DUP11 ADD PUSH3 0x565 JUMP JUMPDEST SWAP2 POP POP SWAP3 SWAP6 POP SWAP3 SWAP6 POP SWAP3 SWAP6 JUMP JUMPDEST PUSH1 0x0 DUP3 DUP3 MSTORE PUSH1 0x20 DUP3 ADD SWAP1 POP SWAP3 SWAP2 POP POP JUMP JUMPDEST PUSH32 0x496E76616C696420746F6B656E20616464726573730000000000000000000000 PUSH1 0x0 DUP3 ADD MSTORE POP JUMP JUMPDEST PUSH1 0x0 PUSH3 0x737 PUSH1 0x15 DUP4 PUSH3 0x6EE JUMP JUMPDEST SWAP2 POP PUSH3 0x744 DUP3 PUSH3 0x6FF JUMP JUMPDEST PUSH1 0x20 DUP3 ADD SWAP1 POP SWAP2 SWAP1 POP JUMP JUMPDEST PUSH1 0x0 PUSH1 0x20 DUP3 ADD SWAP1 POP DUP2 DUP2 SUB PUSH1 0x0 DUP4 ADD MSTORE PUSH3 0x76A DUP2 PUSH3 0x728 JUMP JUMPDEST SWAP1 POP SWAP2 SWAP1 POP JUMP JUMPDEST PUSH32 0x4E616D6520746F6F206C6F6E6700000000000000000000000000000000000000 PUSH1 0x0 DUP3 ADD MSTORE POP JUMP JUMPDEST PUSH1 0x0 PUSH3 0x7A9 PUSH1 0xD DUP4 PUSH3 0x6EE JUMP JUMPDEST SWAP2 POP PUSH3 0x7B6 DUP3 PUSH3 0x771 JUMP JUMPDEST PUSH1 0x20 DUP3 ADD SWAP1 POP SWAP2 SWAP1 POP JUMP JUMPDEST PUSH1 0x0 PUSH1 0x20 DUP3 ADD SWAP1 POP DUP2 DUP2 SUB PUSH1 0x0 DUP4 ADD MSTORE PUSH3 0x7DC DUP2 PUSH3 0x79A JUMP JUMPDEST SWAP1 POP SWAP2 SWAP1 POP JUMP JUMPDEST PUSH32 0x47726F7570206E616D6520746F6F206C6F6E6700000000000000000000000000 PUSH1 0x0 DUP3 ADD MSTORE POP JUMP JUMPDEST PUSH1 0x0 PUSH3 0x81B PUSH1 0x13 DUP4 PUSH3 0x6EE JUMP JUMPDEST SWAP2 POP PUSH3 0x828 DUP3 PUSH3 0x7E3 JUMP JUMPDEST PUSH1 0x20 DUP3 ADD SWAP1 POP SWAP2 SWAP1 POP JUMP JUMPDEST PUSH1 0x0 PUSH1 0x20 DUP3 ADD SWAP1 POP DUP2 DUP2 SUB PUSH1 0x0 DUP4 ADD MSTORE PUSH3 0x84E DUP2 PUSH3 0x80C JUMP JUMPDEST SWAP1 POP SWAP2 SWAP1 POP JUMP JUMPDEST PUSH32 0x536C6F67616E20746F6F206C6F6E670000000000000000000000000000000000 PUSH1 0x0 DUP3 ADD MSTORE POP JUMP JUMPDEST PUSH1 0x0 PUSH3 0x88D PUSH1 0xF DUP4 PUSH3 0x6EE JUMP JUMPDEST SWAP2 POP PUSH3 0x89A DUP3 PUSH3 0x855 JUMP JUMPDEST PUSH1 0x20 DUP3 ADD SWAP1 POP SWAP2 SWAP1 POP JUMP JUMPDEST PUSH1 0x0 PUSH1 0x20 DUP3 ADD SWAP1 POP DUP2 DUP2 SUB PUSH1 0x0 DUP4 ADD MSTORE PUSH3 0x8C0 DUP2 PUSH3 0x87E JUMP JUMPDEST SWAP1 POP SWAP2 SWAP1 POP JUMP JUMPDEST PUSH1 0x0 DUP2 MLOAD SWAP1 POP SWAP2 SWAP1 POP JUMP JUMPDEST PUSH1 0x0 DUP2 SWAP1 POP PUSH1 0x20 DUP3 ADD SWAP1 POP SWAP2 SWAP1 POP JUMP JUMPDEST PUSH1 0x0 PUSH32 0xFFFFFFFFFFFFFFFFFFFFFFFFFFFFFFFF00000000000000000000000000000000 DUP3 AND SWAP1 POP SWAP2 SWAP1 POP JUMP JUMPDEST PUSH1 0x0 PUSH3 0x91C DUP3 MLOAD PUSH3 0x8E2 JUMP JUMPDEST DUP1 SWAP2 POP POP SWAP2 SWAP1 POP JUMP JUMPDEST PUSH1 0x0 DUP3 DUP3 SHL SWAP1 POP SWAP3 SWAP2 POP POP JUMP JUMPDEST PUSH1 0x0 PUSH3 0x93F DUP3 PUSH3 0x8C7 JUMP JUMPDEST DUP3 PUSH3 0x94B DUP5 PUSH3 0x8D2 JUMP JUMPDEST SWAP1 POP PUSH3 0x958 DUP2 PUSH3 0x90E JUMP JUMPDEST SWAP3 POP PUSH1 0x10 DUP3 LT ISZERO PUSH3 0x99B JUMPI PUSH3 0x996 PUSH32 0xFFFFFFFFFFFFFFFFFFFFFFFFFFFFFFFF00000000000000000000000000000000 DUP4 PUSH1 0x10 SUB PUSH1 0x8 MUL PUSH3 0x925 JUMP JUMPDEST DUP4 AND SWAP3 POP JUMPDEST POP POP SWAP2 SWAP1 POP JUMP JUMPDEST PUSH1 0x0 PUSH32 0xFFFFFFFFFFFFFFFF000000000000000000000000000000000000000000000000 DUP3 AND SWAP1 POP SWAP2 SWAP1 POP JUMP JUMPDEST PUSH1 0x0 PUSH3 0x9DC DUP3 MLOAD PUSH3 0x9A2 JUMP JUMPDEST DUP1 SWAP2 POP POP SWAP2 SWAP1 POP JUMP JUMPDEST PUSH1 0x0 PUSH3 0x9F2 DUP3 PUSH3 0x8C7 JUMP JUMPDEST DUP3 PUSH3 0x9FE DUP5 PUSH3 0x8D2 JUMP JUMPDEST SWAP1 POP PUSH3 0xA0B DUP2 PUSH3 0x9CE JUMP JUMPDEST SWAP3 POP PUSH1 0x8 DUP3 LT ISZERO PUSH3 0xA4E JUMPI PUSH3 0xA49 PUSH32 0xFFFFFFFFFFFFFFFF000000000000000000000000000000000000000000000000 DUP4 PUSH1 0x8 SUB PUSH1 0x8 MUL PUSH3 0x925 JUMP JUMPDEST DUP4 AND SWAP3 POP JUMPDEST POP POP SWAP2 SWAP1 POP JUMP JUMPDEST PUSH1 0x0 DUP2 SWAP1 POP SWAP2 SWAP1 POP JUMP JUMPDEST PUSH1 0x0 PUSH3 0xA6D DUP3 MLOAD PUSH3 0xA55 JUMP JUMPDEST DUP1 SWAP2 POP POP SWAP2 SWAP1 POP JUMP JUMPDEST PUSH1 0x0 PUSH3 0xA83 DUP3 PUSH3 0x8C7 JUMP JUMPDEST DUP3 PUSH3 0xA8F DUP5 PUSH3 0x8D2 JUMP JUMPDEST SWAP1 POP PUSH3 0xA9C DUP2 PUSH3 0xA5F JUMP JUMPDEST SWAP3 POP PUSH1 0x20 DUP3 LT ISZERO PUSH3 0xADF JUMPI PUSH3 0xADA PUSH32 0xFFFFFFFFFFFFFFFFFFFFFFFFFFFFFFFFFFFFFFFFFFFFFFFFFFFFFFFFFFFFFFFF DUP4 PUSH1 0x20 SUB PUSH1 0x8 MUL PUSH3 0x925 JUMP JUMPDEST DUP4 AND SWAP3 POP JUMPDEST POP POP SWAP2 SWAP1 POP JUMP JUMPDEST PUSH2 0xC5D DUP1 PUSH3 0xAF6 PUSH1 0x0 CODECOPY PUSH1 0x0 RETURN INVALID PUSH1 0x80 PUSH1 0x40 MSTORE CALLVALUE DUP1 ISZERO PUSH2 0x10 JUMPI PUSH1 0x0 DUP1 REVERT JUMPDEST POP PUSH1 0x4 CALLDATASIZE LT PUSH2 0x57 JUMPI PUSH1 0x0 CALLDATALOAD PUSH1 0xE0 SHR DUP1 PUSH4 0x4F99FECC EQ PUSH2 0x5C JUMPI DUP1 PUSH4 0x5A9B0B89 EQ PUSH2 0x7A JUMPI DUP1 PUSH4 0x8DA5CB5B EQ PUSH2 0x9E JUMPI DUP1 PUSH4 0xF9718FC8 EQ PUSH2 0xBC JUMPI DUP1 PUSH4 0xFC0C546A EQ PUSH2 0xC6 JUMPI JUMPDEST PUSH1 0x0 DUP1 REVERT JUMPDEST PUSH2 0x64 PUSH2 0xE4 JUMP JUMPDEST PUSH1 0x40 MLOAD PUSH2 0x71 SWAP2 SWAP1 PUSH2 0x5E4 JUMP JUMPDEST PUSH1 0x40 MLOAD DUP1 SWAP2 SUB SWAP1 RETURN JUMPDEST PUSH2 0x82 PUSH2 0x186 JUMP JUMPDEST PUSH1 0x40 MLOAD PUSH2 0x95 SWAP8 SWAP7 SWAP6 SWAP5 SWAP4 SWAP3 SWAP2 SWAP1 PUSH2 0x6C8 JUMP JUMPDEST PUSH1 0x40 MLOAD DUP1 SWAP2 SUB SWAP1 RETURN JUMPDEST PUSH2 0xA6 PUSH2 0x29B JUMP JUMPDEST PUSH1 0x40 MLOAD PUSH2 0xB3 SWAP2 SWAP1 PUSH2 0x794 JUMP JUMPDEST PUSH1 0x40 MLOAD DUP1 SWAP2 SUB SWAP1 RETURN JUMPDEST PUSH2 0xC4 PUSH2 0x2C1 JUMP JUMPDEST STOP JUMPDEST PUSH2 0xCE PUSH2 0x5A7 JUMP JUMPDEST PUSH1 0x40 MLOAD PUSH2 0xDB SWAP2 SWAP1 PUSH2 0x80E JUMP JUMPDEST PUSH1 0x40 MLOAD DUP1 SWAP2 SUB SWAP1 RETURN JUMPDEST PUSH1 0x0 DUP1 PUSH1 0x0 SWAP1 SLOAD SWAP1 PUSH2 0x100 EXP SWAP1 DIV PUSH20 0xFFFFFFFFFFFFFFFFFFFFFFFFFFFFFFFFFFFFFFFF AND PUSH20 0xFFFFFFFFFFFFFFFFFFFFFFFFFFFFFFFFFFFFFFFF AND PUSH4 0x70A08231 ADDRESS PUSH1 0x40 MLOAD DUP3 PUSH4 0xFFFFFFFF AND PUSH1 0xE0 SHL DUP2 MSTORE PUSH1 0x4 ADD PUSH2 0x140 SWAP2 SWAP1 PUSH2 0x794 JUMP JUMPDEST PUSH1 0x20 PUSH1 0x40 MLOAD DUP1 DUP4 SUB DUP2 DUP7 GAS STATICCALL ISZERO DUP1 ISZERO PUSH2 0x15D JUMPI RETURNDATASIZE PUSH1 0x0 DUP1 RETURNDATACOPY RETURNDATASIZE PUSH1 0x0 REVERT JUMPDEST POP POP POP POP PUSH1 0x40 MLOAD RETURNDATASIZE PUSH1 0x1F NOT PUSH1 0x1F DUP3 ADD AND DUP3 ADD DUP1 PUSH1 0x40 MSTORE POP DUP2 ADD SWAP1 PUSH2 0x181 SWAP2 SWAP1 PUSH2 0x85A JUMP JUMPDEST SWAP1 POP SWAP1 JUMP JUMPDEST PUSH1 0x60 PUSH1 0x0 PUSH1 0x60 DUP1 PUSH1 0x60 PUSH1 0x0 DUP1 PUSH1 0x2 PUSH1 0x0 ADD PUSH1 0x0 SWAP1 SLOAD SWAP1 PUSH2 0x100 EXP SWAP1 DIV PUSH1 0x80 SHL PUSH1 0x40 MLOAD PUSH1 0x20 ADD PUSH2 0x1B5 SWAP2 SWAP1 PUSH2 0x8D4 JUMP JUMPDEST PUSH1 0x40 MLOAD PUSH1 0x20 DUP2 DUP4 SUB SUB DUP2 MSTORE SWAP1 PUSH1 0x40 MSTORE PUSH1 0x2 PUSH1 0x0 ADD PUSH1 0x10 SWAP1 SLOAD SWAP1 PUSH2 0x100 EXP SWAP1 DIV PUSH1 0xFF AND PUSH1 0x2 PUSH1 0x0 ADD PUSH1 0x11 SWAP1 SLOAD SWAP1 PUSH2 0x100 EXP SWAP1 DIV PUSH1 0xC0 SHL PUSH1 0x40 MLOAD PUSH1 0x20 ADD PUSH2 0x1FA SWAP2 SWAP1 PUSH2 0x93C JUMP JUMPDEST PUSH1 0x40 MLOAD PUSH1 0x20 DUP2 DUP4 SUB SUB DUP2 MSTORE SWAP1 PUSH1 0x40 MSTORE PUSH1 0x2 PUSH1 0x1 ADD SLOAD PUSH1 0x40 MLOAD PUSH1 0x20 ADD PUSH2 0x21F SWAP2 SWAP1 PUSH2 0x982 JUMP JUMPDEST PUSH1 0x40 MLOAD PUSH1 0x20 DUP2 DUP4 SUB SUB DUP2 MSTORE SWAP1 PUSH1 0x40 MSTORE PUSH1 0x2 PUSH1 0x3 ADD SLOAD PUSH1 0x40 MLOAD PUSH1 0x20 ADD PUSH2 0x244 SWAP2 SWAP1 PUSH2 0x982 JUMP JUMPDEST PUSH1 0x40 MLOAD PUSH1 0x20 DUP2 DUP4 SUB SUB DUP2 MSTORE SWAP1 PUSH1 0x40 MSTORE PUSH1 0x2 DUP1 ADD PUSH1 0x2 SWAP1 SLOAD SWAP1 PUSH2 0x100 EXP SWAP1 DIV PUSH4 0xFFFFFFFF AND PUSH1 0x2 DUP1 ADD PUSH1 0x0 SWAP1 SLOAD SWAP1 PUSH2 0x100 EXP SWAP1 DIV PUSH2 0xFFFF AND DUP2 PUSH4 0xFFFFFFFF AND SWAP2 POP SWAP7 POP SWAP7 POP SWAP7 POP SWAP7 POP SWAP7 POP SWAP7 POP SWAP7 POP SWAP1 SWAP2 SWAP3 SWAP4 SWAP5 SWAP6 SWAP7 JUMP JUMPDEST PUSH1 0x1 PUSH1 0x0 SWAP1 SLOAD SWAP1 PUSH2 0x100 EXP SWAP1 DIV PUSH20 0xFFFFFFFFFFFFFFFFFFFFFFFFFFFFFFFFFFFFFFFF AND DUP2 JUMP JUMPDEST PUSH1 0x1 PUSH1 0x0 SWAP1 SLOAD SWAP1 PUSH2 0x100 EXP SWAP1 DIV PUSH20 0xFFFFFFFFFFFFFFFFFFFFFFFFFFFFFFFFFFFFFFFF AND PUSH20 0xFFFFFFFFFFFFFFFFFFFFFFFFFFFFFFFFFFFFFFFF AND CALLER PUSH20 0xFFFFFFFFFFFFFFFFFFFFFFFFFFFFFFFFFFFFFFFF AND EQ PUSH2 0x351 JUMPI PUSH1 0x40 MLOAD PUSH32 0x8C379A000000000000000000000000000000000000000000000000000000000 DUP2 MSTORE PUSH1 0x4 ADD PUSH2 0x348 SWAP1 PUSH2 0x9E9 JUMP JUMPDEST PUSH1 0x40 MLOAD DUP1 SWAP2 SUB SWAP1 REVERT JUMPDEST PUSH1 0x6 PUSH1 0x0 SWAP1 SLOAD SWAP1 PUSH2 0x100 EXP SWAP1 DIV PUSH1 0xFF AND ISZERO PUSH2 0x3A1 JUMPI PUSH1 0x40 MLOAD PUSH32 0x8C379A000000000000000000000000000000000000000000000000000000000 DUP2 MSTORE PUSH1 0x4 ADD PUSH2 0x398 SWAP1 PUSH2 0xA55 JUMP JUMPDEST PUSH1 0x40 MLOAD DUP1 SWAP2 SUB SWAP1 REVERT JUMPDEST PUSH1 0x1 PUSH1 0x6 PUSH1 0x0 PUSH2 0x100 EXP DUP2 SLOAD DUP2 PUSH1 0xFF MUL NOT AND SWAP1 DUP4 ISZERO ISZERO MUL OR SWAP1 SSTORE POP PUSH2 0xFFFF DUP1 AND PUSH2 0x3C9 PUSH2 0xE4 JUMP JUMPDEST GT ISZERO PUSH2 0x40A JUMPI PUSH1 0x40 MLOAD PUSH32 0x8C379A000000000000000000000000000000000000000000000000000000000 DUP2 MSTORE PUSH1 0x4 ADD PUSH2 0x401 SWAP1 PUSH2 0xAC1 JUMP JUMPDEST PUSH1 0x40 MLOAD DUP1 SWAP2 SUB SWAP1 REVERT JUMPDEST PUSH1 0x0 PUSH2 0x414 PUSH2 0xE4 JUMP JUMPDEST SWAP1 POP DUP1 PUSH1 0x2 DUP1 ADD PUSH1 0x0 PUSH2 0x100 EXP DUP2 SLOAD DUP2 PUSH2 0xFFFF MUL NOT AND SWAP1 DUP4 PUSH2 0xFFFF AND MUL OR SWAP1 SSTORE POP PUSH1 0x0 DUP1 SLOAD SWAP1 PUSH2 0x100 EXP SWAP1 DIV PUSH20 0xFFFFFFFFFFFFFFFFFFFFFFFFFFFFFFFFFFFFFFFF AND PUSH20 0xFFFFFFFFFFFFFFFFFFFFFFFFFFFFFFFFFFFFFFFF AND PUSH4 0xA9059CBB PUSH1 0x1 PUSH1 0x0 SWAP1 SLOAD SWAP1 PUSH2 0x100 EXP SWAP1 DIV PUSH20 0xFFFFFFFFFFFFFFFFFFFFFFFFFFFFFFFFFFFFFFFF AND DUP4 PUSH1 0x40 MLOAD DUP4 PUSH4 0xFFFFFFFF AND PUSH1 0xE0 SHL DUP2 MSTORE PUSH1 0x4 ADD PUSH2 0x4B2 SWAP3 SWAP2 SWAP1 PUSH2 0xB12 JUMP JUMPDEST PUSH1 0x20 PUSH1 0x40 MLOAD DUP1 DUP4 SUB DUP2 PUSH1 0x0 DUP8 GAS CALL ISZERO DUP1 ISZERO PUSH2 0x4D1 JUMPI RETURNDATASIZE PUSH1 0x0 DUP1 RETURNDATACOPY RETURNDATASIZE PUSH1 0x0 REVERT JUMPDEST POP POP POP POP PUSH1 0x40 MLOAD RETURNDATASIZE PUSH1 0x1F NOT PUSH1 0x1F DUP3 ADD AND DUP3 ADD DUP1 PUSH1 0x40 MSTORE POP DUP2 ADD SWAP1 PUSH2 0x4F5 SWAP2 SWAP1 PUSH2 0xB73 JUMP JUMPDEST PUSH2 0x534 JUMPI PUSH1 0x40 MLOAD PUSH32 0x8C379A000000000000000000000000000000000000000000000000000000000 DUP2 MSTORE PUSH1 0x4 ADD PUSH2 0x52B SWAP1 PUSH2 0xBEC JUMP JUMPDEST PUSH1 0x40 MLOAD DUP1 SWAP2 SUB SWAP1 REVERT JUMPDEST PUSH1 0x1 PUSH1 0x0 SWAP1 SLOAD SWAP1 PUSH2 0x100 EXP SWAP1 DIV PUSH20 0xFFFFFFFFFFFFFFFFFFFFFFFFFFFFFFFFFFFFFFFF AND PUSH20 0xFFFFFFFFFFFFFFFFFFFFFFFFFFFFFFFFFFFFFFFF AND PUSH32 0x3EA35E37925C43A4138631A7BBDBD1349AFE6857F7EDFA87E0D7B6E97DB22030 DUP3 PUSH1 0x40 MLOAD PUSH2 0x59C SWAP2 SWAP1 PUSH2 0xC0C JUMP JUMPDEST PUSH1 0x40 MLOAD DUP1 SWAP2 SUB SWAP1 LOG2 POP JUMP JUMPDEST PUSH1 0x0 DUP1 SLOAD SWAP1 PUSH2 0x100 EXP SWAP1 DIV PUSH20 0xFFFFFFFFFFFFFFFFFFFFFFFFFFFFFFFFFFFFFFFF AND DUP2 JUMP JUMPDEST PUSH1 0x0 DUP2 SWAP1 POP SWAP2 SWAP1 POP JUMP JUMPDEST PUSH2 0x5DE DUP2 PUSH2 0x5CB JUMP JUMPDEST DUP3 MSTORE POP POP JUMP JUMPDEST PUSH1 0x0 PUSH1 0x20 DUP3 ADD SWAP1 POP PUSH2 0x5F9 PUSH1 0x0 DUP4 ADD DUP5 PUSH2 0x5D5 JUMP JUMPDEST SWAP3 SWAP2 POP POP JUMP JUMPDEST PUSH1 0x0 DUP2 MLOAD SWAP1 POP SWAP2 SWAP1 POP JUMP JUMPDEST PUSH1 0x0 DUP3 DUP3 MSTORE PUSH1 0x20 DUP3 ADD SWAP1 POP SWAP3 SWAP2 POP POP JUMP JUMPDEST PUSH1 0x0 JUMPDEST DUP4 DUP2 LT ISZERO PUSH2 0x639 JUMPI DUP1 DUP3 ADD MLOAD DUP2 DUP5 ADD MSTORE PUSH1 0x20 DUP2 ADD SWAP1 POP PUSH2 0x61E JUMP JUMPDEST PUSH1 0x0 DUP5 DUP5 ADD MSTORE POP POP POP POP JUMP JUMPDEST PUSH1 0x0 PUSH1 0x1F NOT PUSH1 0x1F DUP4 ADD AND SWAP1 POP SWAP2 SWAP1 POP JUMP JUMPDEST PUSH1 0x0 PUSH2 0x661 DUP3 PUSH2 0x5FF JUMP JUMPDEST PUSH2 0x66B DUP2 DUP6 PUSH2 0x60A JUMP JUMPDEST SWAP4 POP PUSH2 0x67B DUP2 DUP6 PUSH1 0x20 DUP7 ADD PUSH2 0x61B JUMP JUMPDEST PUSH2 0x684 DUP2 PUSH2 0x645 JUMP JUMPDEST DUP5 ADD SWAP2 POP POP SWAP3 SWAP2 POP POP JUMP JUMPDEST PUSH1 0x0 PUSH1 0xFF DUP3 AND SWAP1 POP SWAP2 SWAP1 POP JUMP JUMPDEST PUSH2 0x6A5 DUP2 PUSH2 0x68F JUMP JUMPDEST DUP3 MSTORE POP POP JUMP JUMPDEST PUSH1 0x0 PUSH2 0xFFFF DUP3 AND SWAP1 POP SWAP2 SWAP1 POP JUMP JUMPDEST PUSH2 0x6C2 DUP2 PUSH2 0x6AB JUMP JUMPDEST DUP3 MSTORE POP POP JUMP JUMPDEST PUSH1 0x0 PUSH1 0xE0 DUP3 ADD SWAP1 POP DUP2 DUP2 SUB PUSH1 0x0 DUP4 ADD MSTORE PUSH2 0x6E2 DUP2 DUP11 PUSH2 0x656 JUMP JUMPDEST SWAP1 POP PUSH2 0x6F1 PUSH1 0x20 DUP4 ADD DUP10 PUSH2 0x69C JUMP JUMPDEST DUP2 DUP2 SUB PUSH1 0x40 DUP4 ADD MSTORE PUSH2 0x703 DUP2 DUP9 PUSH2 0x656 JUMP JUMPDEST SWAP1 POP DUP2 DUP2 SUB PUSH1 0x60 DUP4 ADD MSTORE PUSH2 0x717 DUP2 DUP8 PUSH2 0x656 JUMP JUMPDEST SWAP1 POP DUP2 DUP2 SUB PUSH1 0x80 DUP4 ADD MSTORE PUSH2 0x72B DUP2 DUP7 PUSH2 0x656 JUMP JUMPDEST SWAP1 POP PUSH2 0x73A PUSH1 0xA0 DUP4 ADD DUP6 PUSH2 0x5D5 JUMP JUMPDEST PUSH2 0x747 PUSH1 0xC0 DUP4 ADD DUP5 PUSH2 0x6B9 JUMP JUMPDEST SWAP9 SWAP8 POP POP POP POP POP POP POP POP JUMP JUMPDEST PUSH1 0x0 PUSH20 0xFFFFFFFFFFFFFFFFFFFFFFFFFFFFFFFFFFFFFFFF DUP3 AND SWAP1 POP SWAP2 SWAP1 POP JUMP JUMPDEST PUSH1 0x0 PUSH2 0x77E DUP3 PUSH2 0x753 JUMP JUMPDEST SWAP1 POP SWAP2 SWAP1 POP JUMP JUMPDEST PUSH2 0x78E DUP2 PUSH2 0x773 JUMP JUMPDEST DUP3 MSTORE POP POP JUMP JUMPDEST PUSH1 0x0 PUSH1 0x20 DUP3 ADD SWAP1 POP PUSH2 0x7A9 PUSH1 0x0 DUP4 ADD DUP5 PUSH2 0x785 JUMP JUMPDEST SWAP3 SWAP2 POP POP JUMP JUMPDEST PUSH1 0x0 DUP2 SWAP1 POP SWAP2 SWAP1 POP JUMP JUMPDEST PUSH1 0x0 PUSH2 0x7D4 PUSH2 0x7CF PUSH2 0x7CA DUP5 PUSH2 0x753 JUMP JUMPDEST PUSH2 0x7AF JUMP JUMPDEST PUSH2 0x753 JUMP JUMPDEST SWAP1 POP SWAP2 SWAP1 POP JUMP JUMPDEST PUSH1 0x0 PUSH2 0x7E6 DUP3 PUSH2 0x7B9 JUMP JUMPDEST SWAP1 POP SWAP2 SWAP1 POP JUMP JUMPDEST PUSH1 0x0 PUSH2 0x7F8 DUP3 PUSH2 0x7DB JUMP JUMPDEST SWAP1 POP SWAP2 SWAP1 POP JUMP JUMPDEST PUSH2 0x808 DUP2 PUSH2 0x7ED JUMP JUMPDEST DUP3 MSTORE POP POP JUMP JUMPDEST PUSH1 0x0 PUSH1 0x20 DUP3 ADD SWAP1 POP PUSH2 0x823 PUSH1 0x0 DUP4 ADD DUP5 PUSH2 0x7FF JUMP JUMPDEST SWAP3 SWAP2 POP POP JUMP JUMPDEST PUSH1 0x0 DUP1 REVERT JUMPDEST PUSH2 0x837 DUP2 PUSH2 0x5CB JUMP JUMPDEST DUP2 EQ PUSH2 0x842 JUMPI PUSH1 0x0 DUP1 REVERT JUMPDEST POP JUMP JUMPDEST PUSH1 0x0 DUP2 MLOAD SWAP1 POP PUSH2 0x854 DUP2 PUSH2 0x82E JUMP JUMPDEST SWAP3 SWAP2 POP POP JUMP JUMPDEST PUSH1 0x0 PUSH1 0x20 DUP3 DUP5 SUB SLT ISZERO PUSH2 0x870 JUMPI PUSH2 0x86F PUSH2 0x829 JUMP JUMPDEST JUMPDEST PUSH1 0x0 PUSH2 0x87E DUP5 DUP3 DUP6 ADD PUSH2 0x845 JUMP JUMPDEST SWAP2 POP POP SWAP3 SWAP2 POP POP JUMP JUMPDEST PUSH1 0x0 PUSH32 0xFFFFFFFFFFFFFFFFFFFFFFFFFFFFFFFF00000000000000000000000000000000 DUP3 AND SWAP1 POP SWAP2 SWAP1 POP JUMP JUMPDEST PUSH1 0x0 DUP2 SWAP1 POP SWAP2 SWAP1 POP JUMP JUMPDEST PUSH2 0x8CE PUSH2 0x8C9 DUP3 PUSH2 0x887 JUMP JUMPDEST PUSH2 0x8B3 JUMP JUMPDEST DUP3 MSTORE POP POP JUMP JUMPDEST PUSH1 0x0 PUSH2 0x8E0 DUP3 DUP5 PUSH2 0x8BD JUMP JUMPDEST PUSH1 0x10 DUP3 ADD SWAP2 POP DUP2 SWAP1 POP SWAP3 SWAP2 POP POP JUMP JUMPDEST PUSH1 0x0 PUSH32 0xFFFFFFFFFFFFFFFF000000000000000000000000000000000000000000000000 DUP3 AND SWAP1 POP SWAP2 SWAP1 POP JUMP JUMPDEST PUSH1 0x0 DUP2 SWAP1 POP SWAP2 SWAP1 POP JUMP JUMPDEST PUSH2 0x936 PUSH2 0x931 DUP3 PUSH2 0x8EF JUMP JUMPDEST PUSH2 0x91B JUMP JUMPDEST DUP3 MSTORE POP POP JUMP JUMPDEST PUSH1 0x0 PUSH2 0x948 DUP3 DUP5 PUSH2 0x925 JUMP JUMPDEST PUSH1 0x8 DUP3 ADD SWAP2 POP DUP2 SWAP1 POP SWAP3 SWAP2 POP POP JUMP JUMPDEST PUSH1 0x0 DUP2 SWAP1 POP SWAP2 SWAP1 POP JUMP JUMPDEST PUSH1 0x0 DUP2 SWAP1 POP SWAP2 SWAP1 POP JUMP JUMPDEST PUSH2 0x97C PUSH2 0x977 DUP3 PUSH2 0x957 JUMP JUMPDEST PUSH2 0x961 JUMP JUMPDEST DUP3 MSTORE POP POP JUMP JUMPDEST PUSH1 0x0 PUSH2 0x98E DUP3 DUP5 PUSH2 0x96B JUMP JUMPDEST PUSH1 0x20 DUP3 ADD SWAP2 POP DUP2 SWAP1 POP SWAP3 SWAP2 POP POP JUMP JUMPDEST PUSH32 0x4F6E6C79206F776E65722063616E2072657475726E20746F6B656E7300000000 PUSH1 0x0 DUP3 ADD MSTORE POP JUMP JUMPDEST PUSH1 0x0 PUSH2 0x9D3 PUSH1 0x1C DUP4 PUSH2 0x60A JUMP JUMPDEST SWAP2 POP PUSH2 0x9DE DUP3 PUSH2 0x99D JUMP JUMPDEST PUSH1 0x20 DUP3 ADD SWAP1 POP SWAP2 SWAP1 POP JUMP JUMPDEST PUSH1 0x0 PUSH1 0x20 DUP3 ADD SWAP1 POP DUP2 DUP2 SUB PUSH1 0x0 DUP4 ADD MSTORE PUSH2 0xA02 DUP2 PUSH2 0x9C6 JUMP JUMPDEST SWAP1 POP SWAP2 SWAP1 POP JUMP JUMPDEST PUSH32 0x546F6B656E7320616C72656164792072657475726E6564000000000000000000 PUSH1 0x0 DUP3 ADD MSTORE POP JUMP JUMPDEST PUSH1 0x0 PUSH2 0xA3F PUSH1 0x17 DUP4 PUSH2 0x60A JUMP JUMPDEST SWAP2 POP PUSH2 0xA4A DUP3 PUSH2 0xA09 JUMP JUMPDEST PUSH1 0x20 DUP3 ADD SWAP1 POP SWAP2 SWAP1 POP JUMP JUMPDEST PUSH1 0x0 PUSH1 0x20 DUP3 ADD SWAP1 POP DUP2 DUP2 SUB PUSH1 0x0 DUP4 ADD MSTORE PUSH2 0xA6E DUP2 PUSH2 0xA32 JUMP JUMPDEST SWAP1 POP SWAP2 SWAP1 POP JUMP JUMPDEST PUSH32 0x56616C756520657863656564732075696E743136206C696D6974000000000000 PUSH1 0x0 DUP3 ADD MSTORE POP JUMP JUMPDEST PUSH1 0x0 PUSH2 0xAAB PUSH1 0x1A DUP4 PUSH2 0x60A JUMP JUMPDEST SWAP2 POP PUSH2 0xAB6 DUP3 PUSH2 0xA75 JUMP JUMPDEST PUSH1 0x20 DUP3 ADD SWAP1 POP SWAP2 SWAP1 POP JUMP JUMPDEST PUSH1 0x0 PUSH1 0x20 DUP3 ADD SWAP1 POP DUP2 DUP2 SUB PUSH1 0x0 DUP4 ADD MSTORE PUSH2 0xADA DUP2 PUSH2 0xA9E JUMP JUMPDEST SWAP1 POP SWAP2 SWAP1 POP JUMP JUMPDEST PUSH1 0x0 PUSH2 0xAFC PUSH2 0xAF7 PUSH2 0xAF2 DUP5 PUSH2 0x6AB JUMP JUMPDEST PUSH2 0x7AF JUMP JUMPDEST PUSH2 0x5CB JUMP JUMPDEST SWAP1 POP SWAP2 SWAP1 POP JUMP JUMPDEST PUSH2 0xB0C DUP2 PUSH2 0xAE1 JUMP JUMPDEST DUP3 MSTORE POP POP JUMP JUMPDEST PUSH1 0x0 PUSH1 0x40 DUP3 ADD SWAP1 POP PUSH2 0xB27 PUSH1 0x0 DUP4 ADD DUP6 PUSH2 0x785 JUMP JUMPDEST PUSH2 0xB34 PUSH1 0x20 DUP4 ADD DUP5 PUSH2 0xB03 JUMP JUMPDEST SWAP4 SWAP3 POP POP POP JUMP JUMPDEST PUSH1 0x0 DUP2 ISZERO ISZERO SWAP1 POP SWAP2 SWAP1 POP JUMP JUMPDEST PUSH2 0xB50 DUP2 PUSH2 0xB3B JUMP JUMPDEST DUP2 EQ PUSH2 0xB5B JUMPI PUSH1 0x0 DUP1 REVERT JUMPDEST POP JUMP JUMPDEST PUSH1 0x0 DUP2 MLOAD SWAP1 POP PUSH2 0xB6D DUP2 PUSH2 0xB47 JUMP JUMPDEST SWAP3 SWAP2 POP POP JUMP JUMPDEST PUSH1 0x0 PUSH1 0x20 DUP3 DUP5 SUB SLT ISZERO PUSH2 0xB89 JUMPI PUSH2 0xB88 PUSH2 0x829 JUMP JUMPDEST JUMPDEST PUSH1 0x0 PUSH2 0xB97 DUP5 DUP3 DUP6 ADD PUSH2 0xB5E JUMP JUMPDEST SWAP2 POP POP SWAP3 SWAP2 POP POP JUMP JUMPDEST PUSH32 0x5472616E7366657220746F206F776E6572206661696C65640000000000000000 PUSH1 0x0 DUP3 ADD MSTORE POP JUMP JUMPDEST PUSH1 0x0 PUSH2 0xBD6 PUSH1 0x18 DUP4 PUSH2 0x60A JUMP JUMPDEST SWAP2 POP PUSH2 0xBE1 DUP3 PUSH2 0xBA0 JUMP JUMPDEST PUSH1 0x20 DUP3 ADD SWAP1 POP SWAP2 SWAP1 POP JUMP JUMPDEST PUSH1 0x0 PUSH1 0x20 DUP3 ADD SWAP1 POP DUP2 DUP2 SUB PUSH1 0x0 DUP4 ADD MSTORE PUSH2 0xC05 DUP2 PUSH2 0xBC9 JUMP JUMPDEST SWAP1 POP SWAP2 SWAP1 POP JUMP JUMPDEST PUSH1 0x0 PUSH1 0x20 DUP3 ADD SWAP1 POP PUSH2 0xC21 PUSH1 0x0 DUP4 ADD DUP5 PUSH2 0xB03 JUMP JUMPDEST SWAP3 SWAP2 POP POP JUMP INVALID LOG2 PUSH5 0x6970667358 0x22 SLT KECCAK256 SLT PUSH17 0x2C3525D1C1CDB5E9442459768C9F8B38E1 DELEGATECALL 0x1E 0xD1 PUSH18 0x4B0C1516327FB41C4A64736F6C6343000817 STOP CALLER "},"methodIdentifiers":{"getInfo()":"5a9b0b89","owner()":"8da5cb5b","returnTokens()":"f9718fc8","token()":"fc0c546a","voteSupply()":"4f99fecc"}},"storageLayout":{"storage":[{"astId":1221,"contract":"contracts/Aday.sol:Aday","label":"token","offset":0,"slot":"0","type":"t_contract(ERC20)1030"},{"astId":1223,"contract":"contracts/Aday.sol:Aday","label":"owner","offset":0,"slot":"1","type":"t_address"},{"astId":1226,"contract":"contracts/Aday.sol:Aday","label":"_info","offset":0,"slot":"2","type":"t_struct(Info)1218_storage"},{"astId":1417,"contract":"contracts/Aday.sol:Aday","label":"tokensReturned","offset":0,"slot":"6","type":"t_bool"}],"types":{"t_address":{"encoding":"inplace","label":"address","numberOfBytes":"20"},"t_bool":{"encoding":"inplace","label":"bool","numberOfBytes":"1"},"t_bytes16":{"encoding":"inplace","label":"bytes16","numberOfBytes":"16"},"t_bytes32":{"encoding":"inplace","label":"bytes32","numberOfBytes":"32"},"t_bytes8":{"encoding":"inplace","label":"bytes8","numberOfBytes":"8"},"t_contract(ERC20)1030":{"encoding":"inplace","label":"contract ERC20","numberOfBytes":"20"},"t_struct(Info)1218_storage":{"encoding":"inplace","label":"struct Aday.Info","members":[{"astId":1205,"contract":"contracts/Aday.sol:Aday","label":"nameAndSurname","offset":0,"slot":"0","type":"t_bytes16"},{"astId":1207,"contract":"contracts/Aday.sol:Aday","label":"age","offset":16,"slot":"0","type":"t_uint8"},{"astId":1209,"contract":"contracts/Aday.sol:Aday","label":"gender","offset":17,"slot":"0","type":"t_bytes8"},{"astId":1211,"contract":"contracts/Aday.sol:Aday","label":"electionName","offset":0,"slot":"1","type":"t_bytes32"},{"astId":1213,"contract":"contracts/Aday.sol:Aday","label":"amountToVote","offset":0,"slot":"2","type":"t_uint16"},{"astId":1215,"contract":"contracts/Aday.sol:Aday","label":"votingTime","offset":2,"slot":"2","type":"t_uint32"},{"astId":1217,"contract":"contracts/Aday.sol:Aday","label":"slogan","offset":0,"slot":"3","type":"t_bytes32"}],"numberOfBytes":"128"},"t_uint16":{"encoding":"inplace","label":"uint16","numberOfBytes":"2"},"t_uint32":{"encoding":"inplace","label":"uint32","numberOfBytes":"4"},"t_uint8":{"encoding":"inplace","label":"uint8","numberOfBytes":"1"}}}}}}