{"contracts/VoteToken.sol":{"VoteToken":{"abi":[{"inputs":[{"internalType":"uint16","name":"voterCount","type":"uint16"}],"stateMutability":"nonpayable","type":"constructor"},{"inputs":[],"name":"AccessControlBadConfirmation","type":"error"},{"inputs":[{"internalType":"address","name":"account","type":"address"},{"internalType":"bytes32","name":"neededRole","type":"bytes32"}],"name":"AccessControlUnauthorizedAccount","type":"error"},{"inputs":[{"internalType":"address","name":"spender","type":"address"},{"internalType":"uint256","name":"allowance","type":"uint256"},{"internalType":"uint256","name":"needed","type":"uint256"}],"name":"ERC20InsufficientAllowance","type":"error"},{"inputs":[{"internalType":"address","name":"sender","type":"address"},{"internalType":"uint256","name":"balance","type":"uint256"},{"internalType":"uint256","name":"needed","type":"uint256"}],"name":"ERC20InsufficientBalance","type":"error"},{"inputs":[{"internalType":"address","name":"approver","type":"address"}],"name":"ERC20InvalidApprover","type":"error"},{"inputs":[{"internalType":"address","name":"receiver","type":"address"}],"name":"ERC20InvalidReceiver","type":"error"},{"inputs":[{"internalType":"address","name":"sender","type":"address"}],"name":"ERC20InvalidSender","type":"error"},{"inputs":[{"internalType":"address","name":"spender","type":"address"}],"name":"ERC20InvalidSpender","type":"error"},{"anonymous":false,"inputs":[{"indexed":true,"internalType":"address","name":"owner","type":"address"},{"indexed":true,"internalType":"address","name":"spender","type":"address"},{"indexed":false,"internalType":"uint256","name":"value","type":"uint256"}],"name":"Approval","type":"event"},{"anonymous":false,"inputs":[{"indexed":true,"internalType":"bytes32","name":"role","type":"bytes32"},{"indexed":true,"internalType":"bytes32","name":"previousAdminRole","type":"bytes32"},{"indexed":true,"internalType":"bytes32","name":"newAdminRole","type":"bytes32"}],"name":"RoleAdminChanged","type":"event"},{"anonymous":false,"inputs":[{"indexed":true,"internalType":"bytes32","name":"role","type":"bytes32"},{"indexed":true,"internalType":"address","name":"account","type":"address"},{"indexed":true,"internalType":"address","name":"sender","type":"address"}],"name":"RoleGranted","type":"event"},{"anonymous":false,"inputs":[{"indexed":true,"internalType":"bytes32","name":"role","type":"bytes32"},{"indexed":true,"internalType":"address","name":"account","type":"address"},{"indexed":true,"internalType":"address","name":"sender","type":"address"}],"name":"RoleRevoked","type":"event"},{"anonymous":false,"inputs":[{"indexed":true,"internalType":"address","name":"from","type":"address"},{"indexed":true,"internalType":"address","name":"to","type":"address"},{"indexed":false,"internalType":"uint256","name":"value","type":"uint256"}],"name":"Transfer","type":"event"},{"inputs":[],"name":"DEFAULT_ADMIN_ROLE","outputs":[{"internalType":"bytes32","name":"","type":"bytes32"}],"stateMutability":"view","type":"function"},{"inputs":[{"internalType":"address","name":"owner","type":"address"},{"internalType":"address","name":"spender","type":"address"}],"name":"allowance","outputs":[{"internalType":"uint256","name":"","type":"uint256"}],"stateMutability":"view","type":"function"},{"inputs":[{"internalType":"address","name":"spender","type":"address"},{"internalType":"uint256","name":"value","type":"uint256"}],"name":"approve","outputs":[{"internalType":"bool","name":"","type":"bool"}],"stateMutability":"nonpayable","type":"function"},{"inputs":[{"internalType":"bytes32","name":"","type":"bytes32"},{"internalType":"address","name":"","type":"address"}],"name":"approveElection","outputs":[{"internalType":"bool","name":"","type":"bool"}],"stateMutability":"view","type":"function"},{"inputs":[{"internalType":"address[]","name":"voters","type":"address[]"},{"internalType":"string","name":"electionName","type":"string"}],"name":"approveVote","outputs":[],"stateMutability":"nonpayable","type":"function"},{"inputs":[{"internalType":"address","name":"account","type":"address"}],"name":"balanceOf","outputs":[{"internalType":"uint256","name":"","type":"uint256"}],"stateMutability":"view","type":"function"},{"inputs":[],"name":"clock","outputs":[{"internalType":"uint32","name":"","type":"uint32"}],"stateMutability":"view","type":"function"},{"inputs":[],"name":"decimals","outputs":[{"internalType":"uint8","name":"","type":"uint8"}],"stateMutability":"view","type":"function"},{"inputs":[{"internalType":"string","name":"electionName","type":"string"}],"name":"getDurationTime","outputs":[{"internalType":"uint32","name":"","type":"uint32"}],"stateMutability":"view","type":"function"},{"inputs":[{"internalType":"string[]","name":"electionNames","type":"string[]"}],"name":"getNotFinishElection","outputs":[{"internalType":"string[]","name":"","type":"string[]"}],"stateMutability":"view","type":"function"},{"inputs":[{"internalType":"bytes32","name":"role","type":"bytes32"}],"name":"getRoleAdmin","outputs":[{"internalType":"bytes32","name":"","type":"bytes32"}],"stateMutability":"view","type":"function"},{"inputs":[{"internalType":"bytes32","name":"role","type":"bytes32"},{"internalType":"address","name":"account","type":"address"}],"name":"grantRole","outputs":[],"stateMutability":"nonpayable","type":"function"},{"inputs":[{"internalType":"bytes32","name":"role","type":"bytes32"},{"internalType":"address","name":"account","type":"address"}],"name":"hasRole","outputs":[{"internalType":"bool","name":"","type":"bool"}],"stateMutability":"view","type":"function"},{"inputs":[],"name":"name","outputs":[{"internalType":"string","name":"","type":"string"}],"stateMutability":"view","type":"function"},{"inputs":[{"internalType":"bytes32","name":"role","type":"bytes32"},{"internalType":"address","name":"callerConfirmation","type":"address"}],"name":"renounceRole","outputs":[],"stateMutability":"nonpayable","type":"function"},{"inputs":[{"internalType":"address[]","name":"voters","type":"address[]"},{"internalType":"string","name":"electionName","type":"string"}],"name":"revokePermission","outputs":[],"stateMutability":"nonpayable","type":"function"},{"inputs":[{"internalType":"bytes32","name":"role","type":"bytes32"},{"internalType":"address","name":"account","type":"address"}],"name":"revokeRole","outputs":[],"stateMutability":"nonpayable","type":"function"},{"inputs":[{"internalType":"string","name":"electionName","type":"string"},{"internalType":"uint32","name":"time","type":"uint32"}],"name":"setDurationTime","outputs":[],"stateMutability":"nonpayable","type":"function"},{"inputs":[{"internalType":"bytes4","name":"interfaceId","type":"bytes4"}],"name":"supportsInterface","outputs":[{"internalType":"bool","name":"","type":"bool"}],"stateMutability":"view","type":"function"},{"inputs":[],"name":"symbol","outputs":[{"internalType":"string","name":"","type":"string"}],"stateMutability":"view","type":"function"},{"inputs":[],"name":"totalSupply","outputs":[{"internalType":"uint256","name":"","type":"uint256"}],"stateMutability":"view","type":"function"},{"inputs":[{"internalType":"address","name":"to","type":"address"},{"internalType":"uint256","name":"value","type":"uint256"}],"name":"transfer","outputs":[{"internalType":"bool","name":"","type":"bool"}],"stateMutability":"nonpayable","type":"function"},{"inputs":[{"internalType":"address","name":"from","type":"address"},{"internalType":"address","name":"to","type":"address"},{"internalType":"uint256","name":"value","type":"uint256"}],"name":"transferFrom","outputs":[{"internalType":"bool","name":"","type":"bool"}],"stateMutability":"nonpayable","type":"function"},{"inputs":[{"internalType":"bytes32","name":"","type":"bytes32"},{"internalType":"address","name":"","type":"address"}],"name":"voted","outputs":[{"internalType":"bool","name":"","type":"bool"}],"stateMutability":"view","type":"function"},{"inputs":[{"internalType":"address","name":"aday","type":"address"},{"internalType":"string","name":"electionName","type":"string"}],"name":"voting","outputs":[],"stateMutability":"nonpayable","type":"function"}],"evm":{"bytecode":{"linkReferences":{},"object":"60806040523480156200001157600080fd5b5060405162003941380380620039418339818101604052810190620000379190620005b5565b6040518060400160405280600481526020017f566f7465000000000000000000000000000000000000000000000000000000008152506040518060400160405280600281526020017f56540000000000000000000000000000000000000000000000000000000000008152508160039081620000b4919062000861565b508060049081620000c6919062000861565b505050620000de6000801b336200013d60201b60201c565b5033600960006101000a81548173ffffffffffffffffffffffffffffffffffffffff021916908373ffffffffffffffffffffffffffffffffffffffff16021790555062000136338261ffff166200024160201b60201c565b5062000a7f565b6000620001518383620002ce60201b60201c565b620002365760016005600085815260200190815260200160002060000160008473ffffffffffffffffffffffffffffffffffffffff1673ffffffffffffffffffffffffffffffffffffffff16815260200190815260200160002060006101000a81548160ff021916908315150217905550620001d26200033960201b60201c565b73ffffffffffffffffffffffffffffffffffffffff168273ffffffffffffffffffffffffffffffffffffffff16847f2f8788117e7eff1d82e926ec794901d17c78024a50270940304540a733656f0d60405160405180910390a4600190506200023b565b600090505b92915050565b600073ffffffffffffffffffffffffffffffffffffffff168273ffffffffffffffffffffffffffffffffffffffff1603620002b65760006040517fec442f05000000000000000000000000000000000000000000000000000000008152600401620002ad91906200098d565b60405180910390fd5b620002ca600083836200034160201b60201c565b5050565b60006005600084815260200190815260200160002060000160008373ffffffffffffffffffffffffffffffffffffffff1673ffffffffffffffffffffffffffffffffffffffff16815260200190815260200160002060009054906101000a900460ff16905092915050565b600033905090565b600073ffffffffffffffffffffffffffffffffffffffff168373ffffffffffffffffffffffffffffffffffffffff1603620003975780600260008282546200038a9190620009d9565b925050819055506200046d565b60008060008573ffffffffffffffffffffffffffffffffffffffff1673ffffffffffffffffffffffffffffffffffffffff1681526020019081526020016000205490508181101562000426578381836040517fe450d38c0000000000000000000000000000000000000000000000000000000081526004016200041d9392919062000a25565b60405180910390fd5b8181036000808673ffffffffffffffffffffffffffffffffffffffff1673ffffffffffffffffffffffffffffffffffffffff16815260200190815260200160002081905550505b600073ffffffffffffffffffffffffffffffffffffffff168273ffffffffffffffffffffffffffffffffffffffff1603620004b8578060026000828254039250508190555062000505565b806000808473ffffffffffffffffffffffffffffffffffffffff1673ffffffffffffffffffffffffffffffffffffffff168152602001908152602001600020600082825401925050819055505b8173ffffffffffffffffffffffffffffffffffffffff168373ffffffffffffffffffffffffffffffffffffffff167fddf252ad1be2c89b69c2b068fc378daa952ba7f163c4a11628f55a4df523b3ef8360405162000564919062000a62565b60405180910390a3505050565b600080fd5b600061ffff82169050919050565b6200058f8162000576565b81146200059b57600080fd5b50565b600081519050620005af8162000584565b92915050565b600060208284031215620005ce57620005cd62000571565b5b6000620005de848285016200059e565b91505092915050565b600081519050919050565b7f4e487b7100000000000000000000000000000000000000000000000000000000600052604160045260246000fd5b7f4e487b7100000000000000000000000000000000000000000000000000000000600052602260045260246000fd5b600060028204905060018216806200066957607f821691505b6020821081036200067f576200067e62000621565b5b50919050565b60008190508160005260206000209050919050565b60006020601f8301049050919050565b600082821b905092915050565b600060088302620006e97fffffffffffffffffffffffffffffffffffffffffffffffffffffffffffffffff82620006aa565b620006f58683620006aa565b95508019841693508086168417925050509392505050565b6000819050919050565b6000819050919050565b6000620007426200073c62000736846200070d565b62000717565b6200070d565b9050919050565b6000819050919050565b6200075e8362000721565b620007766200076d8262000749565b848454620006b7565b825550505050565b600090565b6200078d6200077e565b6200079a81848462000753565b505050565b5b81811015620007c257620007b660008262000783565b600181019050620007a0565b5050565b601f8211156200081157620007db8162000685565b620007e6846200069a565b81016020851015620007f6578190505b6200080e62000805856200069a565b8301826200079f565b50505b505050565b600082821c905092915050565b6000620008366000198460080262000816565b1980831691505092915050565b600062000851838362000823565b9150826002028217905092915050565b6200086c82620005e7565b67ffffffffffffffff811115620008885762000887620005f2565b5b62000894825462000650565b620008a1828285620007c6565b600060209050601f831160018114620008d95760008415620008c4578287015190505b620008d0858262000843565b86555062000940565b601f198416620008e98662000685565b60005b828110156200091357848901518255600182019150602085019450602081019050620008ec565b868310156200093357848901516200092f601f89168262000823565b8355505b6001600288020188555050505b505050505050565b600073ffffffffffffffffffffffffffffffffffffffff82169050919050565b6000620009758262000948565b9050919050565b620009878162000968565b82525050565b6000602082019050620009a460008301846200097c565b92915050565b7f4e487b7100000000000000000000000000000000000000000000000000000000600052601160045260246000fd5b6000620009e6826200070d565b9150620009f3836200070d565b925082820190508082111562000a0e5762000a0d620009aa565b5b92915050565b62000a1f816200070d565b82525050565b600060608201905062000a3c60008301866200097c565b62000a4b602083018562000a14565b62000a5a604083018462000a14565b949350505050565b600060208201905062000a79600083018462000a14565b92915050565b612eb28062000a8f6000396000f3fe608060405234801561001057600080fd5b50600436106101735760003560e01c806342457973116100de57806395d89b4111610097578063bb5be3b011610071578063bb5be3b014610484578063d547741f146104b4578063d9a75572146104d0578063dd62ed3e1461050057610173565b806395d89b4114610418578063a217fddf14610436578063a9059cbb1461045457610173565b8063424579731461033257806351ac99561461036257806370a082311461037e57806385d07a7e146103ae57806391d14854146103ca57806391ddadf4146103fa57610173565b8063248a9ca311610130578063248a9ca3146102745780632f2ff15d146102a4578063313ce567146102c057806336568abe146102de5780633cef521e146102fa5780633fc447b21461031657610173565b806301ffc9a71461017857806306fdde03146101a8578063095ea7b3146101c65780630ebf1765146101f657806318160ddd1461022657806323b872dd14610244575b600080fd5b610192600480360381019061018d9190611e5b565b610530565b60405161019f9190611ea3565b60405180910390f35b6101b06105aa565b6040516101bd9190611f4e565b60405180910390f35b6101e060048036038101906101db9190612004565b61063c565b6040516101ed9190611ea3565b60405180910390f35b610210600480360381019061020b919061207a565b61065f565b60405161021d9190611ea3565b60405180910390f35b61022e61068e565b60405161023b91906120c9565b60405180910390f35b61025e600480360381019061025991906120e4565b610698565b60405161026b9190611ea3565b60405180910390f35b61028e60048036038101906102899190612137565b6106c7565b60405161029b9190612173565b60405180910390f35b6102be60048036038101906102b9919061207a565b6106e7565b005b6102c8610709565b6040516102d591906121aa565b60405180910390f35b6102f860048036038101906102f3919061207a565b610712565b005b610314600480360381019061030f9190612336565b61078d565b005b610330600480360381019061032b919061245a565b6107ec565b005b61034c600480360381019061034791906124d2565b610b08565b604051610359919061252a565b60405180910390f35b61037c60048036038101906103779190612545565b610b3e565b005b610398600480360381019061039391906125a1565b610e5c565b6040516103a591906120c9565b60405180910390f35b6103c860048036038101906103c3919061245a565b610ea4565b005b6103e460048036038101906103df919061207a565b611144565b6040516103f19190611ea3565b60405180910390f35b6104026111af565b60405161040f919061252a565b60405180910390f35b6104206111b7565b60405161042d9190611f4e565b60405180910390f35b61043e611249565b60405161044b9190612173565b60405180910390f35b61046e60048036038101906104699190612004565b611250565b60405161047b9190611ea3565b60405180910390f35b61049e600480360381019061049991906126af565b611273565b6040516104ab9190612804565b60405180910390f35b6104ce60048036038101906104c9919061207a565b611413565b005b6104ea60048036038101906104e5919061207a565b611435565b6040516104f79190611ea3565b60405180910390f35b61051a60048036038101906105159190612826565b611464565b60405161052791906120c9565b60405180910390f35b60007f7965db0b000000000000000000000000000000000000000000000000000000007bffffffffffffffffffffffffffffffffffffffffffffffffffffffff1916827bffffffffffffffffffffffffffffffffffffffffffffffffffffffff191614806105a357506105a2826114eb565b5b9050919050565b6060600380546105b990612895565b80601f01602080910402602001604051908101604052809291908181526020018280546105e590612895565b80156106325780601f1061060757610100808354040283529160200191610632565b820191906000526020600020905b81548152906001019060200180831161061557829003601f168201915b5050505050905090565b600080610647611555565b905061065481858561155d565b600191505092915050565b60086020528160005260406000206020528060005260406000206000915091509054906101000a900460ff1681565b6000600254905090565b6000806106a3611555565b90506106b085828561156f565b6106bb858585611604565b60019150509392505050565b600060056000838152602001908152602001600020600101549050919050565b6106f0826106c7565b6106f9816116f8565b610703838361170c565b50505050565b60006012905090565b61071a611555565b73ffffffffffffffffffffffffffffffffffffffff168173ffffffffffffffffffffffffffffffffffffffff161461077e576040517f6697b23200000000000000000000000000000000000000000000000000000000815260040160405180910390fd5b61078882826117fe565b505050565b6000801b61079a816116f8565b816107a36111af565b6107ad91906128f5565b60066000856107bb9061296a565b815260200190815260200160002060006101000a81548163ffffffff021916908363ffffffff160217905550505050565b6000801b6107f9816116f8565b600083511161083d576040517f08c379a000000000000000000000000000000000000000000000000000000000815260040161083490612a1d565b60405180910390fd5b600660008361084b9061296a565b815260200190815260200160002060009054906101000a900463ffffffff1663ffffffff166108786111af565b63ffffffff16116108be576040517f08c379a00000000000000000000000000000000000000000000000000000000081526004016108b590612a89565b60405180910390fd5b60005b83518161ffff161015610b025760076000846108dc9061296a565b81526020019081526020016000206000858361ffff168151811061090357610902612aa9565b5b602002602001015173ffffffffffffffffffffffffffffffffffffffff1673ffffffffffffffffffffffffffffffffffffffff16815260200190815260200160002060009054906101000a900460ff16610aef57600060086000856109679061296a565b81526020019081526020016000206000868461ffff168151811061098e5761098d612aa9565b5b602002602001015173ffffffffffffffffffffffffffffffffffffffff1673ffffffffffffffffffffffffffffffffffffffff16815260200190815260200160002060006101000a81548160ff0219169083151502179055506000610a33600960009054906101000a900473ffffffffffffffffffffffffffffffffffffffff16868461ffff1681518110610a2657610a25612aa9565b5b6020026020010151611464565b905060018160ff161115610aa057610a9b600960009054906101000a900473ffffffffffffffffffffffffffffffffffffffff16868461ffff1681518110610a7e57610a7d612aa9565b5b6020026020010151600184610a939190612ad8565b60ff1661155d565b610aed565b610aec600960009054906101000a900473ffffffffffffffffffffffffffffffffffffffff16868461ffff1681518110610add57610adc612aa9565b5b6020026020010151600061155d565b5b505b8080610afa90612b1b565b9150506108c1565b50505050565b60006006600083610b189061296a565b815260200190815260200160002060009054906101000a900463ffffffff169050919050565b6001610b6c600960009054906101000a900473ffffffffffffffffffffffffffffffffffffffff1633611464565b1015610bad576040517f08c379a0000000000000000000000000000000000000000000000000000000008152600401610ba490612b91565b60405180910390fd5b6008600082610bbb9061296a565b815260200190815260200160002060003373ffffffffffffffffffffffffffffffffffffffff1673ffffffffffffffffffffffffffffffffffffffff16815260200190815260200160002060009054906101000a900460ff16610c53576040517f08c379a0000000000000000000000000000000000000000000000000000000008152600401610c4a90612c23565b60405180910390fd5b6006600082610c619061296a565b815260200190815260200160002060009054906101000a900463ffffffff1663ffffffff16610c8e6111af565b63ffffffff1610610cd4576040517f08c379a0000000000000000000000000000000000000000000000000000000008152600401610ccb90612c8f565b60405180910390fd5b6007600082610ce29061296a565b815260200190815260200160002060003373ffffffffffffffffffffffffffffffffffffffff1673ffffffffffffffffffffffffffffffffffffffff16815260200190815260200160002060009054906101000a900460ff1615610d7b576040517f08c379a0000000000000000000000000000000000000000000000000000000008152600401610d7290612d21565b60405180910390fd5b6001610da8600960009054906101000a900473ffffffffffffffffffffffffffffffffffffffff16610e5c565b1015610db757610db66118f1565b5b610de5600960009054906101000a900473ffffffffffffffffffffffffffffffffffffffff16836001610698565b5060016007600083610df69061296a565b815260200190815260200160002060003373ffffffffffffffffffffffffffffffffffffffff1673ffffffffffffffffffffffffffffffffffffffff16815260200190815260200160002060006101000a81548160ff0219169083151502179055505050565b60008060008373ffffffffffffffffffffffffffffffffffffffff1673ffffffffffffffffffffffffffffffffffffffff168152602001908152602001600020549050919050565b6000801b610eb1816116f8565b6000835111610ef5576040517f08c379a0000000000000000000000000000000000000000000000000000000008152600401610eec90612a1d565b60405180910390fd5b60005b83518161ffff16101561113e5760006007600085610f159061296a565b81526020019081526020016000206000868461ffff1681518110610f3c57610f3b612aa9565b5b602002602001015173ffffffffffffffffffffffffffffffffffffffff1673ffffffffffffffffffffffffffffffffffffffff16815260200190815260200160002060006101000a81548160ff02191690831515021790555060016008600085610fa59061296a565b81526020019081526020016000206000868461ffff1681518110610fcc57610fcb612aa9565b5b602002602001015173ffffffffffffffffffffffffffffffffffffffff1673ffffffffffffffffffffffffffffffffffffffff16815260200190815260200160002060006101000a81548160ff0219169083151502179055506000611071600960009054906101000a900473ffffffffffffffffffffffffffffffffffffffff16868461ffff168151811061106457611063612aa9565b5b6020026020010151611464565b905060018160ff16106110dd576110d8600960009054906101000a900473ffffffffffffffffffffffffffffffffffffffff16868461ffff16815181106110bb576110ba612aa9565b5b60200260200101516001846110d09190612d41565b60ff1661155d565b61112a565b611129600960009054906101000a900473ffffffffffffffffffffffffffffffffffffffff16868461ffff168151811061111a57611119612aa9565b5b6020026020010151600161155d565b5b50808061113690612b1b565b915050610ef8565b50505050565b60006005600084815260200190815260200160002060000160008373ffffffffffffffffffffffffffffffffffffffff1673ffffffffffffffffffffffffffffffffffffffff16815260200190815260200160002060009054906101000a900460ff16905092915050565b600042905090565b6060600480546111c690612895565b80601f01602080910402602001604051908101604052809291908181526020018280546111f290612895565b801561123f5780601f106112145761010080835404028352916020019161123f565b820191906000526020600020905b81548152906001019060200180831161122257829003601f168201915b5050505050905090565b6000801b81565b60008061125b611555565b9050611268818585611604565b600191505092915050565b60606000805b83518110156112f857600084828151811061129757611296612aa9565b5b60200260200101516112a89061296a565b9050426006600083815260200190815260200160002060009054906101000a900463ffffffff1663ffffffff1611156112ea5782806112e690612d76565b9350505b508080600101915050611279565b5060008167ffffffffffffffff811115611315576113146121cf565b5b60405190808252806020026020018201604052801561134857816020015b60608152602001906001900390816113335790505b5090506000805b855181101561140757600086828151811061136d5761136c612aa9565b5b602002602001015161137e9061296a565b9050426006600083815260200190815260200160002060009054906101000a900463ffffffff1663ffffffff1611156113f9578682815181106113c4576113c3612aa9565b5b60200260200101518484815181106113df576113de612aa9565b5b602002602001018190525082806113f590612d76565b9350505b50808060010191505061134f565b50819350505050919050565b61141c826106c7565b611425816116f8565b61142f83836117fe565b50505050565b60076020528160005260406000206020528060005260406000206000915091509054906101000a900460ff1681565b6000600160008473ffffffffffffffffffffffffffffffffffffffff1673ffffffffffffffffffffffffffffffffffffffff16815260200190815260200160002060008373ffffffffffffffffffffffffffffffffffffffff1673ffffffffffffffffffffffffffffffffffffffff16815260200190815260200160002054905092915050565b60007f01ffc9a7000000000000000000000000000000000000000000000000000000007bffffffffffffffffffffffffffffffffffffffffffffffffffffffff1916827bffffffffffffffffffffffffffffffffffffffffffffffffffffffff1916149050919050565b600033905090565b61156a8383836001611920565b505050565b600061157b8484611464565b90507fffffffffffffffffffffffffffffffffffffffffffffffffffffffffffffffff8110156115fe57818110156115ee578281836040517ffb8f41b20000000000000000000000000000000000000000000000000000000081526004016115e593929190612dcd565b60405180910390fd5b6115fd84848484036000611920565b5b50505050565b600073ffffffffffffffffffffffffffffffffffffffff168373ffffffffffffffffffffffffffffffffffffffff16036116765760006040517f96c6fd1e00000000000000000000000000000000000000000000000000000000815260040161166d9190612e04565b60405180910390fd5b600073ffffffffffffffffffffffffffffffffffffffff168273ffffffffffffffffffffffffffffffffffffffff16036116e85760006040517fec442f050000000000000000000000000000000000000000000000000000000081526004016116df9190612e04565b60405180910390fd5b6116f3838383611af7565b505050565b61170981611704611555565b611d1c565b50565b60006117188383611144565b6117f35760016005600085815260200190815260200160002060000160008473ffffffffffffffffffffffffffffffffffffffff1673ffffffffffffffffffffffffffffffffffffffff16815260200190815260200160002060006101000a81548160ff021916908315150217905550611790611555565b73ffffffffffffffffffffffffffffffffffffffff168273ffffffffffffffffffffffffffffffffffffffff16847f2f8788117e7eff1d82e926ec794901d17c78024a50270940304540a733656f0d60405160405180910390a4600190506117f8565b600090505b92915050565b600061180a8383611144565b156118e65760006005600085815260200190815260200160002060000160008473ffffffffffffffffffffffffffffffffffffffff1673ffffffffffffffffffffffffffffffffffffffff16815260200190815260200160002060006101000a81548160ff021916908315150217905550611883611555565b73ffffffffffffffffffffffffffffffffffffffff168273ffffffffffffffffffffffffffffffffffffffff16847ff6391f5c32d9c69d2a47ea670b442974b53935d1edc7fd64eb21e047a839171b60405160405180910390a4600190506118eb565b600090505b92915050565b61191e600960009054906101000a900473ffffffffffffffffffffffffffffffffffffffff166001611d6d565b565b600073ffffffffffffffffffffffffffffffffffffffff168473ffffffffffffffffffffffffffffffffffffffff16036119925760006040517fe602df050000000000000000000000000000000000000000000000000000000081526004016119899190612e04565b60405180910390fd5b600073ffffffffffffffffffffffffffffffffffffffff168373ffffffffffffffffffffffffffffffffffffffff1603611a045760006040517f94280d620000000000000000000000000000000000000000000000000000000081526004016119fb9190612e04565b60405180910390fd5b81600160008673ffffffffffffffffffffffffffffffffffffffff1673ffffffffffffffffffffffffffffffffffffffff16815260200190815260200160002060008573ffffffffffffffffffffffffffffffffffffffff1673ffffffffffffffffffffffffffffffffffffffff168152602001908152602001600020819055508015611af1578273ffffffffffffffffffffffffffffffffffffffff168473ffffffffffffffffffffffffffffffffffffffff167f8c5be1e5ebec7d5bd14f71427d1e84f3dd0314c0f7b2291e5b200ac8c7c3b92584604051611ae891906120c9565b60405180910390a35b50505050565b600073ffffffffffffffffffffffffffffffffffffffff168373ffffffffffffffffffffffffffffffffffffffff1603611b49578060026000828254611b3d9190612e1f565b92505081905550611c1c565b60008060008573ffffffffffffffffffffffffffffffffffffffff1673ffffffffffffffffffffffffffffffffffffffff16815260200190815260200160002054905081811015611bd5578381836040517fe450d38c000000000000000000000000000000000000000000000000000000008152600401611bcc93929190612dcd565b60405180910390fd5b8181036000808673ffffffffffffffffffffffffffffffffffffffff1673ffffffffffffffffffffffffffffffffffffffff16815260200190815260200160002081905550505b600073ffffffffffffffffffffffffffffffffffffffff168273ffffffffffffffffffffffffffffffffffffffff1603611c655780600260008282540392505081905550611cb2565b806000808473ffffffffffffffffffffffffffffffffffffffff1673ffffffffffffffffffffffffffffffffffffffff168152602001908152602001600020600082825401925050819055505b8173ffffffffffffffffffffffffffffffffffffffff168373ffffffffffffffffffffffffffffffffffffffff167fddf252ad1be2c89b69c2b068fc378daa952ba7f163c4a11628f55a4df523b3ef83604051611d0f91906120c9565b60405180910390a3505050565b611d268282611144565b611d695780826040517fe2517d3f000000000000000000000000000000000000000000000000000000008152600401611d60929190612e53565b60405180910390fd5b5050565b600073ffffffffffffffffffffffffffffffffffffffff168273ffffffffffffffffffffffffffffffffffffffff1603611ddf5760006040517fec442f05000000000000000000000000000000000000000000000000000000008152600401611dd69190612e04565b60405180910390fd5b611deb60008383611af7565b5050565b6000604051905090565b600080fd5b600080fd5b60007fffffffff0000000000000000000000000000000000000000000000000000000082169050919050565b611e3881611e03565b8114611e4357600080fd5b50565b600081359050611e5581611e2f565b92915050565b600060208284031215611e7157611e70611df9565b5b6000611e7f84828501611e46565b91505092915050565b60008115159050919050565b611e9d81611e88565b82525050565b6000602082019050611eb86000830184611e94565b92915050565b600081519050919050565b600082825260208201905092915050565b60005b83811015611ef8578082015181840152602081019050611edd565b60008484015250505050565b6000601f19601f8301169050919050565b6000611f2082611ebe565b611f2a8185611ec9565b9350611f3a818560208601611eda565b611f4381611f04565b840191505092915050565b60006020820190508181036000830152611f688184611f15565b905092915050565b600073ffffffffffffffffffffffffffffffffffffffff82169050919050565b6000611f9b82611f70565b9050919050565b611fab81611f90565b8114611fb657600080fd5b50565b600081359050611fc881611fa2565b92915050565b6000819050919050565b611fe181611fce565b8114611fec57600080fd5b50565b600081359050611ffe81611fd8565b92915050565b6000806040838503121561201b5761201a611df9565b5b600061202985828601611fb9565b925050602061203a85828601611fef565b9150509250929050565b6000819050919050565b61205781612044565b811461206257600080fd5b50565b6000813590506120748161204e565b92915050565b6000806040838503121561209157612090611df9565b5b600061209f85828601612065565b92505060206120b085828601611fb9565b9150509250929050565b6120c381611fce565b82525050565b60006020820190506120de60008301846120ba565b92915050565b6000806000606084860312156120fd576120fc611df9565b5b600061210b86828701611fb9565b935050602061211c86828701611fb9565b925050604061212d86828701611fef565b9150509250925092565b60006020828403121561214d5761214c611df9565b5b600061215b84828501612065565b91505092915050565b61216d81612044565b82525050565b60006020820190506121886000830184612164565b92915050565b600060ff82169050919050565b6121a48161218e565b82525050565b60006020820190506121bf600083018461219b565b92915050565b600080fd5b600080fd5b7f4e487b7100000000000000000000000000000000000000000000000000000000600052604160045260246000fd5b61220782611f04565b810181811067ffffffffffffffff82111715612226576122256121cf565b5b80604052505050565b6000612239611def565b905061224582826121fe565b919050565b600067ffffffffffffffff821115612265576122646121cf565b5b61226e82611f04565b9050602081019050919050565b82818337600083830152505050565b600061229d6122988461224a565b61222f565b9050828152602081018484840111156122b9576122b86121ca565b5b6122c484828561227b565b509392505050565b600082601f8301126122e1576122e06121c5565b5b81356122f184826020860161228a565b91505092915050565b600063ffffffff82169050919050565b612313816122fa565b811461231e57600080fd5b50565b6000813590506123308161230a565b92915050565b6000806040838503121561234d5761234c611df9565b5b600083013567ffffffffffffffff81111561236b5761236a611dfe565b5b612377858286016122cc565b925050602061238885828601612321565b9150509250929050565b600067ffffffffffffffff8211156123ad576123ac6121cf565b5b602082029050602081019050919050565b600080fd5b60006123d66123d184612392565b61222f565b905080838252602082019050602084028301858111156123f9576123f86123be565b5b835b81811015612422578061240e8882611fb9565b8452602084019350506020810190506123fb565b5050509392505050565b600082601f830112612441576124406121c5565b5b81356124518482602086016123c3565b91505092915050565b6000806040838503121561247157612470611df9565b5b600083013567ffffffffffffffff81111561248f5761248e611dfe565b5b61249b8582860161242c565b925050602083013567ffffffffffffffff8111156124bc576124bb611dfe565b5b6124c8858286016122cc565b9150509250929050565b6000602082840312156124e8576124e7611df9565b5b600082013567ffffffffffffffff81111561250657612505611dfe565b5b612512848285016122cc565b91505092915050565b612524816122fa565b82525050565b600060208201905061253f600083018461251b565b92915050565b6000806040838503121561255c5761255b611df9565b5b600061256a85828601611fb9565b925050602083013567ffffffffffffffff81111561258b5761258a611dfe565b5b612597858286016122cc565b9150509250929050565b6000602082840312156125b7576125b6611df9565b5b60006125c584828501611fb9565b91505092915050565b600067ffffffffffffffff8211156125e9576125e86121cf565b5b602082029050602081019050919050565b600061260d612608846125ce565b61222f565b905080838252602082019050602084028301858111156126305761262f6123be565b5b835b8181101561267757803567ffffffffffffffff811115612655576126546121c5565b5b80860161266289826122cc565b85526020850194505050602081019050612632565b5050509392505050565b600082601f830112612696576126956121c5565b5b81356126a68482602086016125fa565b91505092915050565b6000602082840312156126c5576126c4611df9565b5b600082013567ffffffffffffffff8111156126e3576126e2611dfe565b5b6126ef84828501612681565b91505092915050565b600081519050919050565b600082825260208201905092915050565b6000819050602082019050919050565b600082825260208201905092915050565b600061274082611ebe565b61274a8185612724565b935061275a818560208601611eda565b61276381611f04565b840191505092915050565b600061277a8383612735565b905092915050565b6000602082019050919050565b600061279a826126f8565b6127a48185612703565b9350836020820285016127b685612714565b8060005b858110156127f257848403895281516127d3858261276e565b94506127de83612782565b925060208a019950506001810190506127ba565b50829750879550505050505092915050565b6000602082019050818103600083015261281e818461278f565b905092915050565b6000806040838503121561283d5761283c611df9565b5b600061284b85828601611fb9565b925050602061285c85828601611fb9565b9150509250929050565b7f4e487b7100000000000000000000000000000000000000000000000000000000600052602260045260246000fd5b600060028204905060018216806128ad57607f821691505b6020821081036128c0576128bf612866565b5b50919050565b7f4e487b7100000000000000000000000000000000000000000000000000000000600052601160045260246000fd5b6000612900826122fa565b915061290b836122fa565b9250828201905063ffffffff811115612927576129266128c6565b5b92915050565b600081519050919050565b6000819050602082019050919050565b60006129548251612044565b80915050919050565b600082821b905092915050565b60006129758261292d565b8261297f84612938565b905061298a81612948565b925060208210156129ca576129c57fffffffffffffffffffffffffffffffffffffffffffffffffffffffffffffffff8360200360080261295d565b831692505b5050919050565b7f4e6f20766f746572732070726f76696465640000000000000000000000000000600082015250565b6000612a07601283611ec9565b9150612a12826129d1565b602082019050919050565b60006020820190508181036000830152612a36816129fa565b9050919050565b7f54686520656c656374696f6e206973206f6e676f696e67000000000000000000600082015250565b6000612a73601783611ec9565b9150612a7e82612a3d565b602082019050919050565b60006020820190508181036000830152612aa281612a66565b9050919050565b7f4e487b7100000000000000000000000000000000000000000000000000000000600052603260045260246000fd5b6000612ae38261218e565b9150612aee8361218e565b9250828203905060ff811115612b0757612b066128c6565b5b92915050565b600061ffff82169050919050565b6000612b2682612b0d565b915061ffff8203612b3a57612b396128c6565b5b600182019050919050565b7f596f7520617265206e6f7420616c6c6f77656420746f20766f74650000000000600082015250565b6000612b7b601b83611ec9565b9150612b8682612b45565b602082019050919050565b60006020820190508181036000830152612baa81612b6e565b9050919050565b7f596f7520617265206e6f7420616c6c6f77656420746f207468697320656c656360008201527f74696f6e00000000000000000000000000000000000000000000000000000000602082015250565b6000612c0d602483611ec9565b9150612c1882612bb1565b604082019050919050565b60006020820190508181036000830152612c3c81612c00565b9050919050565b7f566f74696e6720706572696f642068617320656e646564000000000000000000600082015250565b6000612c79601783611ec9565b9150612c8482612c43565b602082019050919050565b60006020820190508181036000830152612ca881612c6c565b9050919050565b7f596f75206861766520616c726561647920766f74656420696e2074686973206560008201527f6c656374696f6e00000000000000000000000000000000000000000000000000602082015250565b6000612d0b602783611ec9565b9150612d1682612caf565b604082019050919050565b60006020820190508181036000830152612d3a81612cfe565b9050919050565b6000612d4c8261218e565b9150612d578361218e565b9250828201905060ff811115612d7057612d6f6128c6565b5b92915050565b6000612d8182611fce565b91507fffffffffffffffffffffffffffffffffffffffffffffffffffffffffffffffff8203612db357612db26128c6565b5b600182019050919050565b612dc781611f90565b82525050565b6000606082019050612de26000830186612dbe565b612def60208301856120ba565b612dfc60408301846120ba565b949350505050565b6000602082019050612e196000830184612dbe565b92915050565b6000612e2a82611fce565b9150612e3583611fce565b9250828201905080821115612e4d57612e4c6128c6565b5b92915050565b6000604082019050612e686000830185612dbe565b612e756020830184612164565b939250505056fea26469706673582212206215968db5d0750eab5f316c8e4079a10b7e77893da7b27028e617dbc584a52264736f6c63430008170033","opcodes":"PUSH1 0x80 PUSH1 0x40 MSTORE CALLVALUE DUP1 ISZERO PUSH3 0x11 JUMPI PUSH1 0x0 DUP1 REVERT JUMPDEST POP PUSH1 0x40 MLOAD PUSH3 0x3941 CODESIZE SUB DUP1 PUSH3 0x3941 DUP4 CODECOPY DUP2 DUP2 ADD PUSH1 0x40 MSTORE DUP2 ADD SWAP1 PUSH3 0x37 SWAP2 SWAP1 PUSH3 0x5B5 JUMP JUMPDEST PUSH1 0x40 MLOAD DUP1 PUSH1 0x40 ADD PUSH1 0x40 MSTORE DUP1 PUSH1 0x4 DUP2 MSTORE PUSH1 0x20 ADD PUSH32 0x566F746500000000000000000000000000000000000000000000000000000000 DUP2 MSTORE POP PUSH1 0x40 MLOAD DUP1 PUSH1 0x40 ADD PUSH1 0x40 MSTORE DUP1 PUSH1 0x2 DUP2 MSTORE PUSH1 0x20 ADD PUSH32 0x5654000000000000000000000000000000000000000000000000000000000000 DUP2 MSTORE POP DUP2 PUSH1 0x3 SWAP1 DUP2 PUSH3 0xB4 SWAP2 SWAP1 PUSH3 0x861 JUMP JUMPDEST POP DUP1 PUSH1 0x4 SWAP1 DUP2 PUSH3 0xC6 SWAP2 SWAP1 PUSH3 0x861 JUMP JUMPDEST POP POP POP PUSH3 0xDE PUSH1 0x0 DUP1 SHL CALLER PUSH3 0x13D PUSH1 0x20 SHL PUSH1 0x20 SHR JUMP JUMPDEST POP CALLER PUSH1 0x9 PUSH1 0x0 PUSH2 0x100 EXP DUP2 SLOAD DUP2 PUSH20 0xFFFFFFFFFFFFFFFFFFFFFFFFFFFFFFFFFFFFFFFF MUL NOT AND SWAP1 DUP4 PUSH20 0xFFFFFFFFFFFFFFFFFFFFFFFFFFFFFFFFFFFFFFFF AND MUL OR SWAP1 SSTORE POP PUSH3 0x136 CALLER DUP3 PUSH2 0xFFFF AND PUSH3 0x241 PUSH1 0x20 SHL PUSH1 0x20 SHR JUMP JUMPDEST POP PUSH3 0xA7F JUMP JUMPDEST PUSH1 0x0 PUSH3 0x151 DUP4 DUP4 PUSH3 0x2CE PUSH1 0x20 SHL PUSH1 0x20 SHR JUMP JUMPDEST PUSH3 0x236 JUMPI PUSH1 0x1 PUSH1 0x5 PUSH1 0x0 DUP6 DUP2 MSTORE PUSH1 0x20 ADD SWAP1 DUP2 MSTORE PUSH1 0x20 ADD PUSH1 0x0 KECCAK256 PUSH1 0x0 ADD PUSH1 0x0 DUP5 PUSH20 0xFFFFFFFFFFFFFFFFFFFFFFFFFFFFFFFFFFFFFFFF AND PUSH20 0xFFFFFFFFFFFFFFFFFFFFFFFFFFFFFFFFFFFFFFFF AND DUP2 MSTORE PUSH1 0x20 ADD SWAP1 DUP2 MSTORE PUSH1 0x20 ADD PUSH1 0x0 KECCAK256 PUSH1 0x0 PUSH2 0x100 EXP DUP2 SLOAD DUP2 PUSH1 0xFF MUL NOT AND SWAP1 DUP4 ISZERO ISZERO MUL OR SWAP1 SSTORE POP PUSH3 0x1D2 PUSH3 0x339 PUSH1 0x20 SHL PUSH1 0x20 SHR JUMP JUMPDEST PUSH20 0xFFFFFFFFFFFFFFFFFFFFFFFFFFFFFFFFFFFFFFFF AND DUP3 PUSH20 0xFFFFFFFFFFFFFFFFFFFFFFFFFFFFFFFFFFFFFFFF AND DUP5 PUSH32 0x2F8788117E7EFF1D82E926EC794901D17C78024A50270940304540A733656F0D PUSH1 0x40 MLOAD PUSH1 0x40 MLOAD DUP1 SWAP2 SUB SWAP1 LOG4 PUSH1 0x1 SWAP1 POP PUSH3 0x23B JUMP JUMPDEST PUSH1 0x0 SWAP1 POP JUMPDEST SWAP3 SWAP2 POP POP JUMP JUMPDEST PUSH1 0x0 PUSH20 0xFFFFFFFFFFFFFFFFFFFFFFFFFFFFFFFFFFFFFFFF AND DUP3 PUSH20 0xFFFFFFFFFFFFFFFFFFFFFFFFFFFFFFFFFFFFFFFF AND SUB PUSH3 0x2B6 JUMPI PUSH1 0x0 PUSH1 0x40 MLOAD PUSH32 0xEC442F0500000000000000000000000000000000000000000000000000000000 DUP2 MSTORE PUSH1 0x4 ADD PUSH3 0x2AD SWAP2 SWAP1 PUSH3 0x98D JUMP JUMPDEST PUSH1 0x40 MLOAD DUP1 SWAP2 SUB SWAP1 REVERT JUMPDEST PUSH3 0x2CA PUSH1 0x0 DUP4 DUP4 PUSH3 0x341 PUSH1 0x20 SHL PUSH1 0x20 SHR JUMP JUMPDEST POP POP JUMP JUMPDEST PUSH1 0x0 PUSH1 0x5 PUSH1 0x0 DUP5 DUP2 MSTORE PUSH1 0x20 ADD SWAP1 DUP2 MSTORE PUSH1 0x20 ADD PUSH1 0x0 KECCAK256 PUSH1 0x0 ADD PUSH1 0x0 DUP4 PUSH20 0xFFFFFFFFFFFFFFFFFFFFFFFFFFFFFFFFFFFFFFFF AND PUSH20 0xFFFFFFFFFFFFFFFFFFFFFFFFFFFFFFFFFFFFFFFF AND DUP2 MSTORE PUSH1 0x20 ADD SWAP1 DUP2 MSTORE PUSH1 0x20 ADD PUSH1 0x0 KECCAK256 PUSH1 0x0 SWAP1 SLOAD SWAP1 PUSH2 0x100 EXP SWAP1 DIV PUSH1 0xFF AND SWAP1 POP SWAP3 SWAP2 POP POP JUMP JUMPDEST PUSH1 0x0 CALLER SWAP1 POP SWAP1 JUMP JUMPDEST PUSH1 0x0 PUSH20 0xFFFFFFFFFFFFFFFFFFFFFFFFFFFFFFFFFFFFFFFF AND DUP4 PUSH20 0xFFFFFFFFFFFFFFFFFFFFFFFFFFFFFFFFFFFFFFFF AND SUB PUSH3 0x397 JUMPI DUP1 PUSH1 0x2 PUSH1 0x0 DUP3 DUP3 SLOAD PUSH3 0x38A SWAP2 SWAP1 PUSH3 0x9D9 JUMP JUMPDEST SWAP3 POP POP DUP2 SWAP1 SSTORE POP PUSH3 0x46D JUMP JUMPDEST PUSH1 0x0 DUP1 PUSH1 0x0 DUP6 PUSH20 0xFFFFFFFFFFFFFFFFFFFFFFFFFFFFFFFFFFFFFFFF AND PUSH20 0xFFFFFFFFFFFFFFFFFFFFFFFFFFFFFFFFFFFFFFFF AND DUP2 MSTORE PUSH1 0x20 ADD SWAP1 DUP2 MSTORE PUSH1 0x20 ADD PUSH1 0x0 KECCAK256 SLOAD SWAP1 POP DUP2 DUP2 LT ISZERO PUSH3 0x426 JUMPI DUP4 DUP2 DUP4 PUSH1 0x40 MLOAD PUSH32 0xE450D38C00000000000000000000000000000000000000000000000000000000 DUP2 MSTORE PUSH1 0x4 ADD PUSH3 0x41D SWAP4 SWAP3 SWAP2 SWAP1 PUSH3 0xA25 JUMP JUMPDEST PUSH1 0x40 MLOAD DUP1 SWAP2 SUB SWAP1 REVERT JUMPDEST DUP2 DUP2 SUB PUSH1 0x0 DUP1 DUP7 PUSH20 0xFFFFFFFFFFFFFFFFFFFFFFFFFFFFFFFFFFFFFFFF AND PUSH20 0xFFFFFFFFFFFFFFFFFFFFFFFFFFFFFFFFFFFFFFFF AND DUP2 MSTORE PUSH1 0x20 ADD SWAP1 DUP2 MSTORE PUSH1 0x20 ADD PUSH1 0x0 KECCAK256 DUP2 SWAP1 SSTORE POP POP JUMPDEST PUSH1 0x0 PUSH20 0xFFFFFFFFFFFFFFFFFFFFFFFFFFFFFFFFFFFFFFFF AND DUP3 PUSH20 0xFFFFFFFFFFFFFFFFFFFFFFFFFFFFFFFFFFFFFFFF AND SUB PUSH3 0x4B8 JUMPI DUP1 PUSH1 0x2 PUSH1 0x0 DUP3 DUP3 SLOAD SUB SWAP3 POP POP DUP2 SWAP1 SSTORE POP PUSH3 0x505 JUMP JUMPDEST DUP1 PUSH1 0x0 DUP1 DUP5 PUSH20 0xFFFFFFFFFFFFFFFFFFFFFFFFFFFFFFFFFFFFFFFF AND PUSH20 0xFFFFFFFFFFFFFFFFFFFFFFFFFFFFFFFFFFFFFFFF AND DUP2 MSTORE PUSH1 0x20 ADD SWAP1 DUP2 MSTORE PUSH1 0x20 ADD PUSH1 0x0 KECCAK256 PUSH1 0x0 DUP3 DUP3 SLOAD ADD SWAP3 POP POP DUP2 SWAP1 SSTORE POP JUMPDEST DUP2 PUSH20 0xFFFFFFFFFFFFFFFFFFFFFFFFFFFFFFFFFFFFFFFF AND DUP4 PUSH20 0xFFFFFFFFFFFFFFFFFFFFFFFFFFFFFFFFFFFFFFFF AND PUSH32 0xDDF252AD1BE2C89B69C2B068FC378DAA952BA7F163C4A11628F55A4DF523B3EF DUP4 PUSH1 0x40 MLOAD PUSH3 0x564 SWAP2 SWAP1 PUSH3 0xA62 JUMP JUMPDEST PUSH1 0x40 MLOAD DUP1 SWAP2 SUB SWAP1 LOG3 POP POP POP JUMP JUMPDEST PUSH1 0x0 DUP1 REVERT JUMPDEST PUSH1 0x0 PUSH2 0xFFFF DUP3 AND SWAP1 POP SWAP2 SWAP1 POP JUMP JUMPDEST PUSH3 0x58F DUP2 PUSH3 0x576 JUMP JUMPDEST DUP2 EQ PUSH3 0x59B JUMPI PUSH1 0x0 DUP1 REVERT JUMPDEST POP JUMP JUMPDEST PUSH1 0x0 DUP2 MLOAD SWAP1 POP PUSH3 0x5AF DUP2 PUSH3 0x584 JUMP JUMPDEST SWAP3 SWAP2 POP POP JUMP JUMPDEST PUSH1 0x0 PUSH1 0x20 DUP3 DUP5 SUB SLT ISZERO PUSH3 0x5CE JUMPI PUSH3 0x5CD PUSH3 0x571 JUMP JUMPDEST JUMPDEST PUSH1 0x0 PUSH3 0x5DE DUP5 DUP3 DUP6 ADD PUSH3 0x59E JUMP JUMPDEST SWAP2 POP POP SWAP3 SWAP2 POP POP JUMP JUMPDEST PUSH1 0x0 DUP2 MLOAD SWAP1 POP SWAP2 SWAP1 POP JUMP JUMPDEST PUSH32 0x4E487B7100000000000000000000000000000000000000000000000000000000 PUSH1 0x0 MSTORE PUSH1 0x41 PUSH1 0x4 MSTORE PUSH1 0x24 PUSH1 0x0 REVERT JUMPDEST PUSH32 0x4E487B7100000000000000000000000000000000000000000000000000000000 PUSH1 0x0 MSTORE PUSH1 0x22 PUSH1 0x4 MSTORE PUSH1 0x24 PUSH1 0x0 REVERT JUMPDEST PUSH1 0x0 PUSH1 0x2 DUP3 DIV SWAP1 POP PUSH1 0x1 DUP3 AND DUP1 PUSH3 0x669 JUMPI PUSH1 0x7F DUP3 AND SWAP2 POP JUMPDEST PUSH1 0x20 DUP3 LT DUP2 SUB PUSH3 0x67F JUMPI PUSH3 0x67E PUSH3 0x621 JUMP JUMPDEST JUMPDEST POP SWAP2 SWAP1 POP JUMP JUMPDEST PUSH1 0x0 DUP2 SWAP1 POP DUP2 PUSH1 0x0 MSTORE PUSH1 0x20 PUSH1 0x0 KECCAK256 SWAP1 POP SWAP2 SWAP1 POP JUMP JUMPDEST PUSH1 0x0 PUSH1 0x20 PUSH1 0x1F DUP4 ADD DIV SWAP1 POP SWAP2 SWAP1 POP JUMP JUMPDEST PUSH1 0x0 DUP3 DUP3 SHL SWAP1 POP SWAP3 SWAP2 POP POP JUMP JUMPDEST PUSH1 0x0 PUSH1 0x8 DUP4 MUL PUSH3 0x6E9 PUSH32 0xFFFFFFFFFFFFFFFFFFFFFFFFFFFFFFFFFFFFFFFFFFFFFFFFFFFFFFFFFFFFFFFF DUP3 PUSH3 0x6AA JUMP JUMPDEST PUSH3 0x6F5 DUP7 DUP4 PUSH3 0x6AA JUMP JUMPDEST SWAP6 POP DUP1 NOT DUP5 AND SWAP4 POP DUP1 DUP7 AND DUP5 OR SWAP3 POP POP POP SWAP4 SWAP3 POP POP POP JUMP JUMPDEST PUSH1 0x0 DUP2 SWAP1 POP SWAP2 SWAP1 POP JUMP JUMPDEST PUSH1 0x0 DUP2 SWAP1 POP SWAP2 SWAP1 POP JUMP JUMPDEST PUSH1 0x0 PUSH3 0x742 PUSH3 0x73C PUSH3 0x736 DUP5 PUSH3 0x70D JUMP JUMPDEST PUSH3 0x717 JUMP JUMPDEST PUSH3 0x70D JUMP JUMPDEST SWAP1 POP SWAP2 SWAP1 POP JUMP JUMPDEST PUSH1 0x0 DUP2 SWAP1 POP SWAP2 SWAP1 POP JUMP JUMPDEST PUSH3 0x75E DUP4 PUSH3 0x721 JUMP JUMPDEST PUSH3 0x776 PUSH3 0x76D DUP3 PUSH3 0x749 JUMP JUMPDEST DUP5 DUP5 SLOAD PUSH3 0x6B7 JUMP JUMPDEST DUP3 SSTORE POP POP POP POP JUMP JUMPDEST PUSH1 0x0 SWAP1 JUMP JUMPDEST PUSH3 0x78D PUSH3 0x77E JUMP JUMPDEST PUSH3 0x79A DUP2 DUP5 DUP5 PUSH3 0x753 JUMP JUMPDEST POP POP POP JUMP JUMPDEST JUMPDEST DUP2 DUP2 LT ISZERO PUSH3 0x7C2 JUMPI PUSH3 0x7B6 PUSH1 0x0 DUP3 PUSH3 0x783 JUMP JUMPDEST PUSH1 0x1 DUP2 ADD SWAP1 POP PUSH3 0x7A0 JUMP JUMPDEST POP POP JUMP JUMPDEST PUSH1 0x1F DUP3 GT ISZERO PUSH3 0x811 JUMPI PUSH3 0x7DB DUP2 PUSH3 0x685 JUMP JUMPDEST PUSH3 0x7E6 DUP5 PUSH3 0x69A JUMP JUMPDEST DUP2 ADD PUSH1 0x20 DUP6 LT ISZERO PUSH3 0x7F6 JUMPI DUP2 SWAP1 POP JUMPDEST PUSH3 0x80E PUSH3 0x805 DUP6 PUSH3 0x69A JUMP JUMPDEST DUP4 ADD DUP3 PUSH3 0x79F JUMP JUMPDEST POP POP JUMPDEST POP POP POP JUMP JUMPDEST PUSH1 0x0 DUP3 DUP3 SHR SWAP1 POP SWAP3 SWAP2 POP POP JUMP JUMPDEST PUSH1 0x0 PUSH3 0x836 PUSH1 0x0 NOT DUP5 PUSH1 0x8 MUL PUSH3 0x816 JUMP JUMPDEST NOT DUP1 DUP4 AND SWAP2 POP POP SWAP3 SWAP2 POP POP JUMP JUMPDEST PUSH1 0x0 PUSH3 0x851 DUP4 DUP4 PUSH3 0x823 JUMP JUMPDEST SWAP2 POP DUP3 PUSH1 0x2 MUL DUP3 OR SWAP1 POP SWAP3 SWAP2 POP POP JUMP JUMPDEST PUSH3 0x86C DUP3 PUSH3 0x5E7 JUMP JUMPDEST PUSH8 0xFFFFFFFFFFFFFFFF DUP2 GT ISZERO PUSH3 0x888 JUMPI PUSH3 0x887 PUSH3 0x5F2 JUMP JUMPDEST JUMPDEST PUSH3 0x894 DUP3 SLOAD PUSH3 0x650 JUMP JUMPDEST PUSH3 0x8A1 DUP3 DUP3 DUP6 PUSH3 0x7C6 JUMP JUMPDEST PUSH1 0x0 PUSH1 0x20 SWAP1 POP PUSH1 0x1F DUP4 GT PUSH1 0x1 DUP2 EQ PUSH3 0x8D9 JUMPI PUSH1 0x0 DUP5 ISZERO PUSH3 0x8C4 JUMPI DUP3 DUP8 ADD MLOAD SWAP1 POP JUMPDEST PUSH3 0x8D0 DUP6 DUP3 PUSH3 0x843 JUMP JUMPDEST DUP7 SSTORE POP PUSH3 0x940 JUMP JUMPDEST PUSH1 0x1F NOT DUP5 AND PUSH3 0x8E9 DUP7 PUSH3 0x685 JUMP JUMPDEST PUSH1 0x0 JUMPDEST DUP3 DUP2 LT ISZERO PUSH3 0x913 JUMPI DUP5 DUP10 ADD MLOAD DUP3 SSTORE PUSH1 0x1 DUP3 ADD SWAP2 POP PUSH1 0x20 DUP6 ADD SWAP5 POP PUSH1 0x20 DUP2 ADD SWAP1 POP PUSH3 0x8EC JUMP JUMPDEST DUP7 DUP4 LT ISZERO PUSH3 0x933 JUMPI DUP5 DUP10 ADD MLOAD PUSH3 0x92F PUSH1 0x1F DUP10 AND DUP3 PUSH3 0x823 JUMP JUMPDEST DUP4 SSTORE POP JUMPDEST PUSH1 0x1 PUSH1 0x2 DUP9 MUL ADD DUP9 SSTORE POP POP POP JUMPDEST POP POP POP POP POP POP JUMP JUMPDEST PUSH1 0x0 PUSH20 0xFFFFFFFFFFFFFFFFFFFFFFFFFFFFFFFFFFFFFFFF DUP3 AND SWAP1 POP SWAP2 SWAP1 POP JUMP JUMPDEST PUSH1 0x0 PUSH3 0x975 DUP3 PUSH3 0x948 JUMP JUMPDEST SWAP1 POP SWAP2 SWAP1 POP JUMP JUMPDEST PUSH3 0x987 DUP2 PUSH3 0x968 JUMP JUMPDEST DUP3 MSTORE POP POP JUMP JUMPDEST PUSH1 0x0 PUSH1 0x20 DUP3 ADD SWAP1 POP PUSH3 0x9A4 PUSH1 0x0 DUP4 ADD DUP5 PUSH3 0x97C JUMP JUMPDEST SWAP3 SWAP2 POP POP JUMP JUMPDEST PUSH32 0x4E487B7100000000000000000000000000000000000000000000000000000000 PUSH1 0x0 MSTORE PUSH1 0x11 PUSH1 0x4 MSTORE PUSH1 0x24 PUSH1 0x0 REVERT JUMPDEST PUSH1 0x0 PUSH3 0x9E6 DUP3 PUSH3 0x70D JUMP JUMPDEST SWAP2 POP PUSH3 0x9F3 DUP4 PUSH3 0x70D JUMP JUMPDEST SWAP3 POP DUP3 DUP3 ADD SWAP1 POP DUP1 DUP3 GT ISZERO PUSH3 0xA0E JUMPI PUSH3 0xA0D PUSH3 0x9AA JUMP JUMPDEST JUMPDEST SWAP3 SWAP2 POP POP JUMP JUMPDEST PUSH3 0xA1F DUP2 PUSH3 0x70D JUMP JUMPDEST DUP3 MSTORE POP POP JUMP JUMPDEST PUSH1 0x0 PUSH1 0x60 DUP3 ADD SWAP1 POP PUSH3 0xA3C PUSH1 0x0 DUP4 ADD DUP7 PUSH3 0x97C JUMP JUMPDEST PUSH3 0xA4B PUSH1 0x20 DUP4 ADD DUP6 PUSH3 0xA14 JUMP JUMPDEST PUSH3 0xA5A PUSH1 0x40 DUP4 ADD DUP5 PUSH3 0xA14 JUMP JUMPDEST SWAP5 SWAP4 POP POP POP POP JUMP JUMPDEST PUSH1 0x0 PUSH1 0x20 DUP3 ADD SWAP1 POP PUSH3 0xA79 PUSH1 0x0 DUP4 ADD DUP5 PUSH3 0xA14 JUMP JUMPDEST SWAP3 SWAP2 POP POP JUMP JUMPDEST PUSH2 0x2EB2 DUP1 PUSH3 0xA8F PUSH1 0x0 CODECOPY PUSH1 0x0 RETURN INVALID PUSH1 0x80 PUSH1 0x40 MSTORE CALLVALUE DUP1 ISZERO PUSH2 0x10 JUMPI PUSH1 0x0 DUP1 REVERT JUMPDEST POP PUSH1 0x4 CALLDATASIZE LT PUSH2 0x173 JUMPI PUSH1 0x0 CALLDATALOAD PUSH1 0xE0 SHR DUP1 PUSH4 0x42457973 GT PUSH2 0xDE JUMPI DUP1 PUSH4 0x95D89B41 GT PUSH2 0x97 JUMPI DUP1 PUSH4 0xBB5BE3B0 GT PUSH2 0x71 JUMPI DUP1 PUSH4 0xBB5BE3B0 EQ PUSH2 0x484 JUMPI DUP1 PUSH4 0xD547741F EQ PUSH2 0x4B4 JUMPI DUP1 PUSH4 0xD9A75572 EQ PUSH2 0x4D0 JUMPI DUP1 PUSH4 0xDD62ED3E EQ PUSH2 0x500 JUMPI PUSH2 0x173 JUMP JUMPDEST DUP1 PUSH4 0x95D89B41 EQ PUSH2 0x418 JUMPI DUP1 PUSH4 0xA217FDDF EQ PUSH2 0x436 JUMPI DUP1 PUSH4 0xA9059CBB EQ PUSH2 0x454 JUMPI PUSH2 0x173 JUMP JUMPDEST DUP1 PUSH4 0x42457973 EQ PUSH2 0x332 JUMPI DUP1 PUSH4 0x51AC9956 EQ PUSH2 0x362 JUMPI DUP1 PUSH4 0x70A08231 EQ PUSH2 0x37E JUMPI DUP1 PUSH4 0x85D07A7E EQ PUSH2 0x3AE JUMPI DUP1 PUSH4 0x91D14854 EQ PUSH2 0x3CA JUMPI DUP1 PUSH4 0x91DDADF4 EQ PUSH2 0x3FA JUMPI PUSH2 0x173 JUMP JUMPDEST DUP1 PUSH4 0x248A9CA3 GT PUSH2 0x130 JUMPI DUP1 PUSH4 0x248A9CA3 EQ PUSH2 0x274 JUMPI DUP1 PUSH4 0x2F2FF15D EQ PUSH2 0x2A4 JUMPI DUP1 PUSH4 0x313CE567 EQ PUSH2 0x2C0 JUMPI DUP1 PUSH4 0x36568ABE EQ PUSH2 0x2DE JUMPI DUP1 PUSH4 0x3CEF521E EQ PUSH2 0x2FA JUMPI DUP1 PUSH4 0x3FC447B2 EQ PUSH2 0x316 JUMPI PUSH2 0x173 JUMP JUMPDEST DUP1 PUSH4 0x1FFC9A7 EQ PUSH2 0x178 JUMPI DUP1 PUSH4 0x6FDDE03 EQ PUSH2 0x1A8 JUMPI DUP1 PUSH4 0x95EA7B3 EQ PUSH2 0x1C6 JUMPI DUP1 PUSH4 0xEBF1765 EQ PUSH2 0x1F6 JUMPI DUP1 PUSH4 0x18160DDD EQ PUSH2 0x226 JUMPI DUP1 PUSH4 0x23B872DD EQ PUSH2 0x244 JUMPI JUMPDEST PUSH1 0x0 DUP1 REVERT JUMPDEST PUSH2 0x192 PUSH1 0x4 DUP1 CALLDATASIZE SUB DUP2 ADD SWAP1 PUSH2 0x18D SWAP2 SWAP1 PUSH2 0x1E5B JUMP JUMPDEST PUSH2 0x530 JUMP JUMPDEST PUSH1 0x40 MLOAD PUSH2 0x19F SWAP2 SWAP1 PUSH2 0x1EA3 JUMP JUMPDEST PUSH1 0x40 MLOAD DUP1 SWAP2 SUB SWAP1 RETURN JUMPDEST PUSH2 0x1B0 PUSH2 0x5AA JUMP JUMPDEST PUSH1 0x40 MLOAD PUSH2 0x1BD SWAP2 SWAP1 PUSH2 0x1F4E JUMP JUMPDEST PUSH1 0x40 MLOAD DUP1 SWAP2 SUB SWAP1 RETURN JUMPDEST PUSH2 0x1E0 PUSH1 0x4 DUP1 CALLDATASIZE SUB DUP2 ADD SWAP1 PUSH2 0x1DB SWAP2 SWAP1 PUSH2 0x2004 JUMP JUMPDEST PUSH2 0x63C JUMP JUMPDEST PUSH1 0x40 MLOAD PUSH2 0x1ED SWAP2 SWAP1 PUSH2 0x1EA3 JUMP JUMPDEST PUSH1 0x40 MLOAD DUP1 SWAP2 SUB SWAP1 RETURN JUMPDEST PUSH2 0x210 PUSH1 0x4 DUP1 CALLDATASIZE SUB DUP2 ADD SWAP1 PUSH2 0x20B SWAP2 SWAP1 PUSH2 0x207A JUMP JUMPDEST PUSH2 0x65F JUMP JUMPDEST PUSH1 0x40 MLOAD PUSH2 0x21D SWAP2 SWAP1 PUSH2 0x1EA3 JUMP JUMPDEST PUSH1 0x40 MLOAD DUP1 SWAP2 SUB SWAP1 RETURN JUMPDEST PUSH2 0x22E PUSH2 0x68E JUMP JUMPDEST PUSH1 0x40 MLOAD PUSH2 0x23B SWAP2 SWAP1 PUSH2 0x20C9 JUMP JUMPDEST PUSH1 0x40 MLOAD DUP1 SWAP2 SUB SWAP1 RETURN JUMPDEST PUSH2 0x25E PUSH1 0x4 DUP1 CALLDATASIZE SUB DUP2 ADD SWAP1 PUSH2 0x259 SWAP2 SWAP1 PUSH2 0x20E4 JUMP JUMPDEST PUSH2 0x698 JUMP JUMPDEST PUSH1 0x40 MLOAD PUSH2 0x26B SWAP2 SWAP1 PUSH2 0x1EA3 JUMP JUMPDEST PUSH1 0x40 MLOAD DUP1 SWAP2 SUB SWAP1 RETURN JUMPDEST PUSH2 0x28E PUSH1 0x4 DUP1 CALLDATASIZE SUB DUP2 ADD SWAP1 PUSH2 0x289 SWAP2 SWAP1 PUSH2 0x2137 JUMP JUMPDEST PUSH2 0x6C7 JUMP JUMPDEST PUSH1 0x40 MLOAD PUSH2 0x29B SWAP2 SWAP1 PUSH2 0x2173 JUMP JUMPDEST PUSH1 0x40 MLOAD DUP1 SWAP2 SUB SWAP1 RETURN JUMPDEST PUSH2 0x2BE PUSH1 0x4 DUP1 CALLDATASIZE SUB DUP2 ADD SWAP1 PUSH2 0x2B9 SWAP2 SWAP1 PUSH2 0x207A JUMP JUMPDEST PUSH2 0x6E7 JUMP JUMPDEST STOP JUMPDEST PUSH2 0x2C8 PUSH2 0x709 JUMP JUMPDEST PUSH1 0x40 MLOAD PUSH2 0x2D5 SWAP2 SWAP1 PUSH2 0x21AA JUMP JUMPDEST PUSH1 0x40 MLOAD DUP1 SWAP2 SUB SWAP1 RETURN JUMPDEST PUSH2 0x2F8 PUSH1 0x4 DUP1 CALLDATASIZE SUB DUP2 ADD SWAP1 PUSH2 0x2F3 SWAP2 SWAP1 PUSH2 0x207A JUMP JUMPDEST PUSH2 0x712 JUMP JUMPDEST STOP JUMPDEST PUSH2 0x314 PUSH1 0x4 DUP1 CALLDATASIZE SUB DUP2 ADD SWAP1 PUSH2 0x30F SWAP2 SWAP1 PUSH2 0x2336 JUMP JUMPDEST PUSH2 0x78D JUMP JUMPDEST STOP JUMPDEST PUSH2 0x330 PUSH1 0x4 DUP1 CALLDATASIZE SUB DUP2 ADD SWAP1 PUSH2 0x32B SWAP2 SWAP1 PUSH2 0x245A JUMP JUMPDEST PUSH2 0x7EC JUMP JUMPDEST STOP JUMPDEST PUSH2 0x34C PUSH1 0x4 DUP1 CALLDATASIZE SUB DUP2 ADD SWAP1 PUSH2 0x347 SWAP2 SWAP1 PUSH2 0x24D2 JUMP JUMPDEST PUSH2 0xB08 JUMP JUMPDEST PUSH1 0x40 MLOAD PUSH2 0x359 SWAP2 SWAP1 PUSH2 0x252A JUMP JUMPDEST PUSH1 0x40 MLOAD DUP1 SWAP2 SUB SWAP1 RETURN JUMPDEST PUSH2 0x37C PUSH1 0x4 DUP1 CALLDATASIZE SUB DUP2 ADD SWAP1 PUSH2 0x377 SWAP2 SWAP1 PUSH2 0x2545 JUMP JUMPDEST PUSH2 0xB3E JUMP JUMPDEST STOP JUMPDEST PUSH2 0x398 PUSH1 0x4 DUP1 CALLDATASIZE SUB DUP2 ADD SWAP1 PUSH2 0x393 SWAP2 SWAP1 PUSH2 0x25A1 JUMP JUMPDEST PUSH2 0xE5C JUMP JUMPDEST PUSH1 0x40 MLOAD PUSH2 0x3A5 SWAP2 SWAP1 PUSH2 0x20C9 JUMP JUMPDEST PUSH1 0x40 MLOAD DUP1 SWAP2 SUB SWAP1 RETURN JUMPDEST PUSH2 0x3C8 PUSH1 0x4 DUP1 CALLDATASIZE SUB DUP2 ADD SWAP1 PUSH2 0x3C3 SWAP2 SWAP1 PUSH2 0x245A JUMP JUMPDEST PUSH2 0xEA4 JUMP JUMPDEST STOP JUMPDEST PUSH2 0x3E4 PUSH1 0x4 DUP1 CALLDATASIZE SUB DUP2 ADD SWAP1 PUSH2 0x3DF SWAP2 SWAP1 PUSH2 0x207A JUMP JUMPDEST PUSH2 0x1144 JUMP JUMPDEST PUSH1 0x40 MLOAD PUSH2 0x3F1 SWAP2 SWAP1 PUSH2 0x1EA3 JUMP JUMPDEST PUSH1 0x40 MLOAD DUP1 SWAP2 SUB SWAP1 RETURN JUMPDEST PUSH2 0x402 PUSH2 0x11AF JUMP JUMPDEST PUSH1 0x40 MLOAD PUSH2 0x40F SWAP2 SWAP1 PUSH2 0x252A JUMP JUMPDEST PUSH1 0x40 MLOAD DUP1 SWAP2 SUB SWAP1 RETURN JUMPDEST PUSH2 0x420 PUSH2 0x11B7 JUMP JUMPDEST PUSH1 0x40 MLOAD PUSH2 0x42D SWAP2 SWAP1 PUSH2 0x1F4E JUMP JUMPDEST PUSH1 0x40 MLOAD DUP1 SWAP2 SUB SWAP1 RETURN JUMPDEST PUSH2 0x43E PUSH2 0x1249 JUMP JUMPDEST PUSH1 0x40 MLOAD PUSH2 0x44B SWAP2 SWAP1 PUSH2 0x2173 JUMP JUMPDEST PUSH1 0x40 MLOAD DUP1 SWAP2 SUB SWAP1 RETURN JUMPDEST PUSH2 0x46E PUSH1 0x4 DUP1 CALLDATASIZE SUB DUP2 ADD SWAP1 PUSH2 0x469 SWAP2 SWAP1 PUSH2 0x2004 JUMP JUMPDEST PUSH2 0x1250 JUMP JUMPDEST PUSH1 0x40 MLOAD PUSH2 0x47B SWAP2 SWAP1 PUSH2 0x1EA3 JUMP JUMPDEST PUSH1 0x40 MLOAD DUP1 SWAP2 SUB SWAP1 RETURN JUMPDEST PUSH2 0x49E PUSH1 0x4 DUP1 CALLDATASIZE SUB DUP2 ADD SWAP1 PUSH2 0x499 SWAP2 SWAP1 PUSH2 0x26AF JUMP JUMPDEST PUSH2 0x1273 JUMP JUMPDEST PUSH1 0x40 MLOAD PUSH2 0x4AB SWAP2 SWAP1 PUSH2 0x2804 JUMP JUMPDEST PUSH1 0x40 MLOAD DUP1 SWAP2 SUB SWAP1 RETURN JUMPDEST PUSH2 0x4CE PUSH1 0x4 DUP1 CALLDATASIZE SUB DUP2 ADD SWAP1 PUSH2 0x4C9 SWAP2 SWAP1 PUSH2 0x207A JUMP JUMPDEST PUSH2 0x1413 JUMP JUMPDEST STOP JUMPDEST PUSH2 0x4EA PUSH1 0x4 DUP1 CALLDATASIZE SUB DUP2 ADD SWAP1 PUSH2 0x4E5 SWAP2 SWAP1 PUSH2 0x207A JUMP JUMPDEST PUSH2 0x1435 JUMP JUMPDEST PUSH1 0x40 MLOAD PUSH2 0x4F7 SWAP2 SWAP1 PUSH2 0x1EA3 JUMP JUMPDEST PUSH1 0x40 MLOAD DUP1 SWAP2 SUB SWAP1 RETURN JUMPDEST PUSH2 0x51A PUSH1 0x4 DUP1 CALLDATASIZE SUB DUP2 ADD SWAP1 PUSH2 0x515 SWAP2 SWAP1 PUSH2 0x2826 JUMP JUMPDEST PUSH2 0x1464 JUMP JUMPDEST PUSH1 0x40 MLOAD PUSH2 0x527 SWAP2 SWAP1 PUSH2 0x20C9 JUMP JUMPDEST PUSH1 0x40 MLOAD DUP1 SWAP2 SUB SWAP1 RETURN JUMPDEST PUSH1 0x0 PUSH32 0x7965DB0B00000000000000000000000000000000000000000000000000000000 PUSH28 0xFFFFFFFFFFFFFFFFFFFFFFFFFFFFFFFFFFFFFFFFFFFFFFFFFFFFFFFF NOT AND DUP3 PUSH28 0xFFFFFFFFFFFFFFFFFFFFFFFFFFFFFFFFFFFFFFFFFFFFFFFFFFFFFFFF NOT AND EQ DUP1 PUSH2 0x5A3 JUMPI POP PUSH2 0x5A2 DUP3 PUSH2 0x14EB JUMP JUMPDEST JUMPDEST SWAP1 POP SWAP2 SWAP1 POP JUMP JUMPDEST PUSH1 0x60 PUSH1 0x3 DUP1 SLOAD PUSH2 0x5B9 SWAP1 PUSH2 0x2895 JUMP JUMPDEST DUP1 PUSH1 0x1F ADD PUSH1 0x20 DUP1 SWAP2 DIV MUL PUSH1 0x20 ADD PUSH1 0x40 MLOAD SWAP1 DUP2 ADD PUSH1 0x40 MSTORE DUP1 SWAP3 SWAP2 SWAP1 DUP2 DUP2 MSTORE PUSH1 0x20 ADD DUP3 DUP1 SLOAD PUSH2 0x5E5 SWAP1 PUSH2 0x2895 JUMP JUMPDEST DUP1 ISZERO PUSH2 0x632 JUMPI DUP1 PUSH1 0x1F LT PUSH2 0x607 JUMPI PUSH2 0x100 DUP1 DUP4 SLOAD DIV MUL DUP4 MSTORE SWAP2 PUSH1 0x20 ADD SWAP2 PUSH2 0x632 JUMP JUMPDEST DUP3 ADD SWAP2 SWAP1 PUSH1 0x0 MSTORE PUSH1 0x20 PUSH1 0x0 KECCAK256 SWAP1 JUMPDEST DUP2 SLOAD DUP2 MSTORE SWAP1 PUSH1 0x1 ADD SWAP1 PUSH1 0x20 ADD DUP1 DUP4 GT PUSH2 0x615 JUMPI DUP3 SWAP1 SUB PUSH1 0x1F AND DUP3 ADD SWAP2 JUMPDEST POP POP POP POP POP SWAP1 POP SWAP1 JUMP JUMPDEST PUSH1 0x0 DUP1 PUSH2 0x647 PUSH2 0x1555 JUMP JUMPDEST SWAP1 POP PUSH2 0x654 DUP2 DUP6 DUP6 PUSH2 0x155D JUMP JUMPDEST PUSH1 0x1 SWAP2 POP POP SWAP3 SWAP2 POP POP JUMP JUMPDEST PUSH1 0x8 PUSH1 0x20 MSTORE DUP2 PUSH1 0x0 MSTORE PUSH1 0x40 PUSH1 0x0 KECCAK256 PUSH1 0x20 MSTORE DUP1 PUSH1 0x0 MSTORE PUSH1 0x40 PUSH1 0x0 KECCAK256 PUSH1 0x0 SWAP2 POP SWAP2 POP SWAP1 SLOAD SWAP1 PUSH2 0x100 EXP SWAP1 DIV PUSH1 0xFF AND DUP2 JUMP JUMPDEST PUSH1 0x0 PUSH1 0x2 SLOAD SWAP1 POP SWAP1 JUMP JUMPDEST PUSH1 0x0 DUP1 PUSH2 0x6A3 PUSH2 0x1555 JUMP JUMPDEST SWAP1 POP PUSH2 0x6B0 DUP6 DUP3 DUP6 PUSH2 0x156F JUMP JUMPDEST PUSH2 0x6BB DUP6 DUP6 DUP6 PUSH2 0x1604 JUMP JUMPDEST PUSH1 0x1 SWAP2 POP POP SWAP4 SWAP3 POP POP POP JUMP JUMPDEST PUSH1 0x0 PUSH1 0x5 PUSH1 0x0 DUP4 DUP2 MSTORE PUSH1 0x20 ADD SWAP1 DUP2 MSTORE PUSH1 0x20 ADD PUSH1 0x0 KECCAK256 PUSH1 0x1 ADD SLOAD SWAP1 POP SWAP2 SWAP1 POP JUMP JUMPDEST PUSH2 0x6F0 DUP3 PUSH2 0x6C7 JUMP JUMPDEST PUSH2 0x6F9 DUP2 PUSH2 0x16F8 JUMP JUMPDEST PUSH2 0x703 DUP4 DUP4 PUSH2 0x170C JUMP JUMPDEST POP POP POP POP JUMP JUMPDEST PUSH1 0x0 PUSH1 0x12 SWAP1 POP SWAP1 JUMP JUMPDEST PUSH2 0x71A PUSH2 0x1555 JUMP JUMPDEST PUSH20 0xFFFFFFFFFFFFFFFFFFFFFFFFFFFFFFFFFFFFFFFF AND DUP2 PUSH20 0xFFFFFFFFFFFFFFFFFFFFFFFFFFFFFFFFFFFFFFFF AND EQ PUSH2 0x77E JUMPI PUSH1 0x40 MLOAD PUSH32 0x6697B23200000000000000000000000000000000000000000000000000000000 DUP2 MSTORE PUSH1 0x4 ADD PUSH1 0x40 MLOAD DUP1 SWAP2 SUB SWAP1 REVERT JUMPDEST PUSH2 0x788 DUP3 DUP3 PUSH2 0x17FE JUMP JUMPDEST POP POP POP JUMP JUMPDEST PUSH1 0x0 DUP1 SHL PUSH2 0x79A DUP2 PUSH2 0x16F8 JUMP JUMPDEST DUP2 PUSH2 0x7A3 PUSH2 0x11AF JUMP JUMPDEST PUSH2 0x7AD SWAP2 SWAP1 PUSH2 0x28F5 JUMP JUMPDEST PUSH1 0x6 PUSH1 0x0 DUP6 PUSH2 0x7BB SWAP1 PUSH2 0x296A JUMP JUMPDEST DUP2 MSTORE PUSH1 0x20 ADD SWAP1 DUP2 MSTORE PUSH1 0x20 ADD PUSH1 0x0 KECCAK256 PUSH1 0x0 PUSH2 0x100 EXP DUP2 SLOAD DUP2 PUSH4 0xFFFFFFFF MUL NOT AND SWAP1 DUP4 PUSH4 0xFFFFFFFF AND MUL OR SWAP1 SSTORE POP POP POP POP JUMP JUMPDEST PUSH1 0x0 DUP1 SHL PUSH2 0x7F9 DUP2 PUSH2 0x16F8 JUMP JUMPDEST PUSH1 0x0 DUP4 MLOAD GT PUSH2 0x83D JUMPI PUSH1 0x40 MLOAD PUSH32 0x8C379A000000000000000000000000000000000000000000000000000000000 DUP2 MSTORE PUSH1 0x4 ADD PUSH2 0x834 SWAP1 PUSH2 0x2A1D JUMP JUMPDEST PUSH1 0x40 MLOAD DUP1 SWAP2 SUB SWAP1 REVERT JUMPDEST PUSH1 0x6 PUSH1 0x0 DUP4 PUSH2 0x84B SWAP1 PUSH2 0x296A JUMP JUMPDEST DUP2 MSTORE PUSH1 0x20 ADD SWAP1 DUP2 MSTORE PUSH1 0x20 ADD PUSH1 0x0 KECCAK256 PUSH1 0x0 SWAP1 SLOAD SWAP1 PUSH2 0x100 EXP SWAP1 DIV PUSH4 0xFFFFFFFF AND PUSH4 0xFFFFFFFF AND PUSH2 0x878 PUSH2 0x11AF JUMP JUMPDEST PUSH4 0xFFFFFFFF AND GT PUSH2 0x8BE JUMPI PUSH1 0x40 MLOAD PUSH32 0x8C379A000000000000000000000000000000000000000000000000000000000 DUP2 MSTORE PUSH1 0x4 ADD PUSH2 0x8B5 SWAP1 PUSH2 0x2A89 JUMP JUMPDEST PUSH1 0x40 MLOAD DUP1 SWAP2 SUB SWAP1 REVERT JUMPDEST PUSH1 0x0 JUMPDEST DUP4 MLOAD DUP2 PUSH2 0xFFFF AND LT ISZERO PUSH2 0xB02 JUMPI PUSH1 0x7 PUSH1 0x0 DUP5 PUSH2 0x8DC SWAP1 PUSH2 0x296A JUMP JUMPDEST DUP2 MSTORE PUSH1 0x20 ADD SWAP1 DUP2 MSTORE PUSH1 0x20 ADD PUSH1 0x0 KECCAK256 PUSH1 0x0 DUP6 DUP4 PUSH2 0xFFFF AND DUP2 MLOAD DUP2 LT PUSH2 0x903 JUMPI PUSH2 0x902 PUSH2 0x2AA9 JUMP JUMPDEST JUMPDEST PUSH1 0x20 MUL PUSH1 0x20 ADD ADD MLOAD PUSH20 0xFFFFFFFFFFFFFFFFFFFFFFFFFFFFFFFFFFFFFFFF AND PUSH20 0xFFFFFFFFFFFFFFFFFFFFFFFFFFFFFFFFFFFFFFFF AND DUP2 MSTORE PUSH1 0x20 ADD SWAP1 DUP2 MSTORE PUSH1 0x20 ADD PUSH1 0x0 KECCAK256 PUSH1 0x0 SWAP1 SLOAD SWAP1 PUSH2 0x100 EXP SWAP1 DIV PUSH1 0xFF AND PUSH2 0xAEF JUMPI PUSH1 0x0 PUSH1 0x8 PUSH1 0x0 DUP6 PUSH2 0x967 SWAP1 PUSH2 0x296A JUMP JUMPDEST DUP2 MSTORE PUSH1 0x20 ADD SWAP1 DUP2 MSTORE PUSH1 0x20 ADD PUSH1 0x0 KECCAK256 PUSH1 0x0 DUP7 DUP5 PUSH2 0xFFFF AND DUP2 MLOAD DUP2 LT PUSH2 0x98E JUMPI PUSH2 0x98D PUSH2 0x2AA9 JUMP JUMPDEST JUMPDEST PUSH1 0x20 MUL PUSH1 0x20 ADD ADD MLOAD PUSH20 0xFFFFFFFFFFFFFFFFFFFFFFFFFFFFFFFFFFFFFFFF AND PUSH20 0xFFFFFFFFFFFFFFFFFFFFFFFFFFFFFFFFFFFFFFFF AND DUP2 MSTORE PUSH1 0x20 ADD SWAP1 DUP2 MSTORE PUSH1 0x20 ADD PUSH1 0x0 KECCAK256 PUSH1 0x0 PUSH2 0x100 EXP DUP2 SLOAD DUP2 PUSH1 0xFF MUL NOT AND SWAP1 DUP4 ISZERO ISZERO MUL OR SWAP1 SSTORE POP PUSH1 0x0 PUSH2 0xA33 PUSH1 0x9 PUSH1 0x0 SWAP1 SLOAD SWAP1 PUSH2 0x100 EXP SWAP1 DIV PUSH20 0xFFFFFFFFFFFFFFFFFFFFFFFFFFFFFFFFFFFFFFFF AND DUP7 DUP5 PUSH2 0xFFFF AND DUP2 MLOAD DUP2 LT PUSH2 0xA26 JUMPI PUSH2 0xA25 PUSH2 0x2AA9 JUMP JUMPDEST JUMPDEST PUSH1 0x20 MUL PUSH1 0x20 ADD ADD MLOAD PUSH2 0x1464 JUMP JUMPDEST SWAP1 POP PUSH1 0x1 DUP2 PUSH1 0xFF AND GT ISZERO PUSH2 0xAA0 JUMPI PUSH2 0xA9B PUSH1 0x9 PUSH1 0x0 SWAP1 SLOAD SWAP1 PUSH2 0x100 EXP SWAP1 DIV PUSH20 0xFFFFFFFFFFFFFFFFFFFFFFFFFFFFFFFFFFFFFFFF AND DUP7 DUP5 PUSH2 0xFFFF AND DUP2 MLOAD DUP2 LT PUSH2 0xA7E JUMPI PUSH2 0xA7D PUSH2 0x2AA9 JUMP JUMPDEST JUMPDEST PUSH1 0x20 MUL PUSH1 0x20 ADD ADD MLOAD PUSH1 0x1 DUP5 PUSH2 0xA93 SWAP2 SWAP1 PUSH2 0x2AD8 JUMP JUMPDEST PUSH1 0xFF AND PUSH2 0x155D JUMP JUMPDEST PUSH2 0xAED JUMP JUMPDEST PUSH2 0xAEC PUSH1 0x9 PUSH1 0x0 SWAP1 SLOAD SWAP1 PUSH2 0x100 EXP SWAP1 DIV PUSH20 0xFFFFFFFFFFFFFFFFFFFFFFFFFFFFFFFFFFFFFFFF AND DUP7 DUP5 PUSH2 0xFFFF AND DUP2 MLOAD DUP2 LT PUSH2 0xADD JUMPI PUSH2 0xADC PUSH2 0x2AA9 JUMP JUMPDEST JUMPDEST PUSH1 0x20 MUL PUSH1 0x20 ADD ADD MLOAD PUSH1 0x0 PUSH2 0x155D JUMP JUMPDEST JUMPDEST POP JUMPDEST DUP1 DUP1 PUSH2 0xAFA SWAP1 PUSH2 0x2B1B JUMP JUMPDEST SWAP2 POP POP PUSH2 0x8C1 JUMP JUMPDEST POP POP POP POP JUMP JUMPDEST PUSH1 0x0 PUSH1 0x6 PUSH1 0x0 DUP4 PUSH2 0xB18 SWAP1 PUSH2 0x296A JUMP JUMPDEST DUP2 MSTORE PUSH1 0x20 ADD SWAP1 DUP2 MSTORE PUSH1 0x20 ADD PUSH1 0x0 KECCAK256 PUSH1 0x0 SWAP1 SLOAD SWAP1 PUSH2 0x100 EXP SWAP1 DIV PUSH4 0xFFFFFFFF AND SWAP1 POP SWAP2 SWAP1 POP JUMP JUMPDEST PUSH1 0x1 PUSH2 0xB6C PUSH1 0x9 PUSH1 0x0 SWAP1 SLOAD SWAP1 PUSH2 0x100 EXP SWAP1 DIV PUSH20 0xFFFFFFFFFFFFFFFFFFFFFFFFFFFFFFFFFFFFFFFF AND CALLER PUSH2 0x1464 JUMP JUMPDEST LT ISZERO PUSH2 0xBAD JUMPI PUSH1 0x40 MLOAD PUSH32 0x8C379A000000000000000000000000000000000000000000000000000000000 DUP2 MSTORE PUSH1 0x4 ADD PUSH2 0xBA4 SWAP1 PUSH2 0x2B91 JUMP JUMPDEST PUSH1 0x40 MLOAD DUP1 SWAP2 SUB SWAP1 REVERT JUMPDEST PUSH1 0x8 PUSH1 0x0 DUP3 PUSH2 0xBBB SWAP1 PUSH2 0x296A JUMP JUMPDEST DUP2 MSTORE PUSH1 0x20 ADD SWAP1 DUP2 MSTORE PUSH1 0x20 ADD PUSH1 0x0 KECCAK256 PUSH1 0x0 CALLER PUSH20 0xFFFFFFFFFFFFFFFFFFFFFFFFFFFFFFFFFFFFFFFF AND PUSH20 0xFFFFFFFFFFFFFFFFFFFFFFFFFFFFFFFFFFFFFFFF AND DUP2 MSTORE PUSH1 0x20 ADD SWAP1 DUP2 MSTORE PUSH1 0x20 ADD PUSH1 0x0 KECCAK256 PUSH1 0x0 SWAP1 SLOAD SWAP1 PUSH2 0x100 EXP SWAP1 DIV PUSH1 0xFF AND PUSH2 0xC53 JUMPI PUSH1 0x40 MLOAD PUSH32 0x8C379A000000000000000000000000000000000000000000000000000000000 DUP2 MSTORE PUSH1 0x4 ADD PUSH2 0xC4A SWAP1 PUSH2 0x2C23 JUMP JUMPDEST PUSH1 0x40 MLOAD DUP1 SWAP2 SUB SWAP1 REVERT JUMPDEST PUSH1 0x6 PUSH1 0x0 DUP3 PUSH2 0xC61 SWAP1 PUSH2 0x296A JUMP JUMPDEST DUP2 MSTORE PUSH1 0x20 ADD SWAP1 DUP2 MSTORE PUSH1 0x20 ADD PUSH1 0x0 KECCAK256 PUSH1 0x0 SWAP1 SLOAD SWAP1 PUSH2 0x100 EXP SWAP1 DIV PUSH4 0xFFFFFFFF AND PUSH4 0xFFFFFFFF AND PUSH2 0xC8E PUSH2 0x11AF JUMP JUMPDEST PUSH4 0xFFFFFFFF AND LT PUSH2 0xCD4 JUMPI PUSH1 0x40 MLOAD PUSH32 0x8C379A000000000000000000000000000000000000000000000000000000000 DUP2 MSTORE PUSH1 0x4 ADD PUSH2 0xCCB SWAP1 PUSH2 0x2C8F JUMP JUMPDEST PUSH1 0x40 MLOAD DUP1 SWAP2 SUB SWAP1 REVERT JUMPDEST PUSH1 0x7 PUSH1 0x0 DUP3 PUSH2 0xCE2 SWAP1 PUSH2 0x296A JUMP JUMPDEST DUP2 MSTORE PUSH1 0x20 ADD SWAP1 DUP2 MSTORE PUSH1 0x20 ADD PUSH1 0x0 KECCAK256 PUSH1 0x0 CALLER PUSH20 0xFFFFFFFFFFFFFFFFFFFFFFFFFFFFFFFFFFFFFFFF AND PUSH20 0xFFFFFFFFFFFFFFFFFFFFFFFFFFFFFFFFFFFFFFFF AND DUP2 MSTORE PUSH1 0x20 ADD SWAP1 DUP2 MSTORE PUSH1 0x20 ADD PUSH1 0x0 KECCAK256 PUSH1 0x0 SWAP1 SLOAD SWAP1 PUSH2 0x100 EXP SWAP1 DIV PUSH1 0xFF AND ISZERO PUSH2 0xD7B JUMPI PUSH1 0x40 MLOAD PUSH32 0x8C379A000000000000000000000000000000000000000000000000000000000 DUP2 MSTORE PUSH1 0x4 ADD PUSH2 0xD72 SWAP1 PUSH2 0x2D21 JUMP JUMPDEST PUSH1 0x40 MLOAD DUP1 SWAP2 SUB SWAP1 REVERT JUMPDEST PUSH1 0x1 PUSH2 0xDA8 PUSH1 0x9 PUSH1 0x0 SWAP1 SLOAD SWAP1 PUSH2 0x100 EXP SWAP1 DIV PUSH20 0xFFFFFFFFFFFFFFFFFFFFFFFFFFFFFFFFFFFFFFFF AND PUSH2 0xE5C JUMP JUMPDEST LT ISZERO PUSH2 0xDB7 JUMPI PUSH2 0xDB6 PUSH2 0x18F1 JUMP JUMPDEST JUMPDEST PUSH2 0xDE5 PUSH1 0x9 PUSH1 0x0 SWAP1 SLOAD SWAP1 PUSH2 0x100 EXP SWAP1 DIV PUSH20 0xFFFFFFFFFFFFFFFFFFFFFFFFFFFFFFFFFFFFFFFF AND DUP4 PUSH1 0x1 PUSH2 0x698 JUMP JUMPDEST POP PUSH1 0x1 PUSH1 0x7 PUSH1 0x0 DUP4 PUSH2 0xDF6 SWAP1 PUSH2 0x296A JUMP JUMPDEST DUP2 MSTORE PUSH1 0x20 ADD SWAP1 DUP2 MSTORE PUSH1 0x20 ADD PUSH1 0x0 KECCAK256 PUSH1 0x0 CALLER PUSH20 0xFFFFFFFFFFFFFFFFFFFFFFFFFFFFFFFFFFFFFFFF AND PUSH20 0xFFFFFFFFFFFFFFFFFFFFFFFFFFFFFFFFFFFFFFFF AND DUP2 MSTORE PUSH1 0x20 ADD SWAP1 DUP2 MSTORE PUSH1 0x20 ADD PUSH1 0x0 KECCAK256 PUSH1 0x0 PUSH2 0x100 EXP DUP2 SLOAD DUP2 PUSH1 0xFF MUL NOT AND SWAP1 DUP4 ISZERO ISZERO MUL OR SWAP1 SSTORE POP POP POP JUMP JUMPDEST PUSH1 0x0 DUP1 PUSH1 0x0 DUP4 PUSH20 0xFFFFFFFFFFFFFFFFFFFFFFFFFFFFFFFFFFFFFFFF AND PUSH20 0xFFFFFFFFFFFFFFFFFFFFFFFFFFFFFFFFFFFFFFFF AND DUP2 MSTORE PUSH1 0x20 ADD SWAP1 DUP2 MSTORE PUSH1 0x20 ADD PUSH1 0x0 KECCAK256 SLOAD SWAP1 POP SWAP2 SWAP1 POP JUMP JUMPDEST PUSH1 0x0 DUP1 SHL PUSH2 0xEB1 DUP2 PUSH2 0x16F8 JUMP JUMPDEST PUSH1 0x0 DUP4 MLOAD GT PUSH2 0xEF5 JUMPI PUSH1 0x40 MLOAD PUSH32 0x8C379A000000000000000000000000000000000000000000000000000000000 DUP2 MSTORE PUSH1 0x4 ADD PUSH2 0xEEC SWAP1 PUSH2 0x2A1D JUMP JUMPDEST PUSH1 0x40 MLOAD DUP1 SWAP2 SUB SWAP1 REVERT JUMPDEST PUSH1 0x0 JUMPDEST DUP4 MLOAD DUP2 PUSH2 0xFFFF AND LT ISZERO PUSH2 0x113E JUMPI PUSH1 0x0 PUSH1 0x7 PUSH1 0x0 DUP6 PUSH2 0xF15 SWAP1 PUSH2 0x296A JUMP JUMPDEST DUP2 MSTORE PUSH1 0x20 ADD SWAP1 DUP2 MSTORE PUSH1 0x20 ADD PUSH1 0x0 KECCAK256 PUSH1 0x0 DUP7 DUP5 PUSH2 0xFFFF AND DUP2 MLOAD DUP2 LT PUSH2 0xF3C JUMPI PUSH2 0xF3B PUSH2 0x2AA9 JUMP JUMPDEST JUMPDEST PUSH1 0x20 MUL PUSH1 0x20 ADD ADD MLOAD PUSH20 0xFFFFFFFFFFFFFFFFFFFFFFFFFFFFFFFFFFFFFFFF AND PUSH20 0xFFFFFFFFFFFFFFFFFFFFFFFFFFFFFFFFFFFFFFFF AND DUP2 MSTORE PUSH1 0x20 ADD SWAP1 DUP2 MSTORE PUSH1 0x20 ADD PUSH1 0x0 KECCAK256 PUSH1 0x0 PUSH2 0x100 EXP DUP2 SLOAD DUP2 PUSH1 0xFF MUL NOT AND SWAP1 DUP4 ISZERO ISZERO MUL OR SWAP1 SSTORE POP PUSH1 0x1 PUSH1 0x8 PUSH1 0x0 DUP6 PUSH2 0xFA5 SWAP1 PUSH2 0x296A JUMP JUMPDEST DUP2 MSTORE PUSH1 0x20 ADD SWAP1 DUP2 MSTORE PUSH1 0x20 ADD PUSH1 0x0 KECCAK256 PUSH1 0x0 DUP7 DUP5 PUSH2 0xFFFF AND DUP2 MLOAD DUP2 LT PUSH2 0xFCC JUMPI PUSH2 0xFCB PUSH2 0x2AA9 JUMP JUMPDEST JUMPDEST PUSH1 0x20 MUL PUSH1 0x20 ADD ADD MLOAD PUSH20 0xFFFFFFFFFFFFFFFFFFFFFFFFFFFFFFFFFFFFFFFF AND PUSH20 0xFFFFFFFFFFFFFFFFFFFFFFFFFFFFFFFFFFFFFFFF AND DUP2 MSTORE PUSH1 0x20 ADD SWAP1 DUP2 MSTORE PUSH1 0x20 ADD PUSH1 0x0 KECCAK256 PUSH1 0x0 PUSH2 0x100 EXP DUP2 SLOAD DUP2 PUSH1 0xFF MUL NOT AND SWAP1 DUP4 ISZERO ISZERO MUL OR SWAP1 SSTORE POP PUSH1 0x0 PUSH2 0x1071 PUSH1 0x9 PUSH1 0x0 SWAP1 SLOAD SWAP1 PUSH2 0x100 EXP SWAP1 DIV PUSH20 0xFFFFFFFFFFFFFFFFFFFFFFFFFFFFFFFFFFFFFFFF AND DUP7 DUP5 PUSH2 0xFFFF AND DUP2 MLOAD DUP2 LT PUSH2 0x1064 JUMPI PUSH2 0x1063 PUSH2 0x2AA9 JUMP JUMPDEST JUMPDEST PUSH1 0x20 MUL PUSH1 0x20 ADD ADD MLOAD PUSH2 0x1464 JUMP JUMPDEST SWAP1 POP PUSH1 0x1 DUP2 PUSH1 0xFF AND LT PUSH2 0x10DD JUMPI PUSH2 0x10D8 PUSH1 0x9 PUSH1 0x0 SWAP1 SLOAD SWAP1 PUSH2 0x100 EXP SWAP1 DIV PUSH20 0xFFFFFFFFFFFFFFFFFFFFFFFFFFFFFFFFFFFFFFFF AND DUP7 DUP5 PUSH2 0xFFFF AND DUP2 MLOAD DUP2 LT PUSH2 0x10BB JUMPI PUSH2 0x10BA PUSH2 0x2AA9 JUMP JUMPDEST JUMPDEST PUSH1 0x20 MUL PUSH1 0x20 ADD ADD MLOAD PUSH1 0x1 DUP5 PUSH2 0x10D0 SWAP2 SWAP1 PUSH2 0x2D41 JUMP JUMPDEST PUSH1 0xFF AND PUSH2 0x155D JUMP JUMPDEST PUSH2 0x112A JUMP JUMPDEST PUSH2 0x1129 PUSH1 0x9 PUSH1 0x0 SWAP1 SLOAD SWAP1 PUSH2 0x100 EXP SWAP1 DIV PUSH20 0xFFFFFFFFFFFFFFFFFFFFFFFFFFFFFFFFFFFFFFFF AND DUP7 DUP5 PUSH2 0xFFFF AND DUP2 MLOAD DUP2 LT PUSH2 0x111A JUMPI PUSH2 0x1119 PUSH2 0x2AA9 JUMP JUMPDEST JUMPDEST PUSH1 0x20 MUL PUSH1 0x20 ADD ADD MLOAD PUSH1 0x1 PUSH2 0x155D JUMP JUMPDEST JUMPDEST POP DUP1 DUP1 PUSH2 0x1136 SWAP1 PUSH2 0x2B1B JUMP JUMPDEST SWAP2 POP POP PUSH2 0xEF8 JUMP JUMPDEST POP POP POP POP JUMP JUMPDEST PUSH1 0x0 PUSH1 0x5 PUSH1 0x0 DUP5 DUP2 MSTORE PUSH1 0x20 ADD SWAP1 DUP2 MSTORE PUSH1 0x20 ADD PUSH1 0x0 KECCAK256 PUSH1 0x0 ADD PUSH1 0x0 DUP4 PUSH20 0xFFFFFFFFFFFFFFFFFFFFFFFFFFFFFFFFFFFFFFFF AND PUSH20 0xFFFFFFFFFFFFFFFFFFFFFFFFFFFFFFFFFFFFFFFF AND DUP2 MSTORE PUSH1 0x20 ADD SWAP1 DUP2 MSTORE PUSH1 0x20 ADD PUSH1 0x0 KECCAK256 PUSH1 0x0 SWAP1 SLOAD SWAP1 PUSH2 0x100 EXP SWAP1 DIV PUSH1 0xFF AND SWAP1 POP SWAP3 SWAP2 POP POP JUMP JUMPDEST PUSH1 0x0 TIMESTAMP SWAP1 POP SWAP1 JUMP JUMPDEST PUSH1 0x60 PUSH1 0x4 DUP1 SLOAD PUSH2 0x11C6 SWAP1 PUSH2 0x2895 JUMP JUMPDEST DUP1 PUSH1 0x1F ADD PUSH1 0x20 DUP1 SWAP2 DIV MUL PUSH1 0x20 ADD PUSH1 0x40 MLOAD SWAP1 DUP2 ADD PUSH1 0x40 MSTORE DUP1 SWAP3 SWAP2 SWAP1 DUP2 DUP2 MSTORE PUSH1 0x20 ADD DUP3 DUP1 SLOAD PUSH2 0x11F2 SWAP1 PUSH2 0x2895 JUMP JUMPDEST DUP1 ISZERO PUSH2 0x123F JUMPI DUP1 PUSH1 0x1F LT PUSH2 0x1214 JUMPI PUSH2 0x100 DUP1 DUP4 SLOAD DIV MUL DUP4 MSTORE SWAP2 PUSH1 0x20 ADD SWAP2 PUSH2 0x123F JUMP JUMPDEST DUP3 ADD SWAP2 SWAP1 PUSH1 0x0 MSTORE PUSH1 0x20 PUSH1 0x0 KECCAK256 SWAP1 JUMPDEST DUP2 SLOAD DUP2 MSTORE SWAP1 PUSH1 0x1 ADD SWAP1 PUSH1 0x20 ADD DUP1 DUP4 GT PUSH2 0x1222 JUMPI DUP3 SWAP1 SUB PUSH1 0x1F AND DUP3 ADD SWAP2 JUMPDEST POP POP POP POP POP SWAP1 POP SWAP1 JUMP JUMPDEST PUSH1 0x0 DUP1 SHL DUP2 JUMP JUMPDEST PUSH1 0x0 DUP1 PUSH2 0x125B PUSH2 0x1555 JUMP JUMPDEST SWAP1 POP PUSH2 0x1268 DUP2 DUP6 DUP6 PUSH2 0x1604 JUMP JUMPDEST PUSH1 0x1 SWAP2 POP POP SWAP3 SWAP2 POP POP JUMP JUMPDEST PUSH1 0x60 PUSH1 0x0 DUP1 JUMPDEST DUP4 MLOAD DUP2 LT ISZERO PUSH2 0x12F8 JUMPI PUSH1 0x0 DUP5 DUP3 DUP2 MLOAD DUP2 LT PUSH2 0x1297 JUMPI PUSH2 0x1296 PUSH2 0x2AA9 JUMP JUMPDEST JUMPDEST PUSH1 0x20 MUL PUSH1 0x20 ADD ADD MLOAD PUSH2 0x12A8 SWAP1 PUSH2 0x296A JUMP JUMPDEST SWAP1 POP TIMESTAMP PUSH1 0x6 PUSH1 0x0 DUP4 DUP2 MSTORE PUSH1 0x20 ADD SWAP1 DUP2 MSTORE PUSH1 0x20 ADD PUSH1 0x0 KECCAK256 PUSH1 0x0 SWAP1 SLOAD SWAP1 PUSH2 0x100 EXP SWAP1 DIV PUSH4 0xFFFFFFFF AND PUSH4 0xFFFFFFFF AND GT ISZERO PUSH2 0x12EA JUMPI DUP3 DUP1 PUSH2 0x12E6 SWAP1 PUSH2 0x2D76 JUMP JUMPDEST SWAP4 POP POP JUMPDEST POP DUP1 DUP1 PUSH1 0x1 ADD SWAP2 POP POP PUSH2 0x1279 JUMP JUMPDEST POP PUSH1 0x0 DUP2 PUSH8 0xFFFFFFFFFFFFFFFF DUP2 GT ISZERO PUSH2 0x1315 JUMPI PUSH2 0x1314 PUSH2 0x21CF JUMP JUMPDEST JUMPDEST PUSH1 0x40 MLOAD SWAP1 DUP1 DUP3 MSTORE DUP1 PUSH1 0x20 MUL PUSH1 0x20 ADD DUP3 ADD PUSH1 0x40 MSTORE DUP1 ISZERO PUSH2 0x1348 JUMPI DUP2 PUSH1 0x20 ADD JUMPDEST PUSH1 0x60 DUP2 MSTORE PUSH1 0x20 ADD SWAP1 PUSH1 0x1 SWAP1 SUB SWAP1 DUP2 PUSH2 0x1333 JUMPI SWAP1 POP JUMPDEST POP SWAP1 POP PUSH1 0x0 DUP1 JUMPDEST DUP6 MLOAD DUP2 LT ISZERO PUSH2 0x1407 JUMPI PUSH1 0x0 DUP7 DUP3 DUP2 MLOAD DUP2 LT PUSH2 0x136D JUMPI PUSH2 0x136C PUSH2 0x2AA9 JUMP JUMPDEST JUMPDEST PUSH1 0x20 MUL PUSH1 0x20 ADD ADD MLOAD PUSH2 0x137E SWAP1 PUSH2 0x296A JUMP JUMPDEST SWAP1 POP TIMESTAMP PUSH1 0x6 PUSH1 0x0 DUP4 DUP2 MSTORE PUSH1 0x20 ADD SWAP1 DUP2 MSTORE PUSH1 0x20 ADD PUSH1 0x0 KECCAK256 PUSH1 0x0 SWAP1 SLOAD SWAP1 PUSH2 0x100 EXP SWAP1 DIV PUSH4 0xFFFFFFFF AND PUSH4 0xFFFFFFFF AND GT ISZERO PUSH2 0x13F9 JUMPI DUP7 DUP3 DUP2 MLOAD DUP2 LT PUSH2 0x13C4 JUMPI PUSH2 0x13C3 PUSH2 0x2AA9 JUMP JUMPDEST JUMPDEST PUSH1 0x20 MUL PUSH1 0x20 ADD ADD MLOAD DUP5 DUP5 DUP2 MLOAD DUP2 LT PUSH2 0x13DF JUMPI PUSH2 0x13DE PUSH2 0x2AA9 JUMP JUMPDEST JUMPDEST PUSH1 0x20 MUL PUSH1 0x20 ADD ADD DUP2 SWAP1 MSTORE POP DUP3 DUP1 PUSH2 0x13F5 SWAP1 PUSH2 0x2D76 JUMP JUMPDEST SWAP4 POP POP JUMPDEST POP DUP1 DUP1 PUSH1 0x1 ADD SWAP2 POP POP PUSH2 0x134F JUMP JUMPDEST POP DUP2 SWAP4 POP POP POP POP SWAP2 SWAP1 POP JUMP JUMPDEST PUSH2 0x141C DUP3 PUSH2 0x6C7 JUMP JUMPDEST PUSH2 0x1425 DUP2 PUSH2 0x16F8 JUMP JUMPDEST PUSH2 0x142F DUP4 DUP4 PUSH2 0x17FE JUMP JUMPDEST POP POP POP POP JUMP JUMPDEST PUSH1 0x7 PUSH1 0x20 MSTORE DUP2 PUSH1 0x0 MSTORE PUSH1 0x40 PUSH1 0x0 KECCAK256 PUSH1 0x20 MSTORE DUP1 PUSH1 0x0 MSTORE PUSH1 0x40 PUSH1 0x0 KECCAK256 PUSH1 0x0 SWAP2 POP SWAP2 POP SWAP1 SLOAD SWAP1 PUSH2 0x100 EXP SWAP1 DIV PUSH1 0xFF AND DUP2 JUMP JUMPDEST PUSH1 0x0 PUSH1 0x1 PUSH1 0x0 DUP5 PUSH20 0xFFFFFFFFFFFFFFFFFFFFFFFFFFFFFFFFFFFFFFFF AND PUSH20 0xFFFFFFFFFFFFFFFFFFFFFFFFFFFFFFFFFFFFFFFF AND DUP2 MSTORE PUSH1 0x20 ADD SWAP1 DUP2 MSTORE PUSH1 0x20 ADD PUSH1 0x0 KECCAK256 PUSH1 0x0 DUP4 PUSH20 0xFFFFFFFFFFFFFFFFFFFFFFFFFFFFFFFFFFFFFFFF AND PUSH20 0xFFFFFFFFFFFFFFFFFFFFFFFFFFFFFFFFFFFFFFFF AND DUP2 MSTORE PUSH1 0x20 ADD SWAP1 DUP2 MSTORE PUSH1 0x20 ADD PUSH1 0x0 KECCAK256 SLOAD SWAP1 POP SWAP3 SWAP2 POP POP JUMP JUMPDEST PUSH1 0x0 PUSH32 0x1FFC9A700000000000000000000000000000000000000000000000000000000 PUSH28 0xFFFFFFFFFFFFFFFFFFFFFFFFFFFFFFFFFFFFFFFFFFFFFFFFFFFFFFFF NOT AND DUP3 PUSH28 0xFFFFFFFFFFFFFFFFFFFFFFFFFFFFFFFFFFFFFFFFFFFFFFFFFFFFFFFF NOT AND EQ SWAP1 POP SWAP2 SWAP1 POP JUMP JUMPDEST PUSH1 0x0 CALLER SWAP1 POP SWAP1 JUMP JUMPDEST PUSH2 0x156A DUP4 DUP4 DUP4 PUSH1 0x1 PUSH2 0x1920 JUMP JUMPDEST POP POP POP JUMP JUMPDEST PUSH1 0x0 PUSH2 0x157B DUP5 DUP5 PUSH2 0x1464 JUMP JUMPDEST SWAP1 POP PUSH32 0xFFFFFFFFFFFFFFFFFFFFFFFFFFFFFFFFFFFFFFFFFFFFFFFFFFFFFFFFFFFFFFFF DUP2 LT ISZERO PUSH2 0x15FE JUMPI DUP2 DUP2 LT ISZERO PUSH2 0x15EE JUMPI DUP3 DUP2 DUP4 PUSH1 0x40 MLOAD PUSH32 0xFB8F41B200000000000000000000000000000000000000000000000000000000 DUP2 MSTORE PUSH1 0x4 ADD PUSH2 0x15E5 SWAP4 SWAP3 SWAP2 SWAP1 PUSH2 0x2DCD JUMP JUMPDEST PUSH1 0x40 MLOAD DUP1 SWAP2 SUB SWAP1 REVERT JUMPDEST PUSH2 0x15FD DUP5 DUP5 DUP5 DUP5 SUB PUSH1 0x0 PUSH2 0x1920 JUMP JUMPDEST JUMPDEST POP POP POP POP JUMP JUMPDEST PUSH1 0x0 PUSH20 0xFFFFFFFFFFFFFFFFFFFFFFFFFFFFFFFFFFFFFFFF AND DUP4 PUSH20 0xFFFFFFFFFFFFFFFFFFFFFFFFFFFFFFFFFFFFFFFF AND SUB PUSH2 0x1676 JUMPI PUSH1 0x0 PUSH1 0x40 MLOAD PUSH32 0x96C6FD1E00000000000000000000000000000000000000000000000000000000 DUP2 MSTORE PUSH1 0x4 ADD PUSH2 0x166D SWAP2 SWAP1 PUSH2 0x2E04 JUMP JUMPDEST PUSH1 0x40 MLOAD DUP1 SWAP2 SUB SWAP1 REVERT JUMPDEST PUSH1 0x0 PUSH20 0xFFFFFFFFFFFFFFFFFFFFFFFFFFFFFFFFFFFFFFFF AND DUP3 PUSH20 0xFFFFFFFFFFFFFFFFFFFFFFFFFFFFFFFFFFFFFFFF AND SUB PUSH2 0x16E8 JUMPI PUSH1 0x0 PUSH1 0x40 MLOAD PUSH32 0xEC442F0500000000000000000000000000000000000000000000000000000000 DUP2 MSTORE PUSH1 0x4 ADD PUSH2 0x16DF SWAP2 SWAP1 PUSH2 0x2E04 JUMP JUMPDEST PUSH1 0x40 MLOAD DUP1 SWAP2 SUB SWAP1 REVERT JUMPDEST PUSH2 0x16F3 DUP4 DUP4 DUP4 PUSH2 0x1AF7 JUMP JUMPDEST POP POP POP JUMP JUMPDEST PUSH2 0x1709 DUP2 PUSH2 0x1704 PUSH2 0x1555 JUMP JUMPDEST PUSH2 0x1D1C JUMP JUMPDEST POP JUMP JUMPDEST PUSH1 0x0 PUSH2 0x1718 DUP4 DUP4 PUSH2 0x1144 JUMP JUMPDEST PUSH2 0x17F3 JUMPI PUSH1 0x1 PUSH1 0x5 PUSH1 0x0 DUP6 DUP2 MSTORE PUSH1 0x20 ADD SWAP1 DUP2 MSTORE PUSH1 0x20 ADD PUSH1 0x0 KECCAK256 PUSH1 0x0 ADD PUSH1 0x0 DUP5 PUSH20 0xFFFFFFFFFFFFFFFFFFFFFFFFFFFFFFFFFFFFFFFF AND PUSH20 0xFFFFFFFFFFFFFFFFFFFFFFFFFFFFFFFFFFFFFFFF AND DUP2 MSTORE PUSH1 0x20 ADD SWAP1 DUP2 MSTORE PUSH1 0x20 ADD PUSH1 0x0 KECCAK256 PUSH1 0x0 PUSH2 0x100 EXP DUP2 SLOAD DUP2 PUSH1 0xFF MUL NOT AND SWAP1 DUP4 ISZERO ISZERO MUL OR SWAP1 SSTORE POP PUSH2 0x1790 PUSH2 0x1555 JUMP JUMPDEST PUSH20 0xFFFFFFFFFFFFFFFFFFFFFFFFFFFFFFFFFFFFFFFF AND DUP3 PUSH20 0xFFFFFFFFFFFFFFFFFFFFFFFFFFFFFFFFFFFFFFFF AND DUP5 PUSH32 0x2F8788117E7EFF1D82E926EC794901D17C78024A50270940304540A733656F0D PUSH1 0x40 MLOAD PUSH1 0x40 MLOAD DUP1 SWAP2 SUB SWAP1 LOG4 PUSH1 0x1 SWAP1 POP PUSH2 0x17F8 JUMP JUMPDEST PUSH1 0x0 SWAP1 POP JUMPDEST SWAP3 SWAP2 POP POP JUMP JUMPDEST PUSH1 0x0 PUSH2 0x180A DUP4 DUP4 PUSH2 0x1144 JUMP JUMPDEST ISZERO PUSH2 0x18E6 JUMPI PUSH1 0x0 PUSH1 0x5 PUSH1 0x0 DUP6 DUP2 MSTORE PUSH1 0x20 ADD SWAP1 DUP2 MSTORE PUSH1 0x20 ADD PUSH1 0x0 KECCAK256 PUSH1 0x0 ADD PUSH1 0x0 DUP5 PUSH20 0xFFFFFFFFFFFFFFFFFFFFFFFFFFFFFFFFFFFFFFFF AND PUSH20 0xFFFFFFFFFFFFFFFFFFFFFFFFFFFFFFFFFFFFFFFF AND DUP2 MSTORE PUSH1 0x20 ADD SWAP1 DUP2 MSTORE PUSH1 0x20 ADD PUSH1 0x0 KECCAK256 PUSH1 0x0 PUSH2 0x100 EXP DUP2 SLOAD DUP2 PUSH1 0xFF MUL NOT AND SWAP1 DUP4 ISZERO ISZERO MUL OR SWAP1 SSTORE POP PUSH2 0x1883 PUSH2 0x1555 JUMP JUMPDEST PUSH20 0xFFFFFFFFFFFFFFFFFFFFFFFFFFFFFFFFFFFFFFFF AND DUP3 PUSH20 0xFFFFFFFFFFFFFFFFFFFFFFFFFFFFFFFFFFFFFFFF AND DUP5 PUSH32 0xF6391F5C32D9C69D2A47EA670B442974B53935D1EDC7FD64EB21E047A839171B PUSH1 0x40 MLOAD PUSH1 0x40 MLOAD DUP1 SWAP2 SUB SWAP1 LOG4 PUSH1 0x1 SWAP1 POP PUSH2 0x18EB JUMP JUMPDEST PUSH1 0x0 SWAP1 POP JUMPDEST SWAP3 SWAP2 POP POP JUMP JUMPDEST PUSH2 0x191E PUSH1 0x9 PUSH1 0x0 SWAP1 SLOAD SWAP1 PUSH2 0x100 EXP SWAP1 DIV PUSH20 0xFFFFFFFFFFFFFFFFFFFFFFFFFFFFFFFFFFFFFFFF AND PUSH1 0x1 PUSH2 0x1D6D JUMP JUMPDEST JUMP JUMPDEST PUSH1 0x0 PUSH20 0xFFFFFFFFFFFFFFFFFFFFFFFFFFFFFFFFFFFFFFFF AND DUP5 PUSH20 0xFFFFFFFFFFFFFFFFFFFFFFFFFFFFFFFFFFFFFFFF AND SUB PUSH2 0x1992 JUMPI PUSH1 0x0 PUSH1 0x40 MLOAD PUSH32 0xE602DF0500000000000000000000000000000000000000000000000000000000 DUP2 MSTORE PUSH1 0x4 ADD PUSH2 0x1989 SWAP2 SWAP1 PUSH2 0x2E04 JUMP JUMPDEST PUSH1 0x40 MLOAD DUP1 SWAP2 SUB SWAP1 REVERT JUMPDEST PUSH1 0x0 PUSH20 0xFFFFFFFFFFFFFFFFFFFFFFFFFFFFFFFFFFFFFFFF AND DUP4 PUSH20 0xFFFFFFFFFFFFFFFFFFFFFFFFFFFFFFFFFFFFFFFF AND SUB PUSH2 0x1A04 JUMPI PUSH1 0x0 PUSH1 0x40 MLOAD PUSH32 0x94280D6200000000000000000000000000000000000000000000000000000000 DUP2 MSTORE PUSH1 0x4 ADD PUSH2 0x19FB SWAP2 SWAP1 PUSH2 0x2E04 JUMP JUMPDEST PUSH1 0x40 MLOAD DUP1 SWAP2 SUB SWAP1 REVERT JUMPDEST DUP2 PUSH1 0x1 PUSH1 0x0 DUP7 PUSH20 0xFFFFFFFFFFFFFFFFFFFFFFFFFFFFFFFFFFFFFFFF AND PUSH20 0xFFFFFFFFFFFFFFFFFFFFFFFFFFFFFFFFFFFFFFFF AND DUP2 MSTORE PUSH1 0x20 ADD SWAP1 DUP2 MSTORE PUSH1 0x20 ADD PUSH1 0x0 KECCAK256 PUSH1 0x0 DUP6 PUSH20 0xFFFFFFFFFFFFFFFFFFFFFFFFFFFFFFFFFFFFFFFF AND PUSH20 0xFFFFFFFFFFFFFFFFFFFFFFFFFFFFFFFFFFFFFFFF AND DUP2 MSTORE PUSH1 0x20 ADD SWAP1 DUP2 MSTORE PUSH1 0x20 ADD PUSH1 0x0 KECCAK256 DUP2 SWAP1 SSTORE POP DUP1 ISZERO PUSH2 0x1AF1 JUMPI DUP3 PUSH20 0xFFFFFFFFFFFFFFFFFFFFFFFFFFFFFFFFFFFFFFFF AND DUP5 PUSH20 0xFFFFFFFFFFFFFFFFFFFFFFFFFFFFFFFFFFFFFFFF AND PUSH32 0x8C5BE1E5EBEC7D5BD14F71427D1E84F3DD0314C0F7B2291E5B200AC8C7C3B925 DUP5 PUSH1 0x40 MLOAD PUSH2 0x1AE8 SWAP2 SWAP1 PUSH2 0x20C9 JUMP JUMPDEST PUSH1 0x40 MLOAD DUP1 SWAP2 SUB SWAP1 LOG3 JUMPDEST POP POP POP POP JUMP JUMPDEST PUSH1 0x0 PUSH20 0xFFFFFFFFFFFFFFFFFFFFFFFFFFFFFFFFFFFFFFFF AND DUP4 PUSH20 0xFFFFFFFFFFFFFFFFFFFFFFFFFFFFFFFFFFFFFFFF AND SUB PUSH2 0x1B49 JUMPI DUP1 PUSH1 0x2 PUSH1 0x0 DUP3 DUP3 SLOAD PUSH2 0x1B3D SWAP2 SWAP1 PUSH2 0x2E1F JUMP JUMPDEST SWAP3 POP POP DUP2 SWAP1 SSTORE POP PUSH2 0x1C1C JUMP JUMPDEST PUSH1 0x0 DUP1 PUSH1 0x0 DUP6 PUSH20 0xFFFFFFFFFFFFFFFFFFFFFFFFFFFFFFFFFFFFFFFF AND PUSH20 0xFFFFFFFFFFFFFFFFFFFFFFFFFFFFFFFFFFFFFFFF AND DUP2 MSTORE PUSH1 0x20 ADD SWAP1 DUP2 MSTORE PUSH1 0x20 ADD PUSH1 0x0 KECCAK256 SLOAD SWAP1 POP DUP2 DUP2 LT ISZERO PUSH2 0x1BD5 JUMPI DUP4 DUP2 DUP4 PUSH1 0x40 MLOAD PUSH32 0xE450D38C00000000000000000000000000000000000000000000000000000000 DUP2 MSTORE PUSH1 0x4 ADD PUSH2 0x1BCC SWAP4 SWAP3 SWAP2 SWAP1 PUSH2 0x2DCD JUMP JUMPDEST PUSH1 0x40 MLOAD DUP1 SWAP2 SUB SWAP1 REVERT JUMPDEST DUP2 DUP2 SUB PUSH1 0x0 DUP1 DUP7 PUSH20 0xFFFFFFFFFFFFFFFFFFFFFFFFFFFFFFFFFFFFFFFF AND PUSH20 0xFFFFFFFFFFFFFFFFFFFFFFFFFFFFFFFFFFFFFFFF AND DUP2 MSTORE PUSH1 0x20 ADD SWAP1 DUP2 MSTORE PUSH1 0x20 ADD PUSH1 0x0 KECCAK256 DUP2 SWAP1 SSTORE POP POP JUMPDEST PUSH1 0x0 PUSH20 0xFFFFFFFFFFFFFFFFFFFFFFFFFFFFFFFFFFFFFFFF AND DUP3 PUSH20 0xFFFFFFFFFFFFFFFFFFFFFFFFFFFFFFFFFFFFFFFF AND SUB PUSH2 0x1C65 JUMPI DUP1 PUSH1 0x2 PUSH1 0x0 DUP3 DUP3 SLOAD SUB SWAP3 POP POP DUP2 SWAP1 SSTORE POP PUSH2 0x1CB2 JUMP JUMPDEST DUP1 PUSH1 0x0 DUP1 DUP5 PUSH20 0xFFFFFFFFFFFFFFFFFFFFFFFFFFFFFFFFFFFFFFFF AND PUSH20 0xFFFFFFFFFFFFFFFFFFFFFFFFFFFFFFFFFFFFFFFF AND DUP2 MSTORE PUSH1 0x20 ADD SWAP1 DUP2 MSTORE PUSH1 0x20 ADD PUSH1 0x0 KECCAK256 PUSH1 0x0 DUP3 DUP3 SLOAD ADD SWAP3 POP POP DUP2 SWAP1 SSTORE POP JUMPDEST DUP2 PUSH20 0xFFFFFFFFFFFFFFFFFFFFFFFFFFFFFFFFFFFFFFFF AND DUP4 PUSH20 0xFFFFFFFFFFFFFFFFFFFFFFFFFFFFFFFFFFFFFFFF AND PUSH32 0xDDF252AD1BE2C89B69C2B068FC378DAA952BA7F163C4A11628F55A4DF523B3EF DUP4 PUSH1 0x40 MLOAD PUSH2 0x1D0F SWAP2 SWAP1 PUSH2 0x20C9 JUMP JUMPDEST PUSH1 0x40 MLOAD DUP1 SWAP2 SUB SWAP1 LOG3 POP POP POP JUMP JUMPDEST PUSH2 0x1D26 DUP3 DUP3 PUSH2 0x1144 JUMP JUMPDEST PUSH2 0x1D69 JUMPI DUP1 DUP3 PUSH1 0x40 MLOAD PUSH32 0xE2517D3F00000000000000000000000000000000000000000000000000000000 DUP2 MSTORE PUSH1 0x4 ADD PUSH2 0x1D60 SWAP3 SWAP2 SWAP1 PUSH2 0x2E53 JUMP JUMPDEST PUSH1 0x40 MLOAD DUP1 SWAP2 SUB SWAP1 REVERT JUMPDEST POP POP JUMP JUMPDEST PUSH1 0x0 PUSH20 0xFFFFFFFFFFFFFFFFFFFFFFFFFFFFFFFFFFFFFFFF AND DUP3 PUSH20 0xFFFFFFFFFFFFFFFFFFFFFFFFFFFFFFFFFFFFFFFF AND SUB PUSH2 0x1DDF JUMPI PUSH1 0x0 PUSH1 0x40 MLOAD PUSH32 0xEC442F0500000000000000000000000000000000000000000000000000000000 DUP2 MSTORE PUSH1 0x4 ADD PUSH2 0x1DD6 SWAP2 SWAP1 PUSH2 0x2E04 JUMP JUMPDEST PUSH1 0x40 MLOAD DUP1 SWAP2 SUB SWAP1 REVERT JUMPDEST PUSH2 0x1DEB PUSH1 0x0 DUP4 DUP4 PUSH2 0x1AF7 JUMP JUMPDEST POP POP JUMP JUMPDEST PUSH1 0x0 PUSH1 0x40 MLOAD SWAP1 POP SWAP1 JUMP JUMPDEST PUSH1 0x0 DUP1 REVERT JUMPDEST PUSH1 0x0 DUP1 REVERT JUMPDEST PUSH1 0x0 PUSH32 0xFFFFFFFF00000000000000000000000000000000000000000000000000000000 DUP3 AND SWAP1 POP SWAP2 SWAP1 POP JUMP JUMPDEST PUSH2 0x1E38 DUP2 PUSH2 0x1E03 JUMP JUMPDEST DUP2 EQ PUSH2 0x1E43 JUMPI PUSH1 0x0 DUP1 REVERT JUMPDEST POP JUMP JUMPDEST PUSH1 0x0 DUP2 CALLDATALOAD SWAP1 POP PUSH2 0x1E55 DUP2 PUSH2 0x1E2F JUMP JUMPDEST SWAP3 SWAP2 POP POP JUMP JUMPDEST PUSH1 0x0 PUSH1 0x20 DUP3 DUP5 SUB SLT ISZERO PUSH2 0x1E71 JUMPI PUSH2 0x1E70 PUSH2 0x1DF9 JUMP JUMPDEST JUMPDEST PUSH1 0x0 PUSH2 0x1E7F DUP5 DUP3 DUP6 ADD PUSH2 0x1E46 JUMP JUMPDEST SWAP2 POP POP SWAP3 SWAP2 POP POP JUMP JUMPDEST PUSH1 0x0 DUP2 ISZERO ISZERO SWAP1 POP SWAP2 SWAP1 POP JUMP JUMPDEST PUSH2 0x1E9D DUP2 PUSH2 0x1E88 JUMP JUMPDEST DUP3 MSTORE POP POP JUMP JUMPDEST PUSH1 0x0 PUSH1 0x20 DUP3 ADD SWAP1 POP PUSH2 0x1EB8 PUSH1 0x0 DUP4 ADD DUP5 PUSH2 0x1E94 JUMP JUMPDEST SWAP3 SWAP2 POP POP JUMP JUMPDEST PUSH1 0x0 DUP2 MLOAD SWAP1 POP SWAP2 SWAP1 POP JUMP JUMPDEST PUSH1 0x0 DUP3 DUP3 MSTORE PUSH1 0x20 DUP3 ADD SWAP1 POP SWAP3 SWAP2 POP POP JUMP JUMPDEST PUSH1 0x0 JUMPDEST DUP4 DUP2 LT ISZERO PUSH2 0x1EF8 JUMPI DUP1 DUP3 ADD MLOAD DUP2 DUP5 ADD MSTORE PUSH1 0x20 DUP2 ADD SWAP1 POP PUSH2 0x1EDD JUMP JUMPDEST PUSH1 0x0 DUP5 DUP5 ADD MSTORE POP POP POP POP JUMP JUMPDEST PUSH1 0x0 PUSH1 0x1F NOT PUSH1 0x1F DUP4 ADD AND SWAP1 POP SWAP2 SWAP1 POP JUMP JUMPDEST PUSH1 0x0 PUSH2 0x1F20 DUP3 PUSH2 0x1EBE JUMP JUMPDEST PUSH2 0x1F2A DUP2 DUP6 PUSH2 0x1EC9 JUMP JUMPDEST SWAP4 POP PUSH2 0x1F3A DUP2 DUP6 PUSH1 0x20 DUP7 ADD PUSH2 0x1EDA JUMP JUMPDEST PUSH2 0x1F43 DUP2 PUSH2 0x1F04 JUMP JUMPDEST DUP5 ADD SWAP2 POP POP SWAP3 SWAP2 POP POP JUMP JUMPDEST PUSH1 0x0 PUSH1 0x20 DUP3 ADD SWAP1 POP DUP2 DUP2 SUB PUSH1 0x0 DUP4 ADD MSTORE PUSH2 0x1F68 DUP2 DUP5 PUSH2 0x1F15 JUMP JUMPDEST SWAP1 POP SWAP3 SWAP2 POP POP JUMP JUMPDEST PUSH1 0x0 PUSH20 0xFFFFFFFFFFFFFFFFFFFFFFFFFFFFFFFFFFFFFFFF DUP3 AND SWAP1 POP SWAP2 SWAP1 POP JUMP JUMPDEST PUSH1 0x0 PUSH2 0x1F9B DUP3 PUSH2 0x1F70 JUMP JUMPDEST SWAP1 POP SWAP2 SWAP1 POP JUMP JUMPDEST PUSH2 0x1FAB DUP2 PUSH2 0x1F90 JUMP JUMPDEST DUP2 EQ PUSH2 0x1FB6 JUMPI PUSH1 0x0 DUP1 REVERT JUMPDEST POP JUMP JUMPDEST PUSH1 0x0 DUP2 CALLDATALOAD SWAP1 POP PUSH2 0x1FC8 DUP2 PUSH2 0x1FA2 JUMP JUMPDEST SWAP3 SWAP2 POP POP JUMP JUMPDEST PUSH1 0x0 DUP2 SWAP1 POP SWAP2 SWAP1 POP JUMP JUMPDEST PUSH2 0x1FE1 DUP2 PUSH2 0x1FCE JUMP JUMPDEST DUP2 EQ PUSH2 0x1FEC JUMPI PUSH1 0x0 DUP1 REVERT JUMPDEST POP JUMP JUMPDEST PUSH1 0x0 DUP2 CALLDATALOAD SWAP1 POP PUSH2 0x1FFE DUP2 PUSH2 0x1FD8 JUMP JUMPDEST SWAP3 SWAP2 POP POP JUMP JUMPDEST PUSH1 0x0 DUP1 PUSH1 0x40 DUP4 DUP6 SUB SLT ISZERO PUSH2 0x201B JUMPI PUSH2 0x201A PUSH2 0x1DF9 JUMP JUMPDEST JUMPDEST PUSH1 0x0 PUSH2 0x2029 DUP6 DUP3 DUP7 ADD PUSH2 0x1FB9 JUMP JUMPDEST SWAP3 POP POP PUSH1 0x20 PUSH2 0x203A DUP6 DUP3 DUP7 ADD PUSH2 0x1FEF JUMP JUMPDEST SWAP2 POP POP SWAP3 POP SWAP3 SWAP1 POP JUMP JUMPDEST PUSH1 0x0 DUP2 SWAP1 POP SWAP2 SWAP1 POP JUMP JUMPDEST PUSH2 0x2057 DUP2 PUSH2 0x2044 JUMP JUMPDEST DUP2 EQ PUSH2 0x2062 JUMPI PUSH1 0x0 DUP1 REVERT JUMPDEST POP JUMP JUMPDEST PUSH1 0x0 DUP2 CALLDATALOAD SWAP1 POP PUSH2 0x2074 DUP2 PUSH2 0x204E JUMP JUMPDEST SWAP3 SWAP2 POP POP JUMP JUMPDEST PUSH1 0x0 DUP1 PUSH1 0x40 DUP4 DUP6 SUB SLT ISZERO PUSH2 0x2091 JUMPI PUSH2 0x2090 PUSH2 0x1DF9 JUMP JUMPDEST JUMPDEST PUSH1 0x0 PUSH2 0x209F DUP6 DUP3 DUP7 ADD PUSH2 0x2065 JUMP JUMPDEST SWAP3 POP POP PUSH1 0x20 PUSH2 0x20B0 DUP6 DUP3 DUP7 ADD PUSH2 0x1FB9 JUMP JUMPDEST SWAP2 POP POP SWAP3 POP SWAP3 SWAP1 POP JUMP JUMPDEST PUSH2 0x20C3 DUP2 PUSH2 0x1FCE JUMP JUMPDEST DUP3 MSTORE POP POP JUMP JUMPDEST PUSH1 0x0 PUSH1 0x20 DUP3 ADD SWAP1 POP PUSH2 0x20DE PUSH1 0x0 DUP4 ADD DUP5 PUSH2 0x20BA JUMP JUMPDEST SWAP3 SWAP2 POP POP JUMP JUMPDEST PUSH1 0x0 DUP1 PUSH1 0x0 PUSH1 0x60 DUP5 DUP7 SUB SLT ISZERO PUSH2 0x20FD JUMPI PUSH2 0x20FC PUSH2 0x1DF9 JUMP JUMPDEST JUMPDEST PUSH1 0x0 PUSH2 0x210B DUP7 DUP3 DUP8 ADD PUSH2 0x1FB9 JUMP JUMPDEST SWAP4 POP POP PUSH1 0x20 PUSH2 0x211C DUP7 DUP3 DUP8 ADD PUSH2 0x1FB9 JUMP JUMPDEST SWAP3 POP POP PUSH1 0x40 PUSH2 0x212D DUP7 DUP3 DUP8 ADD PUSH2 0x1FEF JUMP JUMPDEST SWAP2 POP POP SWAP3 POP SWAP3 POP SWAP3 JUMP JUMPDEST PUSH1 0x0 PUSH1 0x20 DUP3 DUP5 SUB SLT ISZERO PUSH2 0x214D JUMPI PUSH2 0x214C PUSH2 0x1DF9 JUMP JUMPDEST JUMPDEST PUSH1 0x0 PUSH2 0x215B DUP5 DUP3 DUP6 ADD PUSH2 0x2065 JUMP JUMPDEST SWAP2 POP POP SWAP3 SWAP2 POP POP JUMP JUMPDEST PUSH2 0x216D DUP2 PUSH2 0x2044 JUMP JUMPDEST DUP3 MSTORE POP POP JUMP JUMPDEST PUSH1 0x0 PUSH1 0x20 DUP3 ADD SWAP1 POP PUSH2 0x2188 PUSH1 0x0 DUP4 ADD DUP5 PUSH2 0x2164 JUMP JUMPDEST SWAP3 SWAP2 POP POP JUMP JUMPDEST PUSH1 0x0 PUSH1 0xFF DUP3 AND SWAP1 POP SWAP2 SWAP1 POP JUMP JUMPDEST PUSH2 0x21A4 DUP2 PUSH2 0x218E JUMP JUMPDEST DUP3 MSTORE POP POP JUMP JUMPDEST PUSH1 0x0 PUSH1 0x20 DUP3 ADD SWAP1 POP PUSH2 0x21BF PUSH1 0x0 DUP4 ADD DUP5 PUSH2 0x219B JUMP JUMPDEST SWAP3 SWAP2 POP POP JUMP JUMPDEST PUSH1 0x0 DUP1 REVERT JUMPDEST PUSH1 0x0 DUP1 REVERT JUMPDEST PUSH32 0x4E487B7100000000000000000000000000000000000000000000000000000000 PUSH1 0x0 MSTORE PUSH1 0x41 PUSH1 0x4 MSTORE PUSH1 0x24 PUSH1 0x0 REVERT JUMPDEST PUSH2 0x2207 DUP3 PUSH2 0x1F04 JUMP JUMPDEST DUP2 ADD DUP2 DUP2 LT PUSH8 0xFFFFFFFFFFFFFFFF DUP3 GT OR ISZERO PUSH2 0x2226 JUMPI PUSH2 0x2225 PUSH2 0x21CF JUMP JUMPDEST JUMPDEST DUP1 PUSH1 0x40 MSTORE POP POP POP JUMP JUMPDEST PUSH1 0x0 PUSH2 0x2239 PUSH2 0x1DEF JUMP JUMPDEST SWAP1 POP PUSH2 0x2245 DUP3 DUP3 PUSH2 0x21FE JUMP JUMPDEST SWAP2 SWAP1 POP JUMP JUMPDEST PUSH1 0x0 PUSH8 0xFFFFFFFFFFFFFFFF DUP3 GT ISZERO PUSH2 0x2265 JUMPI PUSH2 0x2264 PUSH2 0x21CF JUMP JUMPDEST JUMPDEST PUSH2 0x226E DUP3 PUSH2 0x1F04 JUMP JUMPDEST SWAP1 POP PUSH1 0x20 DUP2 ADD SWAP1 POP SWAP2 SWAP1 POP JUMP JUMPDEST DUP3 DUP2 DUP4 CALLDATACOPY PUSH1 0x0 DUP4 DUP4 ADD MSTORE POP POP POP JUMP JUMPDEST PUSH1 0x0 PUSH2 0x229D PUSH2 0x2298 DUP5 PUSH2 0x224A JUMP JUMPDEST PUSH2 0x222F JUMP JUMPDEST SWAP1 POP DUP3 DUP2 MSTORE PUSH1 0x20 DUP2 ADD DUP5 DUP5 DUP5 ADD GT ISZERO PUSH2 0x22B9 JUMPI PUSH2 0x22B8 PUSH2 0x21CA JUMP JUMPDEST JUMPDEST PUSH2 0x22C4 DUP5 DUP3 DUP6 PUSH2 0x227B JUMP JUMPDEST POP SWAP4 SWAP3 POP POP POP JUMP JUMPDEST PUSH1 0x0 DUP3 PUSH1 0x1F DUP4 ADD SLT PUSH2 0x22E1 JUMPI PUSH2 0x22E0 PUSH2 0x21C5 JUMP JUMPDEST JUMPDEST DUP2 CALLDATALOAD PUSH2 0x22F1 DUP5 DUP3 PUSH1 0x20 DUP7 ADD PUSH2 0x228A JUMP JUMPDEST SWAP2 POP POP SWAP3 SWAP2 POP POP JUMP JUMPDEST PUSH1 0x0 PUSH4 0xFFFFFFFF DUP3 AND SWAP1 POP SWAP2 SWAP1 POP JUMP JUMPDEST PUSH2 0x2313 DUP2 PUSH2 0x22FA JUMP JUMPDEST DUP2 EQ PUSH2 0x231E JUMPI PUSH1 0x0 DUP1 REVERT JUMPDEST POP JUMP JUMPDEST PUSH1 0x0 DUP2 CALLDATALOAD SWAP1 POP PUSH2 0x2330 DUP2 PUSH2 0x230A JUMP JUMPDEST SWAP3 SWAP2 POP POP JUMP JUMPDEST PUSH1 0x0 DUP1 PUSH1 0x40 DUP4 DUP6 SUB SLT ISZERO PUSH2 0x234D JUMPI PUSH2 0x234C PUSH2 0x1DF9 JUMP JUMPDEST JUMPDEST PUSH1 0x0 DUP4 ADD CALLDATALOAD PUSH8 0xFFFFFFFFFFFFFFFF DUP2 GT ISZERO PUSH2 0x236B JUMPI PUSH2 0x236A PUSH2 0x1DFE JUMP JUMPDEST JUMPDEST PUSH2 0x2377 DUP6 DUP3 DUP7 ADD PUSH2 0x22CC JUMP JUMPDEST SWAP3 POP POP PUSH1 0x20 PUSH2 0x2388 DUP6 DUP3 DUP7 ADD PUSH2 0x2321 JUMP JUMPDEST SWAP2 POP POP SWAP3 POP SWAP3 SWAP1 POP JUMP JUMPDEST PUSH1 0x0 PUSH8 0xFFFFFFFFFFFFFFFF DUP3 GT ISZERO PUSH2 0x23AD JUMPI PUSH2 0x23AC PUSH2 0x21CF JUMP JUMPDEST JUMPDEST PUSH1 0x20 DUP3 MUL SWAP1 POP PUSH1 0x20 DUP2 ADD SWAP1 POP SWAP2 SWAP1 POP JUMP JUMPDEST PUSH1 0x0 DUP1 REVERT JUMPDEST PUSH1 0x0 PUSH2 0x23D6 PUSH2 0x23D1 DUP5 PUSH2 0x2392 JUMP JUMPDEST PUSH2 0x222F JUMP JUMPDEST SWAP1 POP DUP1 DUP4 DUP3 MSTORE PUSH1 0x20 DUP3 ADD SWAP1 POP PUSH1 0x20 DUP5 MUL DUP4 ADD DUP6 DUP2 GT ISZERO PUSH2 0x23F9 JUMPI PUSH2 0x23F8 PUSH2 0x23BE JUMP JUMPDEST JUMPDEST DUP4 JUMPDEST DUP2 DUP2 LT ISZERO PUSH2 0x2422 JUMPI DUP1 PUSH2 0x240E DUP9 DUP3 PUSH2 0x1FB9 JUMP JUMPDEST DUP5 MSTORE PUSH1 0x20 DUP5 ADD SWAP4 POP POP PUSH1 0x20 DUP2 ADD SWAP1 POP PUSH2 0x23FB JUMP JUMPDEST POP POP POP SWAP4 SWAP3 POP POP POP JUMP JUMPDEST PUSH1 0x0 DUP3 PUSH1 0x1F DUP4 ADD SLT PUSH2 0x2441 JUMPI PUSH2 0x2440 PUSH2 0x21C5 JUMP JUMPDEST JUMPDEST DUP2 CALLDATALOAD PUSH2 0x2451 DUP5 DUP3 PUSH1 0x20 DUP7 ADD PUSH2 0x23C3 JUMP JUMPDEST SWAP2 POP POP SWAP3 SWAP2 POP POP JUMP JUMPDEST PUSH1 0x0 DUP1 PUSH1 0x40 DUP4 DUP6 SUB SLT ISZERO PUSH2 0x2471 JUMPI PUSH2 0x2470 PUSH2 0x1DF9 JUMP JUMPDEST JUMPDEST PUSH1 0x0 DUP4 ADD CALLDATALOAD PUSH8 0xFFFFFFFFFFFFFFFF DUP2 GT ISZERO PUSH2 0x248F JUMPI PUSH2 0x248E PUSH2 0x1DFE JUMP JUMPDEST JUMPDEST PUSH2 0x249B DUP6 DUP3 DUP7 ADD PUSH2 0x242C JUMP JUMPDEST SWAP3 POP POP PUSH1 0x20 DUP4 ADD CALLDATALOAD PUSH8 0xFFFFFFFFFFFFFFFF DUP2 GT ISZERO PUSH2 0x24BC JUMPI PUSH2 0x24BB PUSH2 0x1DFE JUMP JUMPDEST JUMPDEST PUSH2 0x24C8 DUP6 DUP3 DUP7 ADD PUSH2 0x22CC JUMP JUMPDEST SWAP2 POP POP SWAP3 POP SWAP3 SWAP1 POP JUMP JUMPDEST PUSH1 0x0 PUSH1 0x20 DUP3 DUP5 SUB SLT ISZERO PUSH2 0x24E8 JUMPI PUSH2 0x24E7 PUSH2 0x1DF9 JUMP JUMPDEST JUMPDEST PUSH1 0x0 DUP3 ADD CALLDATALOAD PUSH8 0xFFFFFFFFFFFFFFFF DUP2 GT ISZERO PUSH2 0x2506 JUMPI PUSH2 0x2505 PUSH2 0x1DFE JUMP JUMPDEST JUMPDEST PUSH2 0x2512 DUP5 DUP3 DUP6 ADD PUSH2 0x22CC JUMP JUMPDEST SWAP2 POP POP SWAP3 SWAP2 POP POP JUMP JUMPDEST PUSH2 0x2524 DUP2 PUSH2 0x22FA JUMP JUMPDEST DUP3 MSTORE POP POP JUMP JUMPDEST PUSH1 0x0 PUSH1 0x20 DUP3 ADD SWAP1 POP PUSH2 0x253F PUSH1 0x0 DUP4 ADD DUP5 PUSH2 0x251B JUMP JUMPDEST SWAP3 SWAP2 POP POP JUMP JUMPDEST PUSH1 0x0 DUP1 PUSH1 0x40 DUP4 DUP6 SUB SLT ISZERO PUSH2 0x255C JUMPI PUSH2 0x255B PUSH2 0x1DF9 JUMP JUMPDEST JUMPDEST PUSH1 0x0 PUSH2 0x256A DUP6 DUP3 DUP7 ADD PUSH2 0x1FB9 JUMP JUMPDEST SWAP3 POP POP PUSH1 0x20 DUP4 ADD CALLDATALOAD PUSH8 0xFFFFFFFFFFFFFFFF DUP2 GT ISZERO PUSH2 0x258B JUMPI PUSH2 0x258A PUSH2 0x1DFE JUMP JUMPDEST JUMPDEST PUSH2 0x2597 DUP6 DUP3 DUP7 ADD PUSH2 0x22CC JUMP JUMPDEST SWAP2 POP POP SWAP3 POP SWAP3 SWAP1 POP JUMP JUMPDEST PUSH1 0x0 PUSH1 0x20 DUP3 DUP5 SUB SLT ISZERO PUSH2 0x25B7 JUMPI PUSH2 0x25B6 PUSH2 0x1DF9 JUMP JUMPDEST JUMPDEST PUSH1 0x0 PUSH2 0x25C5 DUP5 DUP3 DUP6 ADD PUSH2 0x1FB9 JUMP JUMPDEST SWAP2 POP POP SWAP3 SWAP2 POP POP JUMP JUMPDEST PUSH1 0x0 PUSH8 0xFFFFFFFFFFFFFFFF DUP3 GT ISZERO PUSH2 0x25E9 JUMPI PUSH2 0x25E8 PUSH2 0x21CF JUMP JUMPDEST JUMPDEST PUSH1 0x20 DUP3 MUL SWAP1 POP PUSH1 0x20 DUP2 ADD SWAP1 POP SWAP2 SWAP1 POP JUMP JUMPDEST PUSH1 0x0 PUSH2 0x260D PUSH2 0x2608 DUP5 PUSH2 0x25CE JUMP JUMPDEST PUSH2 0x222F JUMP JUMPDEST SWAP1 POP DUP1 DUP4 DUP3 MSTORE PUSH1 0x20 DUP3 ADD SWAP1 POP PUSH1 0x20 DUP5 MUL DUP4 ADD DUP6 DUP2 GT ISZERO PUSH2 0x2630 JUMPI PUSH2 0x262F PUSH2 0x23BE JUMP JUMPDEST JUMPDEST DUP4 JUMPDEST DUP2 DUP2 LT ISZERO PUSH2 0x2677 JUMPI DUP1 CALLDATALOAD PUSH8 0xFFFFFFFFFFFFFFFF DUP2 GT ISZERO PUSH2 0x2655 JUMPI PUSH2 0x2654 PUSH2 0x21C5 JUMP JUMPDEST JUMPDEST DUP1 DUP7 ADD PUSH2 0x2662 DUP10 DUP3 PUSH2 0x22CC JUMP JUMPDEST DUP6 MSTORE PUSH1 0x20 DUP6 ADD SWAP5 POP POP POP PUSH1 0x20 DUP2 ADD SWAP1 POP PUSH2 0x2632 JUMP JUMPDEST POP POP POP SWAP4 SWAP3 POP POP POP JUMP JUMPDEST PUSH1 0x0 DUP3 PUSH1 0x1F DUP4 ADD SLT PUSH2 0x2696 JUMPI PUSH2 0x2695 PUSH2 0x21C5 JUMP JUMPDEST JUMPDEST DUP2 CALLDATALOAD PUSH2 0x26A6 DUP5 DUP3 PUSH1 0x20 DUP7 ADD PUSH2 0x25FA JUMP JUMPDEST SWAP2 POP POP SWAP3 SWAP2 POP POP JUMP JUMPDEST PUSH1 0x0 PUSH1 0x20 DUP3 DUP5 SUB SLT ISZERO PUSH2 0x26C5 JUMPI PUSH2 0x26C4 PUSH2 0x1DF9 JUMP JUMPDEST JUMPDEST PUSH1 0x0 DUP3 ADD CALLDATALOAD PUSH8 0xFFFFFFFFFFFFFFFF DUP2 GT ISZERO PUSH2 0x26E3 JUMPI PUSH2 0x26E2 PUSH2 0x1DFE JUMP JUMPDEST JUMPDEST PUSH2 0x26EF DUP5 DUP3 DUP6 ADD PUSH2 0x2681 JUMP JUMPDEST SWAP2 POP POP SWAP3 SWAP2 POP POP JUMP JUMPDEST PUSH1 0x0 DUP2 MLOAD SWAP1 POP SWAP2 SWAP1 POP JUMP JUMPDEST PUSH1 0x0 DUP3 DUP3 MSTORE PUSH1 0x20 DUP3 ADD SWAP1 POP SWAP3 SWAP2 POP POP JUMP JUMPDEST PUSH1 0x0 DUP2 SWAP1 POP PUSH1 0x20 DUP3 ADD SWAP1 POP SWAP2 SWAP1 POP JUMP JUMPDEST PUSH1 0x0 DUP3 DUP3 MSTORE PUSH1 0x20 DUP3 ADD SWAP1 POP SWAP3 SWAP2 POP POP JUMP JUMPDEST PUSH1 0x0 PUSH2 0x2740 DUP3 PUSH2 0x1EBE JUMP JUMPDEST PUSH2 0x274A DUP2 DUP6 PUSH2 0x2724 JUMP JUMPDEST SWAP4 POP PUSH2 0x275A DUP2 DUP6 PUSH1 0x20 DUP7 ADD PUSH2 0x1EDA JUMP JUMPDEST PUSH2 0x2763 DUP2 PUSH2 0x1F04 JUMP JUMPDEST DUP5 ADD SWAP2 POP POP SWAP3 SWAP2 POP POP JUMP JUMPDEST PUSH1 0x0 PUSH2 0x277A DUP4 DUP4 PUSH2 0x2735 JUMP JUMPDEST SWAP1 POP SWAP3 SWAP2 POP POP JUMP JUMPDEST PUSH1 0x0 PUSH1 0x20 DUP3 ADD SWAP1 POP SWAP2 SWAP1 POP JUMP JUMPDEST PUSH1 0x0 PUSH2 0x279A DUP3 PUSH2 0x26F8 JUMP JUMPDEST PUSH2 0x27A4 DUP2 DUP6 PUSH2 0x2703 JUMP JUMPDEST SWAP4 POP DUP4 PUSH1 0x20 DUP3 MUL DUP6 ADD PUSH2 0x27B6 DUP6 PUSH2 0x2714 JUMP JUMPDEST DUP1 PUSH1 0x0 JUMPDEST DUP6 DUP2 LT ISZERO PUSH2 0x27F2 JUMPI DUP5 DUP5 SUB DUP10 MSTORE DUP2 MLOAD PUSH2 0x27D3 DUP6 DUP3 PUSH2 0x276E JUMP JUMPDEST SWAP5 POP PUSH2 0x27DE DUP4 PUSH2 0x2782 JUMP JUMPDEST SWAP3 POP PUSH1 0x20 DUP11 ADD SWAP10 POP POP PUSH1 0x1 DUP2 ADD SWAP1 POP PUSH2 0x27BA JUMP JUMPDEST POP DUP3 SWAP8 POP DUP8 SWAP6 POP POP POP POP POP POP SWAP3 SWAP2 POP POP JUMP JUMPDEST PUSH1 0x0 PUSH1 0x20 DUP3 ADD SWAP1 POP DUP2 DUP2 SUB PUSH1 0x0 DUP4 ADD MSTORE PUSH2 0x281E DUP2 DUP5 PUSH2 0x278F JUMP JUMPDEST SWAP1 POP SWAP3 SWAP2 POP POP JUMP JUMPDEST PUSH1 0x0 DUP1 PUSH1 0x40 DUP4 DUP6 SUB SLT ISZERO PUSH2 0x283D JUMPI PUSH2 0x283C PUSH2 0x1DF9 JUMP JUMPDEST JUMPDEST PUSH1 0x0 PUSH2 0x284B DUP6 DUP3 DUP7 ADD PUSH2 0x1FB9 JUMP JUMPDEST SWAP3 POP POP PUSH1 0x20 PUSH2 0x285C DUP6 DUP3 DUP7 ADD PUSH2 0x1FB9 JUMP JUMPDEST SWAP2 POP POP SWAP3 POP SWAP3 SWAP1 POP JUMP JUMPDEST PUSH32 0x4E487B7100000000000000000000000000000000000000000000000000000000 PUSH1 0x0 MSTORE PUSH1 0x22 PUSH1 0x4 MSTORE PUSH1 0x24 PUSH1 0x0 REVERT JUMPDEST PUSH1 0x0 PUSH1 0x2 DUP3 DIV SWAP1 POP PUSH1 0x1 DUP3 AND DUP1 PUSH2 0x28AD JUMPI PUSH1 0x7F DUP3 AND SWAP2 POP JUMPDEST PUSH1 0x20 DUP3 LT DUP2 SUB PUSH2 0x28C0 JUMPI PUSH2 0x28BF PUSH2 0x2866 JUMP JUMPDEST JUMPDEST POP SWAP2 SWAP1 POP JUMP JUMPDEST PUSH32 0x4E487B7100000000000000000000000000000000000000000000000000000000 PUSH1 0x0 MSTORE PUSH1 0x11 PUSH1 0x4 MSTORE PUSH1 0x24 PUSH1 0x0 REVERT JUMPDEST PUSH1 0x0 PUSH2 0x2900 DUP3 PUSH2 0x22FA JUMP JUMPDEST SWAP2 POP PUSH2 0x290B DUP4 PUSH2 0x22FA JUMP JUMPDEST SWAP3 POP DUP3 DUP3 ADD SWAP1 POP PUSH4 0xFFFFFFFF DUP2 GT ISZERO PUSH2 0x2927 JUMPI PUSH2 0x2926 PUSH2 0x28C6 JUMP JUMPDEST JUMPDEST SWAP3 SWAP2 POP POP JUMP JUMPDEST PUSH1 0x0 DUP2 MLOAD SWAP1 POP SWAP2 SWAP1 POP JUMP JUMPDEST PUSH1 0x0 DUP2 SWAP1 POP PUSH1 0x20 DUP3 ADD SWAP1 POP SWAP2 SWAP1 POP JUMP JUMPDEST PUSH1 0x0 PUSH2 0x2954 DUP3 MLOAD PUSH2 0x2044 JUMP JUMPDEST DUP1 SWAP2 POP POP SWAP2 SWAP1 POP JUMP JUMPDEST PUSH1 0x0 DUP3 DUP3 SHL SWAP1 POP SWAP3 SWAP2 POP POP JUMP JUMPDEST PUSH1 0x0 PUSH2 0x2975 DUP3 PUSH2 0x292D JUMP JUMPDEST DUP3 PUSH2 0x297F DUP5 PUSH2 0x2938 JUMP JUMPDEST SWAP1 POP PUSH2 0x298A DUP2 PUSH2 0x2948 JUMP JUMPDEST SWAP3 POP PUSH1 0x20 DUP3 LT ISZERO PUSH2 0x29CA JUMPI PUSH2 0x29C5 PUSH32 0xFFFFFFFFFFFFFFFFFFFFFFFFFFFFFFFFFFFFFFFFFFFFFFFFFFFFFFFFFFFFFFFF DUP4 PUSH1 0x20 SUB PUSH1 0x8 MUL PUSH2 0x295D JUMP JUMPDEST DUP4 AND SWAP3 POP JUMPDEST POP POP SWAP2 SWAP1 POP JUMP JUMPDEST PUSH32 0x4E6F20766F746572732070726F76696465640000000000000000000000000000 PUSH1 0x0 DUP3 ADD MSTORE POP JUMP JUMPDEST PUSH1 0x0 PUSH2 0x2A07 PUSH1 0x12 DUP4 PUSH2 0x1EC9 JUMP JUMPDEST SWAP2 POP PUSH2 0x2A12 DUP3 PUSH2 0x29D1 JUMP JUMPDEST PUSH1 0x20 DUP3 ADD SWAP1 POP SWAP2 SWAP1 POP JUMP JUMPDEST PUSH1 0x0 PUSH1 0x20 DUP3 ADD SWAP1 POP DUP2 DUP2 SUB PUSH1 0x0 DUP4 ADD MSTORE PUSH2 0x2A36 DUP2 PUSH2 0x29FA JUMP JUMPDEST SWAP1 POP SWAP2 SWAP1 POP JUMP JUMPDEST PUSH32 0x54686520656C656374696F6E206973206F6E676F696E67000000000000000000 PUSH1 0x0 DUP3 ADD MSTORE POP JUMP JUMPDEST PUSH1 0x0 PUSH2 0x2A73 PUSH1 0x17 DUP4 PUSH2 0x1EC9 JUMP JUMPDEST SWAP2 POP PUSH2 0x2A7E DUP3 PUSH2 0x2A3D JUMP JUMPDEST PUSH1 0x20 DUP3 ADD SWAP1 POP SWAP2 SWAP1 POP JUMP JUMPDEST PUSH1 0x0 PUSH1 0x20 DUP3 ADD SWAP1 POP DUP2 DUP2 SUB PUSH1 0x0 DUP4 ADD MSTORE PUSH2 0x2AA2 DUP2 PUSH2 0x2A66 JUMP JUMPDEST SWAP1 POP SWAP2 SWAP1 POP JUMP JUMPDEST PUSH32 0x4E487B7100000000000000000000000000000000000000000000000000000000 PUSH1 0x0 MSTORE PUSH1 0x32 PUSH1 0x4 MSTORE PUSH1 0x24 PUSH1 0x0 REVERT JUMPDEST PUSH1 0x0 PUSH2 0x2AE3 DUP3 PUSH2 0x218E JUMP JUMPDEST SWAP2 POP PUSH2 0x2AEE DUP4 PUSH2 0x218E JUMP JUMPDEST SWAP3 POP DUP3 DUP3 SUB SWAP1 POP PUSH1 0xFF DUP2 GT ISZERO PUSH2 0x2B07 JUMPI PUSH2 0x2B06 PUSH2 0x28C6 JUMP JUMPDEST JUMPDEST SWAP3 SWAP2 POP POP JUMP JUMPDEST PUSH1 0x0 PUSH2 0xFFFF DUP3 AND SWAP1 POP SWAP2 SWAP1 POP JUMP JUMPDEST PUSH1 0x0 PUSH2 0x2B26 DUP3 PUSH2 0x2B0D JUMP JUMPDEST SWAP2 POP PUSH2 0xFFFF DUP3 SUB PUSH2 0x2B3A JUMPI PUSH2 0x2B39 PUSH2 0x28C6 JUMP JUMPDEST JUMPDEST PUSH1 0x1 DUP3 ADD SWAP1 POP SWAP2 SWAP1 POP JUMP JUMPDEST PUSH32 0x596F7520617265206E6F7420616C6C6F77656420746F20766F74650000000000 PUSH1 0x0 DUP3 ADD MSTORE POP JUMP JUMPDEST PUSH1 0x0 PUSH2 0x2B7B PUSH1 0x1B DUP4 PUSH2 0x1EC9 JUMP JUMPDEST SWAP2 POP PUSH2 0x2B86 DUP3 PUSH2 0x2B45 JUMP JUMPDEST PUSH1 0x20 DUP3 ADD SWAP1 POP SWAP2 SWAP1 POP JUMP JUMPDEST PUSH1 0x0 PUSH1 0x20 DUP3 ADD SWAP1 POP DUP2 DUP2 SUB PUSH1 0x0 DUP4 ADD MSTORE PUSH2 0x2BAA DUP2 PUSH2 0x2B6E JUMP JUMPDEST SWAP1 POP SWAP2 SWAP1 POP JUMP JUMPDEST PUSH32 0x596F7520617265206E6F7420616C6C6F77656420746F207468697320656C6563 PUSH1 0x0 DUP3 ADD MSTORE PUSH32 0x74696F6E00000000000000000000000000000000000000000000000000000000 PUSH1 0x20 DUP3 ADD MSTORE POP JUMP JUMPDEST PUSH1 0x0 PUSH2 0x2C0D PUSH1 0x24 DUP4 PUSH2 0x1EC9 JUMP JUMPDEST SWAP2 POP PUSH2 0x2C18 DUP3 PUSH2 0x2BB1 JUMP JUMPDEST PUSH1 0x40 DUP3 ADD SWAP1 POP SWAP2 SWAP1 POP JUMP JUMPDEST PUSH1 0x0 PUSH1 0x20 DUP3 ADD SWAP1 POP DUP2 DUP2 SUB PUSH1 0x0 DUP4 ADD MSTORE PUSH2 0x2C3C DUP2 PUSH2 0x2C00 JUMP JUMPDEST SWAP1 POP SWAP2 SWAP1 POP JUMP JUMPDEST PUSH32 0x566F74696E6720706572696F642068617320656E646564000000000000000000 PUSH1 0x0 DUP3 ADD MSTORE POP JUMP JUMPDEST PUSH1 0x0 PUSH2 0x2C79 PUSH1 0x17 DUP4 PUSH2 0x1EC9 JUMP JUMPDEST SWAP2 POP PUSH2 0x2C84 DUP3 PUSH2 0x2C43 JUMP JUMPDEST PUSH1 0x20 DUP3 ADD SWAP1 POP SWAP2 SWAP1 POP JUMP JUMPDEST PUSH1 0x0 PUSH1 0x20 DUP3 ADD SWAP1 POP DUP2 DUP2 SUB PUSH1 0x0 DUP4 ADD MSTORE PUSH2 0x2CA8 DUP2 PUSH2 0x2C6C JUMP JUMPDEST SWAP1 POP SWAP2 SWAP1 POP JUMP JUMPDEST PUSH32 0x596F75206861766520616C726561647920766F74656420696E20746869732065 PUSH1 0x0 DUP3 ADD MSTORE PUSH32 0x6C656374696F6E00000000000000000000000000000000000000000000000000 PUSH1 0x20 DUP3 ADD MSTORE POP JUMP JUMPDEST PUSH1 0x0 PUSH2 0x2D0B PUSH1 0x27 DUP4 PUSH2 0x1EC9 JUMP JUMPDEST SWAP2 POP PUSH2 0x2D16 DUP3 PUSH2 0x2CAF JUMP JUMPDEST PUSH1 0x40 DUP3 ADD SWAP1 POP SWAP2 SWAP1 POP JUMP JUMPDEST PUSH1 0x0 PUSH1 0x20 DUP3 ADD SWAP1 POP DUP2 DUP2 SUB PUSH1 0x0 DUP4 ADD MSTORE PUSH2 0x2D3A DUP2 PUSH2 0x2CFE JUMP JUMPDEST SWAP1 POP SWAP2 SWAP1 POP JUMP JUMPDEST PUSH1 0x0 PUSH2 0x2D4C DUP3 PUSH2 0x218E JUMP JUMPDEST SWAP2 POP PUSH2 0x2D57 DUP4 PUSH2 0x218E JUMP JUMPDEST SWAP3 POP DUP3 DUP3 ADD SWAP1 POP PUSH1 0xFF DUP2 GT ISZERO PUSH2 0x2D70 JUMPI PUSH2 0x2D6F PUSH2 0x28C6 JUMP JUMPDEST JUMPDEST SWAP3 SWAP2 POP POP JUMP JUMPDEST PUSH1 0x0 PUSH2 0x2D81 DUP3 PUSH2 0x1FCE JUMP JUMPDEST SWAP2 POP PUSH32 0xFFFFFFFFFFFFFFFFFFFFFFFFFFFFFFFFFFFFFFFFFFFFFFFFFFFFFFFFFFFFFFFF DUP3 SUB PUSH2 0x2DB3 JUMPI PUSH2 0x2DB2 PUSH2 0x28C6 JUMP JUMPDEST JUMPDEST PUSH1 0x1 DUP3 ADD SWAP1 POP SWAP2 SWAP1 POP JUMP JUMPDEST PUSH2 0x2DC7 DUP2 PUSH2 0x1F90 JUMP JUMPDEST DUP3 MSTORE POP POP JUMP JUMPDEST PUSH1 0x0 PUSH1 0x60 DUP3 ADD SWAP1 POP PUSH2 0x2DE2 PUSH1 0x0 DUP4 ADD DUP7 PUSH2 0x2DBE JUMP JUMPDEST PUSH2 0x2DEF PUSH1 0x20 DUP4 ADD DUP6 PUSH2 0x20BA JUMP JUMPDEST PUSH2 0x2DFC PUSH1 0x40 DUP4 ADD DUP5 PUSH2 0x20BA JUMP JUMPDEST SWAP5 SWAP4 POP POP POP POP JUMP JUMPDEST PUSH1 0x0 PUSH1 0x20 DUP3 ADD SWAP1 POP PUSH2 0x2E19 PUSH1 0x0 DUP4 ADD DUP5 PUSH2 0x2DBE JUMP JUMPDEST SWAP3 SWAP2 POP POP JUMP JUMPDEST PUSH1 0x0 PUSH2 0x2E2A DUP3 PUSH2 0x1FCE JUMP JUMPDEST SWAP2 POP PUSH2 0x2E35 DUP4 PUSH2 0x1FCE JUMP JUMPDEST SWAP3 POP DUP3 DUP3 ADD SWAP1 POP DUP1 DUP3 GT ISZERO PUSH2 0x2E4D JUMPI PUSH2 0x2E4C PUSH2 0x28C6 JUMP JUMPDEST JUMPDEST SWAP3 SWAP2 POP POP JUMP JUMPDEST PUSH1 0x0 PUSH1 0x40 DUP3 ADD SWAP1 POP PUSH2 0x2E68 PUSH1 0x0 DUP4 ADD DUP6 PUSH2 0x2DBE JUMP JUMPDEST PUSH2 0x2E75 PUSH1 0x20 DUP4 ADD DUP5 PUSH2 0x2164 JUMP JUMPDEST SWAP4 SWAP3 POP POP POP JUMP INVALID LOG2 PUSH5 0x6970667358 0x22 SLT KECCAK256 PUSH3 0x15968D 0xB5 0xD0 PUSH22 0xEAB5F316C8E4079A10B7E77893DA7B27028E617DBC5 DUP5 0xA5 0x22 PUSH5 0x736F6C6343 STOP ADDMOD OR STOP CALLER "},"methodIdentifiers":{"DEFAULT_ADMIN_ROLE()":"a217fddf","allowance(address,address)":"dd62ed3e","approve(address,uint256)":"095ea7b3","approveElection(bytes32,address)":"0ebf1765","approveVote(address[],string)":"85d07a7e","balanceOf(address)":"70a08231","clock()":"91ddadf4","decimals()":"313ce567","getDurationTime(string)":"42457973","getNotFinishElection(string[])":"bb5be3b0","getRoleAdmin(bytes32)":"248a9ca3","grantRole(bytes32,address)":"2f2ff15d","hasRole(bytes32,address)":"91d14854","name()":"06fdde03","renounceRole(bytes32,address)":"36568abe","revokePermission(address[],string)":"3fc447b2","revokeRole(bytes32,address)":"d547741f","setDurationTime(string,uint32)":"3cef521e","supportsInterface(bytes4)":"01ffc9a7","symbol()":"95d89b41","totalSupply()":"18160ddd","transfer(address,uint256)":"a9059cbb","transferFrom(address,address,uint256)":"23b872dd","voted(bytes32,address)":"d9a75572","voting(address,string)":"51ac9956"}},"storageLayout":{"storage":[{"astId":538,"contract":"contracts/VoteToken.sol:VoteToken","label":"_balances","offset":0,"slot":"0","type":"t_mapping(t_address,t_uint256)"},{"astId":544,"contract":"contracts/VoteToken.sol:VoteToken","label":"_allowances","offset":0,"slot":"1","type":"t_mapping(t_address,t_mapping(t_address,t_uint256))"},{"astId":546,"contract":"contracts/VoteToken.sol:VoteToken","label":"_totalSupply","offset":0,"slot":"2","type":"t_uint256"},{"astId":548,"contract":"contracts/VoteToken.sol:VoteToken","label":"_name","offset":0,"slot":"3","type":"t_string_storage"},{"astId":550,"contract":"contracts/VoteToken.sol:VoteToken","label":"_symbol","offset":0,"slot":"4","type":"t_string_storage"},{"astId":26,"contract":"contracts/VoteToken.sol:VoteToken","label":"_roles","offset":0,"slot":"5","type":"t_mapping(t_bytes32,t_struct(RoleData)21_storage)"},{"astId":1494,"contract":"contracts/VoteToken.sol:VoteToken","label":"votingDuration","offset":0,"slot":"6","type":"t_mapping(t_bytes32,t_uint32)"},{"astId":1500,"contract":"contracts/VoteToken.sol:VoteToken","label":"voted","offset":0,"slot":"7","type":"t_mapping(t_bytes32,t_mapping(t_address,t_bool))"},{"astId":1506,"contract":"contracts/VoteToken.sol:VoteToken","label":"approveElection","offset":0,"slot":"8","type":"t_mapping(t_bytes32,t_mapping(t_address,t_bool))"},{"astId":1508,"contract":"contracts/VoteToken.sol:VoteToken","label":"admin","offset":0,"slot":"9","type":"t_address"}],"types":{"t_address":{"encoding":"inplace","label":"address","numberOfBytes":"20"},"t_bool":{"encoding":"inplace","label":"bool","numberOfBytes":"1"},"t_bytes32":{"encoding":"inplace","label":"bytes32","numberOfBytes":"32"},"t_mapping(t_address,t_bool)":{"encoding":"mapping","key":"t_address","label":"mapping(address => bool)","numberOfBytes":"32","value":"t_bool"},"t_mapping(t_address,t_mapping(t_address,t_uint256))":{"encoding":"mapping","key":"t_address","label":"mapping(address => mapping(address => uint256))","numberOfBytes":"32","value":"t_mapping(t_address,t_uint256)"},"t_mapping(t_address,t_uint256)":{"encoding":"mapping","key":"t_address","label":"mapping(address => uint256)","numberOfBytes":"32","value":"t_uint256"},"t_mapping(t_bytes32,t_mapping(t_address,t_bool))":{"encoding":"mapping","key":"t_bytes32","label":"mapping(bytes32 => mapping(address => bool))","numberOfBytes":"32","value":"t_mapping(t_address,t_bool)"},"t_mapping(t_bytes32,t_struct(RoleData)21_storage)":{"encoding":"mapping","key":"t_bytes32","label":"mapping(bytes32 => struct AccessControl.RoleData)","numberOfBytes":"32","value":"t_struct(RoleData)21_storage"},"t_mapping(t_bytes32,t_uint32)":{"encoding":"mapping","key":"t_bytes32","label":"mapping(bytes32 => uint32)","numberOfBytes":"32","value":"t_uint32"},"t_string_storage":{"encoding":"bytes","label":"string","numberOfBytes":"32"},"t_struct(RoleData)21_storage":{"encoding":"inplace","label":"struct AccessControl.RoleData","members":[{"astId":18,"contract":"contracts/VoteToken.sol:VoteToken","label":"hasRole","offset":0,"slot":"0","type":"t_mapping(t_address,t_bool)"},{"astId":20,"contract":"contracts/VoteToken.sol:VoteToken","label":"adminRole","offset":0,"slot":"1","type":"t_bytes32"}],"numberOfBytes":"64"},"t_uint256":{"encoding":"inplace","label":"uint256","numberOfBytes":"32"},"t_uint32":{"encoding":"inplace","label":"uint32","numberOfBytes":"4"}}}}}}