{
  "_format": "hh-sol-artifact-1",
  "contractName": "VoteToken",
  "sourceName": "contracts/VoteToken.sol",
  "abi": [
    {
      "inputs": [
        {
          "internalType": "uint16",
          "name": "voterCount",
          "type": "uint16"
        }
      ],
      "stateMutability": "nonpayable",
      "type": "constructor"
    },
    {
      "inputs": [],
      "name": "AccessControlBadConfirmation",
      "type": "error"
    },
    {
      "inputs": [
        {
          "internalType": "address",
          "name": "account",
          "type": "address"
        },
        {
          "internalType": "bytes32",
          "name": "neededRole",
          "type": "bytes32"
        }
      ],
      "name": "AccessControlUnauthorizedAccount",
      "type": "error"
    },
    {
      "inputs": [
        {
          "internalType": "address",
          "name": "spender",
          "type": "address"
        },
        {
          "internalType": "uint256",
          "name": "allowance",
          "type": "uint256"
        },
        {
          "internalType": "uint256",
          "name": "needed",
          "type": "uint256"
        }
      ],
      "name": "ERC20InsufficientAllowance",
      "type": "error"
    },
    {
      "inputs": [
        {
          "internalType": "address",
          "name": "sender",
          "type": "address"
        },
        {
          "internalType": "uint256",
          "name": "balance",
          "type": "uint256"
        },
        {
          "internalType": "uint256",
          "name": "needed",
          "type": "uint256"
        }
      ],
      "name": "ERC20InsufficientBalance",
      "type": "error"
    },
    {
      "inputs": [
        {
          "internalType": "address",
          "name": "approver",
          "type": "address"
        }
      ],
      "name": "ERC20InvalidApprover",
      "type": "error"
    },
    {
      "inputs": [
        {
          "internalType": "address",
          "name": "receiver",
          "type": "address"
        }
      ],
      "name": "ERC20InvalidReceiver",
      "type": "error"
    },
    {
      "inputs": [
        {
          "internalType": "address",
          "name": "sender",
          "type": "address"
        }
      ],
      "name": "ERC20InvalidSender",
      "type": "error"
    },
    {
      "inputs": [
        {
          "internalType": "address",
          "name": "spender",
          "type": "address"
        }
      ],
      "name": "ERC20InvalidSpender",
      "type": "error"
    },
    {
      "anonymous": false,
      "inputs": [
        {
          "indexed": true,
          "internalType": "address",
          "name": "owner",
          "type": "address"
        },
        {
          "indexed": true,
          "internalType": "address",
          "name": "spender",
          "type": "address"
        },
        {
          "indexed": false,
          "internalType": "uint256",
          "name": "value",
          "type": "uint256"
        }
      ],
      "name": "Approval",
      "type": "event"
    },
    {
      "anonymous": false,
      "inputs": [
        {
          "indexed": true,
          "internalType": "bytes32",
          "name": "role",
          "type": "bytes32"
        },
        {
          "indexed": true,
          "internalType": "bytes32",
          "name": "previousAdminRole",
          "type": "bytes32"
        },
        {
          "indexed": true,
          "internalType": "bytes32",
          "name": "newAdminRole",
          "type": "bytes32"
        }
      ],
      "name": "RoleAdminChanged",
      "type": "event"
    },
    {
      "anonymous": false,
      "inputs": [
        {
          "indexed": true,
          "internalType": "bytes32",
          "name": "role",
          "type": "bytes32"
        },
        {
          "indexed": true,
          "internalType": "address",
          "name": "account",
          "type": "address"
        },
        {
          "indexed": true,
          "internalType": "address",
          "name": "sender",
          "type": "address"
        }
      ],
      "name": "RoleGranted",
      "type": "event"
    },
    {
      "anonymous": false,
      "inputs": [
        {
          "indexed": true,
          "internalType": "bytes32",
          "name": "role",
          "type": "bytes32"
        },
        {
          "indexed": true,
          "internalType": "address",
          "name": "account",
          "type": "address"
        },
        {
          "indexed": true,
          "internalType": "address",
          "name": "sender",
          "type": "address"
        }
      ],
      "name": "RoleRevoked",
      "type": "event"
    },
    {
      "anonymous": false,
      "inputs": [
        {
          "indexed": true,
          "internalType": "address",
          "name": "from",
          "type": "address"
        },
        {
          "indexed": true,
          "internalType": "address",
          "name": "to",
          "type": "address"
        },
        {
          "indexed": false,
          "internalType": "uint256",
          "name": "value",
          "type": "uint256"
        }
      ],
      "name": "Transfer",
      "type": "event"
    },
    {
      "inputs": [],
      "name": "DEFAULT_ADMIN_ROLE",
      "outputs": [
        {
          "internalType": "bytes32",
          "name": "",
          "type": "bytes32"
        }
      ],
      "stateMutability": "view",
      "type": "function"
    },
    {
      "inputs": [
        {
          "internalType": "address",
          "name": "owner",
          "type": "address"
        },
        {
          "internalType": "address",
          "name": "spender",
          "type": "address"
        }
      ],
      "name": "allowance",
      "outputs": [
        {
          "internalType": "uint256",
          "name": "",
          "type": "uint256"
        }
      ],
      "stateMutability": "view",
      "type": "function"
    },
    {
      "inputs": [
        {
          "internalType": "address",
          "name": "spender",
          "type": "address"
        },
        {
          "internalType": "uint256",
          "name": "value",
          "type": "uint256"
        }
      ],
      "name": "approve",
      "outputs": [
        {
          "internalType": "bool",
          "name": "",
          "type": "bool"
        }
      ],
      "stateMutability": "nonpayable",
      "type": "function"
    },
    {
      "inputs": [
        {
          "internalType": "bytes32",
          "name": "",
          "type": "bytes32"
        },
        {
          "internalType": "address",
          "name": "",
          "type": "address"
        }
      ],
      "name": "approveElection",
      "outputs": [
        {
          "internalType": "bool",
          "name": "",
          "type": "bool"
        }
      ],
      "stateMutability": "view",
      "type": "function"
    },
    {
      "inputs": [
        {
          "internalType": "address[]",
          "name": "voters",
          "type": "address[]"
        },
        {
          "internalType": "string",
          "name": "electionName",
          "type": "string"
        }
      ],
      "name": "approveVote",
      "outputs": [],
      "stateMutability": "nonpayable",
      "type": "function"
    },
    {
      "inputs": [
        {
          "internalType": "address",
          "name": "account",
          "type": "address"
        }
      ],
      "name": "balanceOf",
      "outputs": [
        {
          "internalType": "uint256",
          "name": "",
          "type": "uint256"
        }
      ],
      "stateMutability": "view",
      "type": "function"
    },
    {
      "inputs": [],
      "name": "clock",
      "outputs": [
        {
          "internalType": "uint32",
          "name": "",
          "type": "uint32"
        }
      ],
      "stateMutability": "view",
      "type": "function"
    },
    {
      "inputs": [],
      "name": "decimals",
      "outputs": [
        {
          "internalType": "uint8",
          "name": "",
          "type": "uint8"
        }
      ],
      "stateMutability": "view",
      "type": "function"
    },
    {
      "inputs": [
        {
          "internalType": "string",
          "name": "electionName",
          "type": "string"
        }
      ],
      "name": "getDurationTime",
      "outputs": [
        {
          "internalType": "uint32",
          "name": "",
          "type": "uint32"
        }
      ],
      "stateMutability": "view",
      "type": "function"
    },
    {
      "inputs": [
        {
          "internalType": "string[]",
          "name": "electionNames",
          "type": "string[]"
        }
      ],
      "name": "getNotFinishElection",
      "outputs": [
        {
          "internalType": "string[]",
          "name": "",
          "type": "string[]"
        }
      ],
      "stateMutability": "view",
      "type": "function"
    },
    {
      "inputs": [
        {
          "internalType": "bytes32",
          "name": "role",
          "type": "bytes32"
        }
      ],
      "name": "getRoleAdmin",
      "outputs": [
        {
          "internalType": "bytes32",
          "name": "",
          "type": "bytes32"
        }
      ],
      "stateMutability": "view",
      "type": "function"
    },
    {
      "inputs": [
        {
          "internalType": "bytes32",
          "name": "role",
          "type": "bytes32"
        },
        {
          "internalType": "address",
          "name": "account",
          "type": "address"
        }
      ],
      "name": "grantRole",
      "outputs": [],
      "stateMutability": "nonpayable",
      "type": "function"
    },
    {
      "inputs": [
        {
          "internalType": "bytes32",
          "name": "role",
          "type": "bytes32"
        },
        {
          "internalType": "address",
          "name": "account",
          "type": "address"
        }
      ],
      "name": "hasRole",
      "outputs": [
        {
          "internalType": "bool",
          "name": "",
          "type": "bool"
        }
      ],
      "stateMutability": "view",
      "type": "function"
    },
    {
      "inputs": [],
      "name": "name",
      "outputs": [
        {
          "internalType": "string",
          "name": "",
          "type": "string"
        }
      ],
      "stateMutability": "view",
      "type": "function"
    },
    {
      "inputs": [
        {
          "internalType": "bytes32",
          "name": "role",
          "type": "bytes32"
        },
        {
          "internalType": "address",
          "name": "callerConfirmation",
          "type": "address"
        }
      ],
      "name": "renounceRole",
      "outputs": [],
      "stateMutability": "nonpayable",
      "type": "function"
    },
    {
      "inputs": [
        {
          "internalType": "address[]",
          "name": "voters",
          "type": "address[]"
        },
        {
          "internalType": "string",
          "name": "electionName",
          "type": "string"
        }
      ],
      "name": "revokePermission",
      "outputs": [],
      "stateMutability": "nonpayable",
      "type": "function"
    },
    {
      "inputs": [
        {
          "internalType": "bytes32",
          "name": "role",
          "type": "bytes32"
        },
        {
          "internalType": "address",
          "name": "account",
          "type": "address"
        }
      ],
      "name": "revokeRole",
      "outputs": [],
      "stateMutability": "nonpayable",
      "type": "function"
    },
    {
      "inputs": [
        {
          "internalType": "string",
          "name": "electionName",
          "type": "string"
        },
        {
          "internalType": "uint32",
          "name": "time",
          "type": "uint32"
        }
      ],
      "name": "setDurationTime",
      "outputs": [],
      "stateMutability": "nonpayable",
      "type": "function"
    },
    {
      "inputs": [
        {
          "internalType": "bytes4",
          "name": "interfaceId",
          "type": "bytes4"
        }
      ],
      "name": "supportsInterface",
      "outputs": [
        {
          "internalType": "bool",
          "name": "",
          "type": "bool"
        }
      ],
      "stateMutability": "view",
      "type": "function"
    },
    {
      "inputs": [],
      "name": "symbol",
      "outputs": [
        {
          "internalType": "string",
          "name": "",
          "type": "string"
        }
      ],
      "stateMutability": "view",
      "type": "function"
    },
    {
      "inputs": [],
      "name": "totalSupply",
      "outputs": [
        {
          "internalType": "uint256",
          "name": "",
          "type": "uint256"
        }
      ],
      "stateMutability": "view",
      "type": "function"
    },
    {
      "inputs": [
        {
          "internalType": "address",
          "name": "to",
          "type": "address"
        },
        {
          "internalType": "uint256",
          "name": "value",
          "type": "uint256"
        }
      ],
      "name": "transfer",
      "outputs": [
        {
          "internalType": "bool",
          "name": "",
          "type": "bool"
        }
      ],
      "stateMutability": "nonpayable",
      "type": "function"
    },
    {
      "inputs": [
        {
          "internalType": "address",
          "name": "from",
          "type": "address"
        },
        {
          "internalType": "address",
          "name": "to",
          "type": "address"
        },
        {
          "internalType": "uint256",
          "name": "value",
          "type": "uint256"
        }
      ],
      "name": "transferFrom",
      "outputs": [
        {
          "internalType": "bool",
          "name": "",
          "type": "bool"
        }
      ],
      "stateMutability": "nonpayable",
      "type": "function"
    },
    {
      "inputs": [
        {
          "internalType": "bytes32",
          "name": "",
          "type": "bytes32"
        },
        {
          "internalType": "address",
          "name": "",
          "type": "address"
        }
      ],
      "name": "voted",
      "outputs": [
        {
          "internalType": "bool",
          "name": "",
          "type": "bool"
        }
      ],
      "stateMutability": "view",
      "type": "function"
    },
    {
      "inputs": [
        {
          "internalType": "address",
          "name": "aday",
          "type": "address"
        },
        {
          "internalType": "string",
          "name": "electionName",
          "type": "string"
        }
      ],
      "name": "voting",
      "outputs": [],
      "stateMutability": "nonpayable",
      "type": "function"
    }
  ],
  "bytecode": "0x60806040523480156200001157600080fd5b5060405162003941380380620039418339818101604052810190620000379190620005b5565b6040518060400160405280600481526020017f566f7465000000000000000000000000000000000000000000000000000000008152506040518060400160405280600281526020017f56540000000000000000000000000000000000000000000000000000000000008152508160039081620000b4919062000861565b508060049081620000c6919062000861565b505050620000de6000801b336200013d60201b60201c565b5033600960006101000a81548173ffffffffffffffffffffffffffffffffffffffff021916908373ffffffffffffffffffffffffffffffffffffffff16021790555062000136338261ffff166200024160201b60201c565b5062000a7f565b6000620001518383620002ce60201b60201c565b620002365760016005600085815260200190815260200160002060000160008473ffffffffffffffffffffffffffffffffffffffff1673ffffffffffffffffffffffffffffffffffffffff16815260200190815260200160002060006101000a81548160ff021916908315150217905550620001d26200033960201b60201c565b73ffffffffffffffffffffffffffffffffffffffff168273ffffffffffffffffffffffffffffffffffffffff16847f2f8788117e7eff1d82e926ec794901d17c78024a50270940304540a733656f0d60405160405180910390a4600190506200023b565b600090505b92915050565b600073ffffffffffffffffffffffffffffffffffffffff168273ffffffffffffffffffffffffffffffffffffffff1603620002b65760006040517fec442f05000000000000000000000000000000000000000000000000000000008152600401620002ad91906200098d565b60405180910390fd5b620002ca600083836200034160201b60201c565b5050565b60006005600084815260200190815260200160002060000160008373ffffffffffffffffffffffffffffffffffffffff1673ffffffffffffffffffffffffffffffffffffffff16815260200190815260200160002060009054906101000a900460ff16905092915050565b600033905090565b600073ffffffffffffffffffffffffffffffffffffffff168373ffffffffffffffffffffffffffffffffffffffff1603620003975780600260008282546200038a9190620009d9565b925050819055506200046d565b60008060008573ffffffffffffffffffffffffffffffffffffffff1673ffffffffffffffffffffffffffffffffffffffff1681526020019081526020016000205490508181101562000426578381836040517fe450d38c0000000000000000000000000000000000000000000000000000000081526004016200041d9392919062000a25565b60405180910390fd5b8181036000808673ffffffffffffffffffffffffffffffffffffffff1673ffffffffffffffffffffffffffffffffffffffff16815260200190815260200160002081905550505b600073ffffffffffffffffffffffffffffffffffffffff168273ffffffffffffffffffffffffffffffffffffffff1603620004b8578060026000828254039250508190555062000505565b806000808473ffffffffffffffffffffffffffffffffffffffff1673ffffffffffffffffffffffffffffffffffffffff168152602001908152602001600020600082825401925050819055505b8173ffffffffffffffffffffffffffffffffffffffff168373ffffffffffffffffffffffffffffffffffffffff167fddf252ad1be2c89b69c2b068fc378daa952ba7f163c4a11628f55a4df523b3ef8360405162000564919062000a62565b60405180910390a3505050565b600080fd5b600061ffff82169050919050565b6200058f8162000576565b81146200059b57600080fd5b50565b600081519050620005af8162000584565b92915050565b600060208284031215620005ce57620005cd62000571565b5b6000620005de848285016200059e565b91505092915050565b600081519050919050565b7f4e487b7100000000000000000000000000000000000000000000000000000000600052604160045260246000fd5b7f4e487b7100000000000000000000000000000000000000000000000000000000600052602260045260246000fd5b600060028204905060018216806200066957607f821691505b6020821081036200067f576200067e62000621565b5b50919050565b60008190508160005260206000209050919050565b60006020601f8301049050919050565b600082821b905092915050565b600060088302620006e97fffffffffffffffffffffffffffffffffffffffffffffffffffffffffffffffff82620006aa565b620006f58683620006aa565b95508019841693508086168417925050509392505050565b6000819050919050565b6000819050919050565b6000620007426200073c62000736846200070d565b62000717565b6200070d565b9050919050565b6000819050919050565b6200075e8362000721565b620007766200076d8262000749565b848454620006b7565b825550505050565b600090565b6200078d6200077e565b6200079a81848462000753565b505050565b5b81811015620007c257620007b660008262000783565b600181019050620007a0565b5050565b601f8211156200081157620007db8162000685565b620007e6846200069a565b81016020851015620007f6578190505b6200080e62000805856200069a565b8301826200079f565b50505b505050565b600082821c905092915050565b6000620008366000198460080262000816565b1980831691505092915050565b600062000851838362000823565b9150826002028217905092915050565b6200086c82620005e7565b67ffffffffffffffff811115620008885762000887620005f2565b5b62000894825462000650565b620008a1828285620007c6565b600060209050601f831160018114620008d95760008415620008c4578287015190505b620008d0858262000843565b86555062000940565b601f198416620008e98662000685565b60005b828110156200091357848901518255600182019150602085019450602081019050620008ec565b868310156200093357848901516200092f601f89168262000823565b8355505b6001600288020188555050505b505050505050565b600073ffffffffffffffffffffffffffffffffffffffff82169050919050565b6000620009758262000948565b9050919050565b620009878162000968565b82525050565b6000602082019050620009a460008301846200097c565b92915050565b7f4e487b7100000000000000000000000000000000000000000000000000000000600052601160045260246000fd5b6000620009e6826200070d565b9150620009f3836200070d565b925082820190508082111562000a0e5762000a0d620009aa565b5b92915050565b62000a1f816200070d565b82525050565b600060608201905062000a3c60008301866200097c565b62000a4b602083018562000a14565b62000a5a604083018462000a14565b949350505050565b600060208201905062000a79600083018462000a14565b92915050565b612eb28062000a8f6000396000f3fe608060405234801561001057600080fd5b50600436106101735760003560e01c806342457973116100de57806395d89b4111610097578063bb5be3b011610071578063bb5be3b014610484578063d547741f146104b4578063d9a75572146104d0578063dd62ed3e1461050057610173565b806395d89b4114610418578063a217fddf14610436578063a9059cbb1461045457610173565b8063424579731461033257806351ac99561461036257806370a082311461037e57806385d07a7e146103ae57806391d14854146103ca57806391ddadf4146103fa57610173565b8063248a9ca311610130578063248a9ca3146102745780632f2ff15d146102a4578063313ce567146102c057806336568abe146102de5780633cef521e146102fa5780633fc447b21461031657610173565b806301ffc9a71461017857806306fdde03146101a8578063095ea7b3146101c65780630ebf1765146101f657806318160ddd1461022657806323b872dd14610244575b600080fd5b610192600480360381019061018d9190611e5b565b610530565b60405161019f9190611ea3565b60405180910390f35b6101b06105aa565b6040516101bd9190611f4e565b60405180910390f35b6101e060048036038101906101db9190612004565b61063c565b6040516101ed9190611ea3565b60405180910390f35b610210600480360381019061020b919061207a565b61065f565b60405161021d9190611ea3565b60405180910390f35b61022e61068e565b60405161023b91906120c9565b60405180910390f35b61025e600480360381019061025991906120e4565b610698565b60405161026b9190611ea3565b60405180910390f35b61028e60048036038101906102899190612137565b6106c7565b60405161029b9190612173565b60405180910390f35b6102be60048036038101906102b9919061207a565b6106e7565b005b6102c8610709565b6040516102d591906121aa565b60405180910390f35b6102f860048036038101906102f3919061207a565b610712565b005b610314600480360381019061030f9190612336565b61078d565b005b610330600480360381019061032b919061245a565b6107ec565b005b61034c600480360381019061034791906124d2565b610b08565b604051610359919061252a565b60405180910390f35b61037c60048036038101906103779190612545565b610b3e565b005b610398600480360381019061039391906125a1565b610e5c565b6040516103a591906120c9565b60405180910390f35b6103c860048036038101906103c3919061245a565b610ea4565b005b6103e460048036038101906103df919061207a565b611144565b6040516103f19190611ea3565b60405180910390f35b6104026111af565b60405161040f919061252a565b60405180910390f35b6104206111b7565b60405161042d9190611f4e565b60405180910390f35b61043e611249565b60405161044b9190612173565b60405180910390f35b61046e60048036038101906104699190612004565b611250565b60405161047b9190611ea3565b60405180910390f35b61049e600480360381019061049991906126af565b611273565b6040516104ab9190612804565b60405180910390f35b6104ce60048036038101906104c9919061207a565b611413565b005b6104ea60048036038101906104e5919061207a565b611435565b6040516104f79190611ea3565b60405180910390f35b61051a60048036038101906105159190612826565b611464565b60405161052791906120c9565b60405180910390f35b60007f7965db0b000000000000000000000000000000000000000000000000000000007bffffffffffffffffffffffffffffffffffffffffffffffffffffffff1916827bffffffffffffffffffffffffffffffffffffffffffffffffffffffff191614806105a357506105a2826114eb565b5b9050919050565b6060600380546105b990612895565b80601f01602080910402602001604051908101604052809291908181526020018280546105e590612895565b80156106325780601f1061060757610100808354040283529160200191610632565b820191906000526020600020905b81548152906001019060200180831161061557829003601f168201915b5050505050905090565b600080610647611555565b905061065481858561155d565b600191505092915050565b60086020528160005260406000206020528060005260406000206000915091509054906101000a900460ff1681565b6000600254905090565b6000806106a3611555565b90506106b085828561156f565b6106bb858585611604565b60019150509392505050565b600060056000838152602001908152602001600020600101549050919050565b6106f0826106c7565b6106f9816116f8565b610703838361170c565b50505050565b60006012905090565b61071a611555565b73ffffffffffffffffffffffffffffffffffffffff168173ffffffffffffffffffffffffffffffffffffffff161461077e576040517f6697b23200000000000000000000000000000000000000000000000000000000815260040160405180910390fd5b61078882826117fe565b505050565b6000801b61079a816116f8565b816107a36111af565b6107ad91906128f5565b60066000856107bb9061296a565b815260200190815260200160002060006101000a81548163ffffffff021916908363ffffffff160217905550505050565b6000801b6107f9816116f8565b600083511161083d576040517f08c379a000000000000000000000000000000000000000000000000000000000815260040161083490612a1d565b60405180910390fd5b600660008361084b9061296a565b815260200190815260200160002060009054906101000a900463ffffffff1663ffffffff166108786111af565b63ffffffff16116108be576040517f08c379a00000000000000000000000000000000000000000000000000000000081526004016108b590612a89565b60405180910390fd5b60005b83518161ffff161015610b025760076000846108dc9061296a565b81526020019081526020016000206000858361ffff168151811061090357610902612aa9565b5b602002602001015173ffffffffffffffffffffffffffffffffffffffff1673ffffffffffffffffffffffffffffffffffffffff16815260200190815260200160002060009054906101000a900460ff16610aef57600060086000856109679061296a565b81526020019081526020016000206000868461ffff168151811061098e5761098d612aa9565b5b602002602001015173ffffffffffffffffffffffffffffffffffffffff1673ffffffffffffffffffffffffffffffffffffffff16815260200190815260200160002060006101000a81548160ff0219169083151502179055506000610a33600960009054906101000a900473ffffffffffffffffffffffffffffffffffffffff16868461ffff1681518110610a2657610a25612aa9565b5b6020026020010151611464565b905060018160ff161115610aa057610a9b600960009054906101000a900473ffffffffffffffffffffffffffffffffffffffff16868461ffff1681518110610a7e57610a7d612aa9565b5b6020026020010151600184610a939190612ad8565b60ff1661155d565b610aed565b610aec600960009054906101000a900473ffffffffffffffffffffffffffffffffffffffff16868461ffff1681518110610add57610adc612aa9565b5b6020026020010151600061155d565b5b505b8080610afa90612b1b565b9150506108c1565b50505050565b60006006600083610b189061296a565b815260200190815260200160002060009054906101000a900463ffffffff169050919050565b6001610b6c600960009054906101000a900473ffffffffffffffffffffffffffffffffffffffff1633611464565b1015610bad576040517f08c379a0000000000000000000000000000000000000000000000000000000008152600401610ba490612b91565b60405180910390fd5b6008600082610bbb9061296a565b815260200190815260200160002060003373ffffffffffffffffffffffffffffffffffffffff1673ffffffffffffffffffffffffffffffffffffffff16815260200190815260200160002060009054906101000a900460ff16610c53576040517f08c379a0000000000000000000000000000000000000000000000000000000008152600401610c4a90612c23565b60405180910390fd5b6006600082610c619061296a565b815260200190815260200160002060009054906101000a900463ffffffff1663ffffffff16610c8e6111af565b63ffffffff1610610cd4576040517f08c379a0000000000000000000000000000000000000000000000000000000008152600401610ccb90612c8f565b60405180910390fd5b6007600082610ce29061296a565b815260200190815260200160002060003373ffffffffffffffffffffffffffffffffffffffff1673ffffffffffffffffffffffffffffffffffffffff16815260200190815260200160002060009054906101000a900460ff1615610d7b576040517f08c379a0000000000000000000000000000000000000000000000000000000008152600401610d7290612d21565b60405180910390fd5b6001610da8600960009054906101000a900473ffffffffffffffffffffffffffffffffffffffff16610e5c565b1015610db757610db66118f1565b5b610de5600960009054906101000a900473ffffffffffffffffffffffffffffffffffffffff16836001610698565b5060016007600083610df69061296a565b815260200190815260200160002060003373ffffffffffffffffffffffffffffffffffffffff1673ffffffffffffffffffffffffffffffffffffffff16815260200190815260200160002060006101000a81548160ff0219169083151502179055505050565b60008060008373ffffffffffffffffffffffffffffffffffffffff1673ffffffffffffffffffffffffffffffffffffffff168152602001908152602001600020549050919050565b6000801b610eb1816116f8565b6000835111610ef5576040517f08c379a0000000000000000000000000000000000000000000000000000000008152600401610eec90612a1d565b60405180910390fd5b60005b83518161ffff16101561113e5760006007600085610f159061296a565b81526020019081526020016000206000868461ffff1681518110610f3c57610f3b612aa9565b5b602002602001015173ffffffffffffffffffffffffffffffffffffffff1673ffffffffffffffffffffffffffffffffffffffff16815260200190815260200160002060006101000a81548160ff02191690831515021790555060016008600085610fa59061296a565b81526020019081526020016000206000868461ffff1681518110610fcc57610fcb612aa9565b5b602002602001015173ffffffffffffffffffffffffffffffffffffffff1673ffffffffffffffffffffffffffffffffffffffff16815260200190815260200160002060006101000a81548160ff0219169083151502179055506000611071600960009054906101000a900473ffffffffffffffffffffffffffffffffffffffff16868461ffff168151811061106457611063612aa9565b5b6020026020010151611464565b905060018160ff16106110dd576110d8600960009054906101000a900473ffffffffffffffffffffffffffffffffffffffff16868461ffff16815181106110bb576110ba612aa9565b5b60200260200101516001846110d09190612d41565b60ff1661155d565b61112a565b611129600960009054906101000a900473ffffffffffffffffffffffffffffffffffffffff16868461ffff168151811061111a57611119612aa9565b5b6020026020010151600161155d565b5b50808061113690612b1b565b915050610ef8565b50505050565b60006005600084815260200190815260200160002060000160008373ffffffffffffffffffffffffffffffffffffffff1673ffffffffffffffffffffffffffffffffffffffff16815260200190815260200160002060009054906101000a900460ff16905092915050565b600042905090565b6060600480546111c690612895565b80601f01602080910402602001604051908101604052809291908181526020018280546111f290612895565b801561123f5780601f106112145761010080835404028352916020019161123f565b820191906000526020600020905b81548152906001019060200180831161122257829003601f168201915b5050505050905090565b6000801b81565b60008061125b611555565b9050611268818585611604565b600191505092915050565b60606000805b83518110156112f857600084828151811061129757611296612aa9565b5b60200260200101516112a89061296a565b9050426006600083815260200190815260200160002060009054906101000a900463ffffffff1663ffffffff1611156112ea5782806112e690612d76565b9350505b508080600101915050611279565b5060008167ffffffffffffffff811115611315576113146121cf565b5b60405190808252806020026020018201604052801561134857816020015b60608152602001906001900390816113335790505b5090506000805b855181101561140757600086828151811061136d5761136c612aa9565b5b602002602001015161137e9061296a565b9050426006600083815260200190815260200160002060009054906101000a900463ffffffff1663ffffffff1611156113f9578682815181106113c4576113c3612aa9565b5b60200260200101518484815181106113df576113de612aa9565b5b602002602001018190525082806113f590612d76565b9350505b50808060010191505061134f565b50819350505050919050565b61141c826106c7565b611425816116f8565b61142f83836117fe565b50505050565b60076020528160005260406000206020528060005260406000206000915091509054906101000a900460ff1681565b6000600160008473ffffffffffffffffffffffffffffffffffffffff1673ffffffffffffffffffffffffffffffffffffffff16815260200190815260200160002060008373ffffffffffffffffffffffffffffffffffffffff1673ffffffffffffffffffffffffffffffffffffffff16815260200190815260200160002054905092915050565b60007f01ffc9a7000000000000000000000000000000000000000000000000000000007bffffffffffffffffffffffffffffffffffffffffffffffffffffffff1916827bffffffffffffffffffffffffffffffffffffffffffffffffffffffff1916149050919050565b600033905090565b61156a8383836001611920565b505050565b600061157b8484611464565b90507fffffffffffffffffffffffffffffffffffffffffffffffffffffffffffffffff8110156115fe57818110156115ee578281836040517ffb8f41b20000000000000000000000000000000000000000000000000000000081526004016115e593929190612dcd565b60405180910390fd5b6115fd84848484036000611920565b5b50505050565b600073ffffffffffffffffffffffffffffffffffffffff168373ffffffffffffffffffffffffffffffffffffffff16036116765760006040517f96c6fd1e00000000000000000000000000000000000000000000000000000000815260040161166d9190612e04565b60405180910390fd5b600073ffffffffffffffffffffffffffffffffffffffff168273ffffffffffffffffffffffffffffffffffffffff16036116e85760006040517fec442f050000000000000000000000000000000000000000000000000000000081526004016116df9190612e04565b60405180910390fd5b6116f3838383611af7565b505050565b61170981611704611555565b611d1c565b50565b60006117188383611144565b6117f35760016005600085815260200190815260200160002060000160008473ffffffffffffffffffffffffffffffffffffffff1673ffffffffffffffffffffffffffffffffffffffff16815260200190815260200160002060006101000a81548160ff021916908315150217905550611790611555565b73ffffffffffffffffffffffffffffffffffffffff168273ffffffffffffffffffffffffffffffffffffffff16847f2f8788117e7eff1d82e926ec794901d17c78024a50270940304540a733656f0d60405160405180910390a4600190506117f8565b600090505b92915050565b600061180a8383611144565b156118e65760006005600085815260200190815260200160002060000160008473ffffffffffffffffffffffffffffffffffffffff1673ffffffffffffffffffffffffffffffffffffffff16815260200190815260200160002060006101000a81548160ff021916908315150217905550611883611555565b73ffffffffffffffffffffffffffffffffffffffff168273ffffffffffffffffffffffffffffffffffffffff16847ff6391f5c32d9c69d2a47ea670b442974b53935d1edc7fd64eb21e047a839171b60405160405180910390a4600190506118eb565b600090505b92915050565b61191e600960009054906101000a900473ffffffffffffffffffffffffffffffffffffffff166001611d6d565b565b600073ffffffffffffffffffffffffffffffffffffffff168473ffffffffffffffffffffffffffffffffffffffff16036119925760006040517fe602df050000000000000000000000000000000000000000000000000000000081526004016119899190612e04565b60405180910390fd5b600073ffffffffffffffffffffffffffffffffffffffff168373ffffffffffffffffffffffffffffffffffffffff1603611a045760006040517f94280d620000000000000000000000000000000000000000000000000000000081526004016119fb9190612e04565b60405180910390fd5b81600160008673ffffffffffffffffffffffffffffffffffffffff1673ffffffffffffffffffffffffffffffffffffffff16815260200190815260200160002060008573ffffffffffffffffffffffffffffffffffffffff1673ffffffffffffffffffffffffffffffffffffffff168152602001908152602001600020819055508015611af1578273ffffffffffffffffffffffffffffffffffffffff168473ffffffffffffffffffffffffffffffffffffffff167f8c5be1e5ebec7d5bd14f71427d1e84f3dd0314c0f7b2291e5b200ac8c7c3b92584604051611ae891906120c9565b60405180910390a35b50505050565b600073ffffffffffffffffffffffffffffffffffffffff168373ffffffffffffffffffffffffffffffffffffffff1603611b49578060026000828254611b3d9190612e1f565b92505081905550611c1c565b60008060008573ffffffffffffffffffffffffffffffffffffffff1673ffffffffffffffffffffffffffffffffffffffff16815260200190815260200160002054905081811015611bd5578381836040517fe450d38c000000000000000000000000000000000000000000000000000000008152600401611bcc93929190612dcd565b60405180910390fd5b8181036000808673ffffffffffffffffffffffffffffffffffffffff1673ffffffffffffffffffffffffffffffffffffffff16815260200190815260200160002081905550505b600073ffffffffffffffffffffffffffffffffffffffff168273ffffffffffffffffffffffffffffffffffffffff1603611c655780600260008282540392505081905550611cb2565b806000808473ffffffffffffffffffffffffffffffffffffffff1673ffffffffffffffffffffffffffffffffffffffff168152602001908152602001600020600082825401925050819055505b8173ffffffffffffffffffffffffffffffffffffffff168373ffffffffffffffffffffffffffffffffffffffff167fddf252ad1be2c89b69c2b068fc378daa952ba7f163c4a11628f55a4df523b3ef83604051611d0f91906120c9565b60405180910390a3505050565b611d268282611144565b611d695780826040517fe2517d3f000000000000000000000000000000000000000000000000000000008152600401611d60929190612e53565b60405180910390fd5b5050565b600073ffffffffffffffffffffffffffffffffffffffff168273ffffffffffffffffffffffffffffffffffffffff1603611ddf5760006040517fec442f05000000000000000000000000000000000000000000000000000000008152600401611dd69190612e04565b60405180910390fd5b611deb60008383611af7565b5050565b6000604051905090565b600080fd5b600080fd5b60007fffffffff0000000000000000000000000000000000000000000000000000000082169050919050565b611e3881611e03565b8114611e4357600080fd5b50565b600081359050611e5581611e2f565b92915050565b600060208284031215611e7157611e70611df9565b5b6000611e7f84828501611e46565b91505092915050565b60008115159050919050565b611e9d81611e88565b82525050565b6000602082019050611eb86000830184611e94565b92915050565b600081519050919050565b600082825260208201905092915050565b60005b83811015611ef8578082015181840152602081019050611edd565b60008484015250505050565b6000601f19601f8301169050919050565b6000611f2082611ebe565b611f2a8185611ec9565b9350611f3a818560208601611eda565b611f4381611f04565b840191505092915050565b60006020820190508181036000830152611f688184611f15565b905092915050565b600073ffffffffffffffffffffffffffffffffffffffff82169050919050565b6000611f9b82611f70565b9050919050565b611fab81611f90565b8114611fb657600080fd5b50565b600081359050611fc881611fa2565b92915050565b6000819050919050565b611fe181611fce565b8114611fec57600080fd5b50565b600081359050611ffe81611fd8565b92915050565b6000806040838503121561201b5761201a611df9565b5b600061202985828601611fb9565b925050602061203a85828601611fef565b9150509250929050565b6000819050919050565b61205781612044565b811461206257600080fd5b50565b6000813590506120748161204e565b92915050565b6000806040838503121561209157612090611df9565b5b600061209f85828601612065565b92505060206120b085828601611fb9565b9150509250929050565b6120c381611fce565b82525050565b60006020820190506120de60008301846120ba565b92915050565b6000806000606084860312156120fd576120fc611df9565b5b600061210b86828701611fb9565b935050602061211c86828701611fb9565b925050604061212d86828701611fef565b9150509250925092565b60006020828403121561214d5761214c611df9565b5b600061215b84828501612065565b91505092915050565b61216d81612044565b82525050565b60006020820190506121886000830184612164565b92915050565b600060ff82169050919050565b6121a48161218e565b82525050565b60006020820190506121bf600083018461219b565b92915050565b600080fd5b600080fd5b7f4e487b7100000000000000000000000000000000000000000000000000000000600052604160045260246000fd5b61220782611f04565b810181811067ffffffffffffffff82111715612226576122256121cf565b5b80604052505050565b6000612239611def565b905061224582826121fe565b919050565b600067ffffffffffffffff821115612265576122646121cf565b5b61226e82611f04565b9050602081019050919050565b82818337600083830152505050565b600061229d6122988461224a565b61222f565b9050828152602081018484840111156122b9576122b86121ca565b5b6122c484828561227b565b509392505050565b600082601f8301126122e1576122e06121c5565b5b81356122f184826020860161228a565b91505092915050565b600063ffffffff82169050919050565b612313816122fa565b811461231e57600080fd5b50565b6000813590506123308161230a565b92915050565b6000806040838503121561234d5761234c611df9565b5b600083013567ffffffffffffffff81111561236b5761236a611dfe565b5b612377858286016122cc565b925050602061238885828601612321565b9150509250929050565b600067ffffffffffffffff8211156123ad576123ac6121cf565b5b602082029050602081019050919050565b600080fd5b60006123d66123d184612392565b61222f565b905080838252602082019050602084028301858111156123f9576123f86123be565b5b835b81811015612422578061240e8882611fb9565b8452602084019350506020810190506123fb565b5050509392505050565b600082601f830112612441576124406121c5565b5b81356124518482602086016123c3565b91505092915050565b6000806040838503121561247157612470611df9565b5b600083013567ffffffffffffffff81111561248f5761248e611dfe565b5b61249b8582860161242c565b925050602083013567ffffffffffffffff8111156124bc576124bb611dfe565b5b6124c8858286016122cc565b9150509250929050565b6000602082840312156124e8576124e7611df9565b5b600082013567ffffffffffffffff81111561250657612505611dfe565b5b612512848285016122cc565b91505092915050565b612524816122fa565b82525050565b600060208201905061253f600083018461251b565b92915050565b6000806040838503121561255c5761255b611df9565b5b600061256a85828601611fb9565b925050602083013567ffffffffffffffff81111561258b5761258a611dfe565b5b612597858286016122cc565b9150509250929050565b6000602082840312156125b7576125b6611df9565b5b60006125c584828501611fb9565b91505092915050565b600067ffffffffffffffff8211156125e9576125e86121cf565b5b602082029050602081019050919050565b600061260d612608846125ce565b61222f565b905080838252602082019050602084028301858111156126305761262f6123be565b5b835b8181101561267757803567ffffffffffffffff811115612655576126546121c5565b5b80860161266289826122cc565b85526020850194505050602081019050612632565b5050509392505050565b600082601f830112612696576126956121c5565b5b81356126a68482602086016125fa565b91505092915050565b6000602082840312156126c5576126c4611df9565b5b600082013567ffffffffffffffff8111156126e3576126e2611dfe565b5b6126ef84828501612681565b91505092915050565b600081519050919050565b600082825260208201905092915050565b6000819050602082019050919050565b600082825260208201905092915050565b600061274082611ebe565b61274a8185612724565b935061275a818560208601611eda565b61276381611f04565b840191505092915050565b600061277a8383612735565b905092915050565b6000602082019050919050565b600061279a826126f8565b6127a48185612703565b9350836020820285016127b685612714565b8060005b858110156127f257848403895281516127d3858261276e565b94506127de83612782565b925060208a019950506001810190506127ba565b50829750879550505050505092915050565b6000602082019050818103600083015261281e818461278f565b905092915050565b6000806040838503121561283d5761283c611df9565b5b600061284b85828601611fb9565b925050602061285c85828601611fb9565b9150509250929050565b7f4e487b7100000000000000000000000000000000000000000000000000000000600052602260045260246000fd5b600060028204905060018216806128ad57607f821691505b6020821081036128c0576128bf612866565b5b50919050565b7f4e487b7100000000000000000000000000000000000000000000000000000000600052601160045260246000fd5b6000612900826122fa565b915061290b836122fa565b9250828201905063ffffffff811115612927576129266128c6565b5b92915050565b600081519050919050565b6000819050602082019050919050565b60006129548251612044565b80915050919050565b600082821b905092915050565b60006129758261292d565b8261297f84612938565b905061298a81612948565b925060208210156129ca576129c57fffffffffffffffffffffffffffffffffffffffffffffffffffffffffffffffff8360200360080261295d565b831692505b5050919050565b7f4e6f20766f746572732070726f76696465640000000000000000000000000000600082015250565b6000612a07601283611ec9565b9150612a12826129d1565b602082019050919050565b60006020820190508181036000830152612a36816129fa565b9050919050565b7f54686520656c656374696f6e206973206f6e676f696e67000000000000000000600082015250565b6000612a73601783611ec9565b9150612a7e82612a3d565b602082019050919050565b60006020820190508181036000830152612aa281612a66565b9050919050565b7f4e487b7100000000000000000000000000000000000000000000000000000000600052603260045260246000fd5b6000612ae38261218e565b9150612aee8361218e565b9250828203905060ff811115612b0757612b066128c6565b5b92915050565b600061ffff82169050919050565b6000612b2682612b0d565b915061ffff8203612b3a57612b396128c6565b5b600182019050919050565b7f596f7520617265206e6f7420616c6c6f77656420746f20766f74650000000000600082015250565b6000612b7b601b83611ec9565b9150612b8682612b45565b602082019050919050565b60006020820190508181036000830152612baa81612b6e565b9050919050565b7f596f7520617265206e6f7420616c6c6f77656420746f207468697320656c656360008201527f74696f6e00000000000000000000000000000000000000000000000000000000602082015250565b6000612c0d602483611ec9565b9150612c1882612bb1565b604082019050919050565b60006020820190508181036000830152612c3c81612c00565b9050919050565b7f566f74696e6720706572696f642068617320656e646564000000000000000000600082015250565b6000612c79601783611ec9565b9150612c8482612c43565b602082019050919050565b60006020820190508181036000830152612ca881612c6c565b9050919050565b7f596f75206861766520616c726561647920766f74656420696e2074686973206560008201527f6c656374696f6e00000000000000000000000000000000000000000000000000602082015250565b6000612d0b602783611ec9565b9150612d1682612caf565b604082019050919050565b60006020820190508181036000830152612d3a81612cfe565b9050919050565b6000612d4c8261218e565b9150612d578361218e565b9250828201905060ff811115612d7057612d6f6128c6565b5b92915050565b6000612d8182611fce565b91507fffffffffffffffffffffffffffffffffffffffffffffffffffffffffffffffff8203612db357612db26128c6565b5b600182019050919050565b612dc781611f90565b82525050565b6000606082019050612de26000830186612dbe565b612def60208301856120ba565b612dfc60408301846120ba565b949350505050565b6000602082019050612e196000830184612dbe565b92915050565b6000612e2a82611fce565b9150612e3583611fce565b9250828201905080821115612e4d57612e4c6128c6565b5b92915050565b6000604082019050612e686000830185612dbe565b612e756020830184612164565b939250505056fea26469706673582212206215968db5d0750eab5f316c8e4079a10b7e77893da7b27028e617dbc584a52264736f6c63430008170033",
  "linkReferences": {},
  "deployedLinkReferences": {}
}