{
  "_format": "hh-sol-artifact-1",
  "contractName": "Aday",
  "sourceName": "contracts/Aday.sol",
  "abi": [
    {
      "inputs": [
        {
          "internalType": "address",
          "name": "_tokenAddress",
          "type": "address"
        },
        {
          "internalType": "string",
          "name": "_nameAndSurname",
          "type": "string"
        },
        {
          "internalType": "uint8",
          "name": "_age",
          "type": "uint8"
        },
        {
          "internalType": "string",
          "name": "_gender",
          "type": "string"
        },
        {
          "internalType": "string",
          "name": "_electionName",
          "type": "string"
        },
        {
          "internalType": "string",
          "name": "_slogan",
          "type": "string"
        }
      ],
      "stateMutability": "nonpayable",
      "type": "constructor"
    },
    {
      "anonymous": false,
      "inputs": [
        {
          "indexed": true,
          "internalType": "address",
          "name": "owner",
          "type": "address"
        },
        {
          "indexed": false,
          "internalType": "uint256",
          "name": "amount",
          "type": "uint256"
        }
      ],
      "name": "TokensReturned",
      "type": "event"
    },
    {
      "inputs": [],
      "name": "getInfo",
      "outputs": [
        {
          "internalType": "string",
          "name": "nameAndSurname",
          "type": "string"
        },
        {
          "internalType": "uint8",
          "name": "age",
          "type": "uint8"
        },
        {
          "internalType": "string",
          "name": "gender",
          "type": "string"
        },
        {
          "internalType": "string",
          "name": "electionName",
          "type": "string"
        },
        {
          "internalType": "string",
          "name": "slogan",
          "type": "string"
        },
        {
          "internalType": "uint256",
          "name": "votingTime",
          "type": "uint256"
        },
        {
          "internalType": "uint16",
          "name": "amountToVote",
          "type": "uint16"
        }
      ],
      "stateMutability": "view",
      "type": "function"
    },
    {
      "inputs": [],
      "name": "owner",
      "outputs": [
        {
          "internalType": "address",
          "name": "",
          "type": "address"
        }
      ],
      "stateMutability": "view",
      "type": "function"
    },
    {
      "inputs": [],
      "name": "returnTokens",
      "outputs": [],
      "stateMutability": "nonpayable",
      "type": "function"
    },
    {
      "inputs": [],
      "name": "token",
      "outputs": [
        {
          "internalType": "contract ERC20",
          "name": "",
          "type": "address"
        }
      ],
      "stateMutability": "view",
      "type": "function"
    },
    {
      "inputs": [],
      "name": "voteSupply",
      "outputs": [
        {
          "internalType": "uint256",
          "name": "",
          "type": "uint256"
        }
      ],
      "stateMutability": "view",
      "type": "function"
    }
  ],
  "bytecode": "0x60806040526000600660006101000a81548160ff0219169083151502179055503480156200002c57600080fd5b5060405162001753380380620017538339818101604052810190620000529190620005d6565b600073ffffffffffffffffffffffffffffffffffffffff168673ffffffffffffffffffffffffffffffffffffffff1603620000c4576040517f08c379a0000000000000000000000000000000000000000000000000000000008152600401620000bb906200074f565b60405180910390fd5b856000806101000a81548173ffffffffffffffffffffffffffffffffffffffff021916908373ffffffffffffffffffffffffffffffffffffffff16021790555033600160006101000a81548173ffffffffffffffffffffffffffffffffffffffff021916908373ffffffffffffffffffffffffffffffffffffffff1602179055506020855111156200018d576040517f08c379a00000000000000000000000000000000000000000000000000000000081526004016200018490620007c1565b60405180910390fd5b602082511115620001d5576040517f08c379a0000000000000000000000000000000000000000000000000000000008152600401620001cc9062000833565b60405180910390fd5b6020815111156200021d576040517f08c379a00000000000000000000000000000000000000000000000000000000081526004016200021490620008a5565b60405180910390fd5b6040518060e0016040528086620002349062000932565b6fffffffffffffffffffffffffffffffff191681526020018560ff168152602001846200026190620009e5565b77ffffffffffffffffffffffffffffffffffffffffffffffff19168152602001836200028d9062000a76565b8152602001600061ffff1681526020014263ffffffff16815260200182620002b59062000a76565b815250600260008201518160000160006101000a8154816fffffffffffffffffffffffffffffffff021916908360801c021790555060208201518160000160106101000a81548160ff021916908360ff16021790555060408201518160000160116101000a81548167ffffffffffffffff021916908360c01c02179055506060820151816001015560808201518160020160006101000a81548161ffff021916908361ffff16021790555060a08201518160020160026101000a81548163ffffffff021916908363ffffffff16021790555060c0820151816003015590505050505050505062000ae6565b6000604051905090565b600080fd5b600080fd5b600073ffffffffffffffffffffffffffffffffffffffff82169050919050565b6000620003e182620003b4565b9050919050565b620003f381620003d4565b8114620003ff57600080fd5b50565b6000815190506200041381620003e8565b92915050565b600080fd5b600080fd5b6000601f19601f8301169050919050565b7f4e487b7100000000000000000000000000000000000000000000000000000000600052604160045260246000fd5b6200046e8262000423565b810181811067ffffffffffffffff8211171562000490576200048f62000434565b5b80604052505050565b6000620004a5620003a0565b9050620004b3828262000463565b919050565b600067ffffffffffffffff821115620004d657620004d562000434565b5b620004e18262000423565b9050602081019050919050565b60005b838110156200050e578082015181840152602081019050620004f1565b60008484015250505050565b6000620005316200052b84620004b8565b62000499565b90508281526020810184848401111562000550576200054f6200041e565b5b6200055d848285620004ee565b509392505050565b600082601f8301126200057d576200057c62000419565b5b81516200058f8482602086016200051a565b91505092915050565b600060ff82169050919050565b620005b08162000598565b8114620005bc57600080fd5b50565b600081519050620005d081620005a5565b92915050565b60008060008060008060c08789031215620005f657620005f5620003aa565b5b60006200060689828a0162000402565b965050602087015167ffffffffffffffff8111156200062a5762000629620003af565b5b6200063889828a0162000565565b95505060406200064b89828a01620005bf565b945050606087015167ffffffffffffffff8111156200066f576200066e620003af565b5b6200067d89828a0162000565565b935050608087015167ffffffffffffffff811115620006a157620006a0620003af565b5b620006af89828a0162000565565b92505060a087015167ffffffffffffffff811115620006d357620006d2620003af565b5b620006e189828a0162000565565b9150509295509295509295565b600082825260208201905092915050565b7f496e76616c696420746f6b656e20616464726573730000000000000000000000600082015250565b600062000737601583620006ee565b91506200074482620006ff565b602082019050919050565b600060208201905081810360008301526200076a8162000728565b9050919050565b7f4e616d6520746f6f206c6f6e6700000000000000000000000000000000000000600082015250565b6000620007a9600d83620006ee565b9150620007b68262000771565b602082019050919050565b60006020820190508181036000830152620007dc816200079a565b9050919050565b7f47726f7570206e616d6520746f6f206c6f6e6700000000000000000000000000600082015250565b60006200081b601383620006ee565b91506200082882620007e3565b602082019050919050565b600060208201905081810360008301526200084e816200080c565b9050919050565b7f536c6f67616e20746f6f206c6f6e670000000000000000000000000000000000600082015250565b60006200088d600f83620006ee565b91506200089a8262000855565b602082019050919050565b60006020820190508181036000830152620008c0816200087e565b9050919050565b600081519050919050565b6000819050602082019050919050565b60007fffffffffffffffffffffffffffffffff0000000000000000000000000000000082169050919050565b60006200091c8251620008e2565b80915050919050565b600082821b905092915050565b60006200093f82620008c7565b826200094b84620008d2565b905062000958816200090e565b925060108210156200099b57620009967fffffffffffffffffffffffffffffffff000000000000000000000000000000008360100360080262000925565b831692505b5050919050565b60007fffffffffffffffff00000000000000000000000000000000000000000000000082169050919050565b6000620009dc8251620009a2565b80915050919050565b6000620009f282620008c7565b82620009fe84620008d2565b905062000a0b81620009ce565b9250600882101562000a4e5762000a497fffffffffffffffff0000000000000000000000000000000000000000000000008360080360080262000925565b831692505b5050919050565b6000819050919050565b600062000a6d825162000a55565b80915050919050565b600062000a8382620008c7565b8262000a8f84620008d2565b905062000a9c8162000a5f565b9250602082101562000adf5762000ada7fffffffffffffffffffffffffffffffffffffffffffffffffffffffffffffffff8360200360080262000925565b831692505b5050919050565b610c5d8062000af66000396000f3fe608060405234801561001057600080fd5b50600436106100575760003560e01c80634f99fecc1461005c5780635a9b0b891461007a5780638da5cb5b1461009e578063f9718fc8146100bc578063fc0c546a146100c6575b600080fd5b6100646100e4565b60405161007191906105e4565b60405180910390f35b610082610186565b60405161009597969594939291906106c8565b60405180910390f35b6100a661029b565b6040516100b39190610794565b60405180910390f35b6100c46102c1565b005b6100ce6105a7565b6040516100db919061080e565b60405180910390f35b60008060009054906101000a900473ffffffffffffffffffffffffffffffffffffffff1673ffffffffffffffffffffffffffffffffffffffff166370a08231306040518263ffffffff1660e01b81526004016101409190610794565b602060405180830381865afa15801561015d573d6000803e3d6000fd5b505050506040513d601f19601f82011682018060405250810190610181919061085a565b905090565b606060006060806060600080600260000160009054906101000a900460801b6040516020016101b591906108d4565b604051602081830303815290604052600260000160109054906101000a900460ff16600260000160119054906101000a900460c01b6040516020016101fa919061093c565b60405160208183030381529060405260026001015460405160200161021f9190610982565b6040516020818303038152906040526002600301546040516020016102449190610982565b6040516020818303038152906040526002800160029054906101000a900463ffffffff166002800160009054906101000a900461ffff168163ffffffff169150965096509650965096509650965090919293949596565b600160009054906101000a900473ffffffffffffffffffffffffffffffffffffffff1681565b600160009054906101000a900473ffffffffffffffffffffffffffffffffffffffff1673ffffffffffffffffffffffffffffffffffffffff163373ffffffffffffffffffffffffffffffffffffffff1614610351576040517f08c379a0000000000000000000000000000000000000000000000000000000008152600401610348906109e9565b60405180910390fd5b600660009054906101000a900460ff16156103a1576040517f08c379a000000000000000000000000000000000000000000000000000000000815260040161039890610a55565b60405180910390fd5b6001600660006101000a81548160ff02191690831515021790555061ffff80166103c96100e4565b111561040a576040517f08c379a000000000000000000000000000000000000000000000000000000000815260040161040190610ac1565b60405180910390fd5b60006104146100e4565b9050806002800160006101000a81548161ffff021916908361ffff16021790555060008054906101000a900473ffffffffffffffffffffffffffffffffffffffff1673ffffffffffffffffffffffffffffffffffffffff1663a9059cbb600160009054906101000a900473ffffffffffffffffffffffffffffffffffffffff16836040518363ffffffff1660e01b81526004016104b2929190610b12565b6020604051808303816000875af11580156104d1573d6000803e3d6000fd5b505050506040513d601f19601f820116820180604052508101906104f59190610b73565b610534576040517f08c379a000000000000000000000000000000000000000000000000000000000815260040161052b90610bec565b60405180910390fd5b600160009054906101000a900473ffffffffffffffffffffffffffffffffffffffff1673ffffffffffffffffffffffffffffffffffffffff167f3ea35e37925c43a4138631a7bbdbd1349afe6857f7edfa87e0d7b6e97db220308260405161059c9190610c0c565b60405180910390a250565b60008054906101000a900473ffffffffffffffffffffffffffffffffffffffff1681565b6000819050919050565b6105de816105cb565b82525050565b60006020820190506105f960008301846105d5565b92915050565b600081519050919050565b600082825260208201905092915050565b60005b8381101561063957808201518184015260208101905061061e565b60008484015250505050565b6000601f19601f8301169050919050565b6000610661826105ff565b61066b818561060a565b935061067b81856020860161061b565b61068481610645565b840191505092915050565b600060ff82169050919050565b6106a58161068f565b82525050565b600061ffff82169050919050565b6106c2816106ab565b82525050565b600060e08201905081810360008301526106e2818a610656565b90506106f1602083018961069c565b81810360408301526107038188610656565b905081810360608301526107178187610656565b9050818103608083015261072b8186610656565b905061073a60a08301856105d5565b61074760c08301846106b9565b98975050505050505050565b600073ffffffffffffffffffffffffffffffffffffffff82169050919050565b600061077e82610753565b9050919050565b61078e81610773565b82525050565b60006020820190506107a96000830184610785565b92915050565b6000819050919050565b60006107d46107cf6107ca84610753565b6107af565b610753565b9050919050565b60006107e6826107b9565b9050919050565b60006107f8826107db565b9050919050565b610808816107ed565b82525050565b600060208201905061082360008301846107ff565b92915050565b600080fd5b610837816105cb565b811461084257600080fd5b50565b6000815190506108548161082e565b92915050565b6000602082840312156108705761086f610829565b5b600061087e84828501610845565b91505092915050565b60007fffffffffffffffffffffffffffffffff0000000000000000000000000000000082169050919050565b6000819050919050565b6108ce6108c982610887565b6108b3565b82525050565b60006108e082846108bd565b60108201915081905092915050565b60007fffffffffffffffff00000000000000000000000000000000000000000000000082169050919050565b6000819050919050565b610936610931826108ef565b61091b565b82525050565b60006109488284610925565b60088201915081905092915050565b6000819050919050565b6000819050919050565b61097c61097782610957565b610961565b82525050565b600061098e828461096b565b60208201915081905092915050565b7f4f6e6c79206f776e65722063616e2072657475726e20746f6b656e7300000000600082015250565b60006109d3601c8361060a565b91506109de8261099d565b602082019050919050565b60006020820190508181036000830152610a02816109c6565b9050919050565b7f546f6b656e7320616c72656164792072657475726e6564000000000000000000600082015250565b6000610a3f60178361060a565b9150610a4a82610a09565b602082019050919050565b60006020820190508181036000830152610a6e81610a32565b9050919050565b7f56616c756520657863656564732075696e743136206c696d6974000000000000600082015250565b6000610aab601a8361060a565b9150610ab682610a75565b602082019050919050565b60006020820190508181036000830152610ada81610a9e565b9050919050565b6000610afc610af7610af2846106ab565b6107af565b6105cb565b9050919050565b610b0c81610ae1565b82525050565b6000604082019050610b276000830185610785565b610b346020830184610b03565b9392505050565b60008115159050919050565b610b5081610b3b565b8114610b5b57600080fd5b50565b600081519050610b6d81610b47565b92915050565b600060208284031215610b8957610b88610829565b5b6000610b9784828501610b5e565b91505092915050565b7f5472616e7366657220746f206f776e6572206661696c65640000000000000000600082015250565b6000610bd660188361060a565b9150610be182610ba0565b602082019050919050565b60006020820190508181036000830152610c0581610bc9565b9050919050565b6000602082019050610c216000830184610b03565b9291505056fea264697066735822122012702c3525d1c1cdb5e9442459768c9f8b38e1f41ed1714b0c1516327fb41c4a64736f6c63430008170033",
  "linkReferences": {},
  "deployedLinkReferences": {}
}